:020000040800F2
:100000000000022089B90008FFFE000807FF000871
:100010000FFF000817FF00081FFF000861A5000878
:1000200000000000000000000000000027FF0008A2
:1000300035FF00080000000043FF000851FF0008E2
:1000400061A5000861A500085DFF000861A5000822
:1000500061A5000861A5000861A5000861A5000868
:1000600061A5000871FF000861A5000861A50008EE
:1000700061A5000861A5000861A5000861A5000848
:1000800061A5000861A5000861A5000861A5000838
:1000900061A5000861A5000861A5000861A5000828
:1000A00061A5000861A5000861A5000861A5000818
:1000B00061A50008ADFF0008BBFF000861A50008AE
:1000C00061A5000861A5000861A5000861A50008F8
:1000D00061A5000861A5000861A5000861A50008E8
:1000E00061A5000861A5000861A5000861A50008D8
:1000F00061A5000861A5000861A5000861A50008C8
:1001000061A5000861A5000861A50008C9FF0008F5
:1001100061A5000861A5000861A5000861A50008A7
:1001200061A5000861A5000861A50008EDFF0008B1
:1001300061A500082500010861A5000861A5000867
:1001400061A5000861A500080100010861A500087B
:1001500061A5000861A5000861A5000861A5000867
:1001600010B5054C237833B9044B13B10448AFF3F1
:1001700000800123237010BDF00500200000000066
:10018000C0EA020808B5034B1BB103490348AFF3AB
:10019000008008BD00000000F4050020C0EA02084D
:1001A00070B4840746D04C1E002941D0D5B2034616
:1001B00002E0611EE4B30C4603F8015B9907F8D135
:1001C000032C2ED9D5B245EA05250F2C45EA054565
:1001D00019D9264603F11001103E0F2E41F8105C8C
:1001E00041F80C5C41F8085C41F8045C01F1100135
:1001F000F2D8A4F1100121F00F0104F00F04103126
:10020000032C0B440DD91E4621460439032946F818
:10021000045BFAD8211F21F0030104310B4404F0E0
:1002200003042CB1D2B21C4403F8012BA342FBD12E
:1002300070BC70470C460346C2E7000053B94AB988
:10024000002908BF00281CBF4FF0FF314FF0FF30DE
:1002500000F0B0B9ADF1080C6DE904CE00F006F87D
:10026000DDF804E0DDE9022304B070472DE9F04F2A
:10027000099D884604468E46002B4AD18A4217467D
:100280005FD9B2FA82F64EB1C6F1200301FA06FE3A
:10029000B740B44020FA03F343EA0E0E4FEA174882
:1002A0001FFA87FC230CBEFBF8F108FB11EE01FBE3
:1002B0000CF243EA0E439A4207D9FB1801F1FF30D2
:1002C00002D29A4200F2548101469B1AA2B2B3FBB9
:1002D000F8F008FB103300FB0CFC42EA03429445A3
:1002E0000BD9BA1800F1FF332CBF01240024944528
:1002F00002D9002C00F03F81184640EA0140A2EBF1
:100300000C0200211DB1F2400023C5E90023BDE825
:10031000F08F8B4205D90DB1C5E9000100210846D7
:10032000F5E7B3FA83F100294ED14345C0F01281BD
:10033000824240F20F810846002DE8D0C5E9004E08
:10034000E5E7002A00F0AC80B2FA82F6002E40F019
:10035000BB808B1A4FEA124EBCB20121020C80B254
:10036000B3FBFEFC0EFB1C3342EA034304FB0CF21E
:100370009A420ED9FB180CF1FF382CBF4FF001093F
:100380004FF000099A4203D9B9F1000F00F0EC8058
:10039000C4469B1AB3FBFEF80EFB183304FB08F4AB
:1003A00040EA034294420BD9BA1808F1FF332CBF3C
:1003B00001200020944202D9002800F0D180984604
:1003C000121B48EA0C409DE7C1F120068B4008FA59
:1003D00001F400FA01F922FA06F728FA06F88A4031
:1003E0001F4320FA06F3380C23431FFA87FC1C0C2A
:1003F000B8FBF0FE00FB1E8844EA08440EFB0CF834
:10040000A0450ED93C190EF1FF3A2CBF4FF0010B5D
:100410004FF0000BA04503D9BBF1000F00F0B880EE
:10042000D646A4EB08041FFA83F8B4FBF0F300FBF4
:10043000134403FB0CFC48EA0444A4450ED93C19C0
:1004400003F1FF302CBF4FF001084FF00008A44526
:1004500003D9B8F1000F00F09F80034643EA0E4035
:10046000A4EB0C04A0FB02EC64457346E04602D307
:1004700007D1F14505D2BEEB02036CEB070C013846
:10048000E0465DB1B9EB030264EB080404FA06F63A
:1004900022FA01F3CC401E43C5E90064002136E78F
:1004A000B1FBF2FC010C144680B2964641EA0841C9
:1004B0002026904640EA01431046B1FBF2F1A3EB3F
:1004C000080341EA0C414BE7B740C6F1200301FAAB
:1004D00006F221FA03F84FEA174E20FA03F3BCB2F2
:1004E000B0401343020C190C80B2B8FBFEF90EFBAE
:1004F000198841EA084109FB04F8884551D979185F
:1005000009F1FF3C2CBF4FF0010A4FF0000A88456B
:1005100002D9BAF1000F31D0A1EB0801B1FBFEF90D
:1005200009FB04F80EFB19119BB243EA0143434552
:1005300035D2FB1809F1FF312CBF4FF0010A4FF003
:10054000000A4345BBD2BAF1000FB8D1A9F10201AC
:100550003B44B4E7841A68EB030201209646EBE6BD
:100560003A44A8F102082BE7ACF1020C3B4410E737
:1005700002393B44A9E63A440238BEE6A7EB080834
:10058000A9F1020C4144B1FBFEF909FB04F8C9E7EB
:10059000AEF1020E3C4444E7023B3C445EE7494670
:1005A0008DE7A1EB0801CC46B1FBFEF909FB04F88D
:1005B000B8E700BF704700BF80B483B000AFEFF36F
:1005C00010837B607B6818460C37BD465DF8047B62
:1005D000704780B483B000AF78607B6883F3108885
:1005E00000BF0C37BD465DF8047B704780B400AF98
:1005F00072B600BFBD465DF8047B704780B483B01F
:1006000000AF78607B687A681A607B687A685A60A5
:1006100000BF0C37BD465DF8047B704780B584B0E1
:1006200000AF7860FFF7C8FFF860FFF7DFFF7B6877
:100630001B687A689A420CBF01230023DBB2FB726D
:10064000F868FFF7C6FFFB7A18461037BD4680BD35
:1006500080B584B000AF78603960FFF7ADFFF86017
:10066000FFF7C4FF7B681A683B681A603B687A68CA
:100670005A607B683A681A603B681B683A685A603F
:10068000F868FFF7A6FF00BF1037BD4680BD80B5F4
:1006900084B000AF78603960FFF78EFFF860FFF735
:1006A000A5FF3B687A681A607B685A683B685A60A5
:1006B0007B683A685A603B685B683A681A60F86819
:1006C000FFF787FF00BF1037BD4680BD80B584B0FF
:1006D00000AF7860FFF770FFF860FFF787FF7B6877
:1006E0005B687A6812681A607B681B687A6852686F
:1006F0005A60F868FFF76DFF00BF1037BD4680BD38
:1007000080B584B000AF78603960FFF755FFF860BE
:10071000FFF76CFF7B681A683B681A607B681B6890
:100720001846FFF7D3FFF868FFF753FF00BF1037F5
:10073000BD4680BD80B584B000AF78603960FFF7FA
:100740003BFFF860FFF752FF7B681A683B681A604E
:10075000F868FFF73EFF00BF1037BD4680BD80B48C
:1007600083B000AF0346FB7100BF0C37BD465DF898
:10077000047B704780B483B000AF0346FB7100BFB9
:100780000C37BD465DF8047B704780B483B000AF82
:100790000346FB7100BF0C37BD465DF8047B704714
:1007A00080B483B000AF0346FB7100BF0C37BD4679
:1007B0005DF8047B704780B483B000AF0346FB71E3
:1007C00000BF0C37BD465DF8047B704780B483B032
:1007D00000AF786039607B681B6823F440023B6897
:1007E0001A437B681A6000BF0C37BD465DF8047B76
:1007F000704780B483B000AF786039607B685B6C11
:1008000023F001023B681A437B685A6400BF0C372F
:10081000BD465DF8047B704780B483B000AF78605C
:1008200039607B685B6C23F002023B681A437B688B
:100830005A6400BF0C37BD465DF8047B704780B436
:1008400083B000AF786039607B681B6923F0005289
:100850003B681A437B681A6100BF0C37BD465DF8E0
:10086000047B704780B485B000AFF860B9607A60EF
:10087000FB685A69BB6803F00403072101FA03F31C
:10088000DB431A40BB6803F00403796801FA03F301
:100890001A43FB685A6100BF1437BD465DF8047BFC
:1008A000704780B483B000AF786039607B68DB68E4
:1008B00023F400123B681A437B68DA6000BF0C37F0
:1008C000BD465DF8047B704780B485B000AFF8602A
:1008D000B9607A60FB689A6ABB6803F01F030F2156
:1008E00001FA03F3DB431A407B689B0E03F00F0110
:1008F000BB6803F01F0301FA03F31A43FB689A6213
:1009000000BF1437BD465DF8047B704780B483B0E8
:1009100000AF786039607B68DB6823F003023B68D6
:100920001A437B68DA6000BF0C37BD465DF8047B74
:10093000704780B483B000AF78607B68DB6803F0F9
:10094000030318460C37BD465DF8047B704780B43E
:1009500085B000AFF860B9607A60FB685A69BB681F
:100960001B02DB431A40BB6819027B680B4023F073
:100970007C4323F0FF031A43FB685A6100BF14371E
:10098000BD465DF8047B704780B483B000AF7860EB
:100990007B689B6823F0104323F0170343F08052D9
:1009A0007B689A6000BF0C37BD465DF8047B7047DA
:1009B00080B483B000AF78607B689B6823F01043FD
:1009C00023F017037A68936000BF0C37BD465DF8CB
:1009D000047B704780B483B000AF78607B689B680D
:1009E00003F08053B3F1805F01D1012300E00023C5
:1009F00018460C37BD465DF8047B704780B483B061
:100A000000AF78607B689B6823F0004323F01703F6
:100A100043F001027B689A6000BF0C37BD465DF869
:100A2000047B704780B483B000AF78607B689B68BC
:100A300023F0004323F0170343F002027B689A601F
:100A400000BF0C37BD465DF8047B704780B483B0AF
:100A500000AF78607B689B6803F00103012B01D134
:100A6000012300E0002318460C37BD465DF8047BE7
:100A7000704780B483B000AF78607B689B6803F0F8
:100A80000203022B01D1012300E0002318460C379A
:100A9000BD465DF8047B704780B483B000AF7860DA
:100AA0007B689B6823F0004323F0170343F0004268
:100AB0007B689A6000BF0C37BD465DF8047B7047C9
:100AC00080B483B000AF78607B689B6803F000431C
:100AD000B3F1004F01D1012300E0002318460C3789
:100AE000BD465DF8047B704780B483B000AF78608A
:100AF0007B689B6823F0004323F0170343F0040254
:100B00007B689A6000BF0C37BD465DF8047B704778
:100B100080B483B000AF78607B689B6803F0040307
:100B2000042B01D1012300E0002318460C37BD46F9
:100B30005DF8047B704780B483B000AF78607B6859
:100B40009B6803F01003102B01D1012300E0002368
:100B500018460C37BD465DF8047B704780B483B0FF
:100B600000AF78607B681B6C9BB2C3F30B039BB236
:100B700018460C37BD465DF8047B704780B483B0DF
:100B800000AF78607B681B6C9BB2C3F309039BB218
:100B900018460C37BD465DF8047B704780B483B0BF
:100BA00000AF78607B681B6CDBB218460C37BD4623
:100BB0005DF8047B704780B483B000AF78607B68D9
:100BC0001B6CDBB203F03F03DBB218460C37BD46AB
:100BD0005DF8047B704780B483B000AF78607B68B9
:100BE0001B6803F00103012B01D1012300E0002366
:100BF00018460C37BD465DF8047B704780B483B05F
:100C000000AF78607B681B6803F00403042B01D1FC
:100C1000012300E0002318460C37BD465DF8047B35
:100C2000704780B483B000AF78607B6801221A609F
:100C300000BF0C37BD465DF8047B704780B483B0BD
:100C400000AF78607B6804221A6000BF0C37BD4695
:100C50005DF8047B7047000080B483B000AF78601B
:100C6000074BD3F8E83023F4E04205497B6813438F
:100C7000C1F8E83000BF0C37BD465DF8047B704713
:100C8000000C024680B485B000AF78600A4BD3F800
:100C9000942009497B681343C1F89430064BD3F87C
:100CA00094207B681340FB60FB6800BF1437BD468F
:100CB0005DF8047B704700BF000C024680B483B02F
:100CC00000AF7860074BD3F894207B68DB4305497D
:100CD0001340C1F8943000BF0C37BD465DF8047B6B
:100CE000704700BF000C024680B582B000AF0923F8
:100CF000FB7100F0A5FB0346FB71FB79002B0CD1C7
:100D0000084B00221A60084B084A1A60084B002260
:100D10001A6000F0BBF900F09BFBFB79184608371E
:100D2000BD4680BD100600200000002000100246D5
:100D30000C06002080B584B000AF78600923FB73F7
:100D40007B68002B02D10623FB731BE07B681B79B9
:100D5000012B02D10323FB7314E000F071FB034667
:100D6000FB73FB7B002B0DD1094B1B680133084A39
:100D70001360074B1A687B681A607B6801221A713E
:100D800000F066FBFB7B18461037BD4680BD00BFF8
:100D90001406002080B586B000AF78600B46FB706B
:100DA0000923FB75EFF31083FB60FB683B6172B6B0
:100DB00000BFFB78002B0DD17B681B68012202FA73
:100DC00003F3DA43164B1B681340154A13600023E4
:100DD000FB7510E0FB78012B0BD17B681B680122AF
:100DE0009A400F4B1B6813430D4A13600023FB7599
:100DF00001E00823FB750A4B1B68002B02D100F0B1
:100E000045F901E000F0D6F83B69BB60BB6883F3AD
:100E1000108800BFFB7D18461837BD4680BD00BF57
:100E20000C06002080B584B000AF786039600923DB
:100E3000FB730023BB810220FFF791FC7B68002B32
:100E400002D03B68002B02D10623FB739DE07B6838
:100E50001B79002B02D10423FB7396E07B681A6890
:100E60004C4B1B689A4203D87B681B68002B02D14D
:100E70000523FB7389E07B681B6801229A40464B7F
:100E80001B681340002B02D10823FB737DE000F0A8
:100E9000D7FA0346FB73FB7B002B76D17B681A687D
:100EA0003E4B1B689A4209D0786800F041F903462E
:100EB000FB733B4B1B681846FFF7A0FDFB7B002B29
:100EC0005FD1786800F02AFA0346BB81354B1A8857
:100ED000354B1B889A4224D1BB899BB21A4640F6F7
:100EE000E44303FB02F27B68DB685B0840F6FF71BA
:100EF00021FA03F3B2FBF3F34FF47A7202FB03F32C
:100F0000A3F53923A3F50C63284A82FB031292123E
:100F1000DB17D31A9BB21E339BB21AB23B681A80FE
:100F200031E0214B1A881F4B1B889A4224D0BB8981
:100F30009BB21A467B68DB685B0802FA03F31A4629
:100F400040F6E44302FB03F3194AA2FB03239B0987
:100F50001A46144B1B88D31A642203FB02F2124B6D
:100F60001B8819460F4B1B88CB1A92FBF3F39BB2DD
:100F70001E339BB21AB201E047F6FF723B681A803B
:100F800001E00723FB7300F063FAFB7B1846103780
:100F9000BD4680BD140600200C060020100600206F
:100FA000000000201007F90B4207F90BAD8BDB683E
:100FB000F119760580B584B000AF00233B600020B6
:100FC000FFF7CDFBEFF31083BB60BB68FB6072B62D
:100FD00000BF2D4B1B681846FFF738FD0346002B5A
:100FE00045D10020FFF738FE2020FFF74BFE264BAF
:100FF0001B681846FFF7C8FC00BF234B1B68184648
:10100000FFF7E8FC0346002BF7D01F4B1B68184680
:10101000FFF78FFC03463B601B4B1B680021184603
:10102000FFF774FC184B1B681846FFF735FD00BF2F
:10103000154B1B681846FFF743FD0346002BF7D1FD
:10104000114B1B683A6811461846FFF75FFC0046D3
:1010500000460D4B1B681846FFF7D0FC00BF0A4B3B
:101060001B681846FFF7B7FD0346002BF7D0FB6857
:101070007B607B6883F3108800BF0020FFF77AFB5A
:1010800000BF1037BD4680BD0000002080B584B091
:1010900000AF0120FFF763FBEFF31083BB60BB6879
:1010A000FB6072B600BF214B1B681846FFF7CEFCF1
:1010B0000346002B2CD01D4B1B681846FFF7B2FCD3
:1010C0001A4B1B681846FFF7ACFD00BF174B1B6897
:1010D0001846FFF7BBFC0346012BF7D000BF134BAC
:1010E0001B681846FFF727FD0346012BF7D00F4B6F
:1010F0001B681846FFF75CFC00BF0C4B1B681846CA
:10110000FFF768FC0346012BF7D02020FFF7D6FD40
:10111000FB687B607B6883F3108800BF0120FFF7CA
:1011200029FB00BF1037BD4680BD00BF0000002076
:1011300080B58CB000AF7860002387F82F30002393
:10114000BB6207F1200300221A605A6007F108030E
:1011500000221A605A609A60DA601A615A61694B1B
:101160001B6818460FF000F80346002B03D001233C
:1011700087F82F3023E0634B1B681846FFF7D9FB35
:101180000346BB625F4B1B6800211846FFF7BEFB9E
:101190005C4B1B681846FFF77FFC00BF594B1B6870
:1011A0001846FFF78DFC0346002BF7D1554B1B6803
:1011B000BA6A11461846FFF7A9FB0046004697F8A1
:1011C0002F30002B40F097807B68DB683B627B68A8
:1011D0001B697B627B685B69BB607B685B6BFB60E8
:1011E0007B689B6B3B617B68DB697B617B681B6A0F
:1011F000BB617B685B6AFB617B685B6C424A9342C4
:1012000005D14FF480014148FFF7E0FA0EE07B681A
:101210005B6C3F4A934205D14FF400013B48FFF716
:10122000D5FA03E000213948FFF7D0FA354B1A68A8
:101230007B689B6819461046FFF701FB314B1B6822
:1012400007F12002114618460FF032F80346002B32
:1012500003D0012387F82F304DE02A4B1A687B68B2
:101260001B6B19461046FFF71CFB264B1B6807F14A
:101270000802114618460FF03DF80346002B03D034
:10128000012387F82F3036E01E4B1A687B6893F8ED
:101290003C3019461046FFF7ACFA1A4B1A687B68C7
:1012A0001B6C19461046FFF7B7FA164B18687B6897
:1012B0009B6A1A460021FFF7D5FA124B18687B6823
:1012C000DB6A1A461349FFF7CDFA0E4B18687B68A4
:1012D000996C7B685B6C1A46FFF7F6FA094B186845
:1012E0007B68596C7B68DB6C1A46FFF730FB7B68C8
:1012F0001B68094A136097F82F3018463037BD46EF
:1013000080BD00BF000000200100008008130246DD
:10131000002000B404FFFF031006002080B584B055
:1013200000AF78600023FB8100F056F87B68DB6833
:101330000C2B48D801A252F823F000BF711300080B
:10134000C7130008C7130008C71300088713000855
:10135000C7130008C7130008C71300089D1300082F
:10136000C7130008C7130008C7130008B313000809
:101370004FF48053FB81174B1B681846FFF7EEFBB9
:101380000346FB8120E04FF48063FB81114B1B6817
:101390001846FFF7F3FB0346FB8115E04FF480731B
:1013A000FB810C4B1B681846FFF7F8FB0346FB81DB
:1013B0000AE04023FB81074B1B681846FFF7FBFB45
:1013C0000346FB8100E000BFFB899BB21846103743
:1013D000BD4680BD0000002080B500AF174B1B68E4
:1013E0001846FFF733FB0346012B15D1134B1B683F
:1013F0001846FFF73EFB0346002B0DD10F4B1B6831
:101400001846FFF785FB0346002B05D10B4B1B68E5
:101410001846FFF769FB01E005F0F8F800BF074B3D
:101420001B681846FFF7EAFB0346002BF7D0034B77
:101430001B681846FFF702FC00BF80BD00000020BB
:1014400080B400AF00231846BD465DF8047B7047AA
:1014500080B400AF00231846BD465DF8047B70479A
:1014600080B586B000AF78600123FB7500233B6137
:10147000994B1B78012B02D10C23FB7527E17B686C
:10148000002B02D10223FB7521E17B681B68002B36
:1014900002D10323FB751AE17B681B6803F0030389
:1014A000002B02D00323FB7511E17B685B68002BE6
:1014B00002D10323FB750AE17B689B68002B06D0F1
:1014C0007B68DB68002B02D10423FB75FFE07B689F
:1014D0009A6813465B0013443B610023FB6028E0DD
:1014E0007B68DA68FB68DB0013445B683A69134485
:1014F0003B617B68DA68FB68DB0013441B78002BD8
:1015000002D10423FB7511E07B68DA68FB68DB001D
:1015100013445B68002B02D10423FB7506E07B6853
:101520005B683A699A4201D90423FB75FB68013371
:10153000FB607B689B68FA689A4202D2FB7D012BB4
:10154000CED0FB7D012B40F0C280644B00221A609C
:10155000634B00221A60634B00221A60624B002228
:101560001A60624B00221A60614B00221A60614BC4
:1015700000221A605F4B00225A605E4B00229A6084
:101580005D4B00221A605C4B00225A605B4B0022CC
:101590001A605A4B00225A60564801F0A1FD554B83
:1015A0001B68002B07D0534B5B68002B03D0514BBB
:1015B0009B68002B02D10523FB7588E07B681B68C4
:1015C000464A13607B685B68454A1360494B1B6859
:1015D000424A12684249096810469847454B596883
:1015E0007B689A6813465B00134418468847034695
:1015F0003F4A13603E4B1B68002B06D17B689B68FB
:10160000002B02D00623FB7561E03B48FEF7F6FF96
:101610003A48FEF7F3FF7B689B68344A1360334B0C
:101620001A6813465B001A442E4B1B6813442D4A5C
:1016300013600023BB6040E07B68DA68BB68DB00B6
:10164000D1182B4B1868BA6813465B0013449B00F3
:1016500003440A781A707B68DA68BB68DB00D1182B
:10166000234B1868BA6813465B0013449B0003447D
:101670004A68C3F801201E4B1968BA6813465B001C
:1016800013449B000B4400225A7100229A710022DD
:10169000DA7100221A72164B1968BA6813465B0099
:1016A00013449B000B44D3F801200F4B1B681344D9
:1016B0000D4A1360BB680133BB600C4B1B68BA68F2
:1016C0009A42B9D3044B01221A700023FB75FB7DAB
:1016D00018461837BD4680BD180600201C0600209D
:1016E0002006002024060020280600202C060020CA
:1016F0003006002034060020400600204806002066
:1017000080B58EB000AFB9607A603B600346FB7372
:10171000012387F8373000233B630023BB627B68DB
:1017200000221A60904B1B78002B03D10D2387F801
:10173000373012E1BB68002B03D10A2387F837301A
:101740000BE1FB7B002B45D1EFF31083FB61FB69C1
:101750003B6272B600BF854B1A68854B1B68D21A74
:10176000844B1B68D31ABA689A4227D2824B5B68B3
:10177000BA68013210469847B862BB6A002B16D08F
:10178000FB7B1A06BB6823F07F431A43BB6A1A60CF
:10179000BB6A1A1D7B681A60754B1A68BB681344D4
:1017A0000133734A1360002387F837300CE0386840
:1017B00000F0F6F90B2387F8373005E0386800F0C1
:1017C000EFF90A2387F837303B6ABB61BB6983F3C3
:1017D0001088C2E0092387F83730EFF310837B616C
:1017E0007B697B6272B600BF0023FB62A5E0634B9E
:1017F0001968FA6A13465B0013449B000B441B787C
:10180000FA7B9A4240F096805C4B1968FA6A13465C
:101810005B0013449B000B44D3F80510574B18682A
:10182000FA6A13465B0013449B000344D3F801306B
:10183000994215D2514B1968FA6A13465B0013445A
:101840009B000B44D3F801104C4B1868FA6A1346FE
:101850005B0013449B000344D3F80530CB1A3B6371
:10186000424B1A68424B1B68D21A424B1B68D21A71
:101870003B6B1344BA689A4256D23F4B5B68BA68D6
:10188000013210469847B862BB6A002B45D0FB7BFB
:101890001A06BB6823F07F431A43BB6A1A60BB6A0F
:1018A0001A1D7B681A60354B1968FA6A13465B008B
:1018B00013449B000B44D3F80520BB68D1182F4B71
:1018C0001868FA6A13465B0013449B0003444A1CE1
:1018D000C3F80520294B1968FA6A13465B001344C4
:1018E0009B000B44D3F80110244B1868FA6A134686
:1018F0005B0013449B000344D3F80530994208D29F
:101900001B4B1A68BB681A443B6BD31A0133184A45
:101910001360002387F837300CE0386800F040F996
:101920000B2387F8373005E0386800F039F90A23CF
:1019300087F83730FB6A0133FB62114B1B68FA6A88
:101940009A4204D297F83730092B3FF450AF7B6AA4
:101950003B613B6983F3108800BF97F83730184626
:101960003837BD4680BD00BF180600202006002085
:10197000240600202806002034060020300600201F
:101980002C06002080B58CB000AF7860012387F86A
:101990002F30002387F8273000233B620023FB61B0
:1019A0000023BB616C4B1B78002B03D10D2387F800
:1019B0002F30CAE07B68002B03D1022387F82F3039
:1019C000C3E07B6803F00303002B03D0072387F8F1
:1019D0002F30BAE0614B1A68614B1B689B001344BF
:1019E0007A689A4204D85D4B1B687A689A4203D29F
:1019F000082387F82F30A8E0EFF310833B613B69A1
:101A00007B6172B600BF7B68043BBB61BB691B682E
:101A10001B0E87F82730BB691B6823F07F43FB61EF
:101A2000FB690133FB614F4B9B68B869984797F896
:101A30002730002B09D14C4B1A68FB69D31A4A4A4C
:101A40001360002387F82F3075E0092387F82F30C3
:101A50000023BB6266E0454B1968BA6A13465B0017
:101A600013449B000B441B7897F827209A4256D1C9
:101A70003E4B1968BA6A13465B0013449B000B4443
:101A8000D3F80510394B1868BA6A13465B00134443
:101A90009B000344D3F80130CB1A3B623B6A002B16
:101AA00024DD3B6AFA699A421AD9304B1968BA6A3E
:101AB00013465B0013449B000B44D3F801102B4BDF
:101AC0001868BA6A13465B0013449B000344D3F8BA
:101AD0000530CA1A244B1B681344234A136005E0DF
:101AE000214B1A68FB69D31A1F4A13601F4B1968F0
:101AF000BA6A13465B0013449B000B44D3F80510ED
:101B00001A4B1868BA6A13465B0013449B000344DF
:101B1000FA698A1AC3F80520002387F82F30BB6AB8
:101B20000133BB62124B1B68BA6A9A4203D297F820
:101B30002F30092B8FD000F045F87B69FB60FB68E4
:101B400083F3108800BF01F0E5FA97F82F301846AC
:101B50003037BD4680BD00BF180600201C0600209F
:101B60002006002034060020240600203006002035
:101B70002C06002080B582B000AF00237B6000F00F
:101B800041F878607B68002B02D07B689B6898479F
:101B90007B68002BF3D100BF00BF0837BD4680BD76
:101BA00080B582B000AF78607B68002B03D0796885
:101BB0000348FEF76CFD00BF0837BD4680BD00BF7F
:101BC0004006002080B582B000AF00237B6009E0B2
:101BD0003B1D19460948FEF793FD7B6819460848E6
:101BE000FEF755FD0548FEF719FD0346002BEFD023
:101BF00000BF00BF0837BD4680BD00BF40060020C3
:101C00004806002080B582B000AF00237B60084802
:101C1000FEF704FD0346002B04D13B1D1946044882
:101C2000FEF76EFD7B6818460837BD4680BD00BFD5
:101C30004806002080B400AF044B1B68C3F30B03BD
:101C40001846BD465DF8047B704700BF004004E0C5
:101C500080B400AF044B1B681B0C9BB21846BD46FA
:101C60005DF8047B704700BF004004E080B400AF23
:101C7000034B1B681846BD465DF8047B704700BFE8
:101C8000000AF90B80B400AF034B1B68DBB21846A7
:101C9000BD465DF8047B7047040AF90B80B400AFC1
:101CA000034B1B681B0A1846BD465DF8047B704752
:101CB000040AF90B80B400AF034B1B681846BD46FD
:101CC0005DF8047B704700BF0007F90B80B400AFDC
:101CD000034B1B681846BD465DF8047B704700BF88
:101CE0000407F90B80B400AF034B1B681846BD46D0
:101CF0005DF8047B704700BF0807F90B80B400AFA4
:101D0000044B1B6803F01F031846BD465DF8047BB7
:101D1000704700BF0005F90B80B584B002AF3448AE
:101D2000FEF76CFC334A0021102009F019FB324AFF
:101D30000021042009F014FBFC2200212F4804F0AC
:101D40006BFC4FF4FC722D49002006F00FFD0020C3
:101D500006F03AFE0023009300230022FF2100201A
:101D600004F08EFD034613F1030F02D0032004F0AC
:101D70007FFE00F0C7FA0346002B31D100F008FBCC
:101D80000EF0B8FB1E4B00221A761D4B4FF6FF7269
:101D9000DA821C4A00214FF4805009F0E1FA002356
:101DA0000093194B00220021184809F08FFB0023F3
:101DB0000093174B00220021164809F087FB05F01D
:101DC00093F905F0E7FA062001F0FBFC0346FB71EE
:101DD000012000F0ABF94EF660210C4809F01AFC26
:101DE000074B002283F84C2000BF0837BD4680BD5A
:101DF00050060020952A0008A9260008D8060020D1
:101E000080060020232B0008F52A00089C060020ED
:101E10000F2B0008B406002080B596B000AF7860A4
:101E2000972387F857307B6801333B653B6D1B7800
:101E3000FF2B00F0F980FF2B00F365813E2B3FD094
:101E40003E2B00F36081052B02D0102B34D05AE1D9
:101E50003B6D0233FB60FB68B3F801309AB2AD4BC7
:101E6000DB8A9A4205D1AB4B0022DA82A94B0022D1
:101E70001A7600F01AFEA84B01221A70A74B012215
:101E80001A70FB68B3F801309AB2A34B5A80FB6812
:101E9000B3F801309AB2A14B5A809F4805F010F96F
:101EA0009E4805F063FA012000F040F94EF66021EB
:101EB0009B4809F0AFFB27E13B6D02333B6123E117
:101EC0003B6D02333B633B6B1B78013B0B2B00F2FA
:101ED000A98001A252F823F0AD1F000825200008B8
:101EE000091F0008252000082520000825200008DB
:101EF000252000082520000825200008351F00089F
:101F000025200008291F000800233B623B6B01339A
:101F1000FB61FB69B3F803309BB21A4640F2E2431F
:101F200002FB03F33B627EE03B6B0133FB6200F09C
:101F3000BCFD78E00023BB623B6B01337B627B6AB4
:101F4000B3F817309BB21A4640F2E24302FB03F3A8
:101F5000BB62704B1B7E012B03D16E4B03221A76A2
:101F600002E06C4B02221A767B6AB3F801309AB217
:101F7000684BDA82684B00221A70684B00221A7094
:101F80007B6AB3F801309AB2634B5A807B6AB3F82C
:101F900001309AB2614B5A805F4805F091F85F4872
:101FA00005F0E4F95E4809F05FFB3CE00023BB610B
:101FB0003B6B01337B617B69B3F80B309BB21A46F4
:101FC00040F2E24302FB03F3BB61524B1B7E012B49
:101FD00003D1504B03221A7602E04E4B02221A76AE
:101FE0007B69B3F801309AB24A4BDA824A4B00223D
:101FF0001A704A4B00221A707B69B3F801309AB20A
:10200000454B5A807B69B3F801309AB2434B5A80F2
:10201000414805F055F8414805F0A8F9404809F055
:1020200023FB00E000BF6FE03B6D0233FB64FB6C01
:102030001B889BB2B3F5006F2AD0B3F5006F60DC4C
:1020400040F20A4293425CDCB3F5806F04DC042B5F
:1020500026D0062B51D054E0A3F20143092B50D8CF
:1020600001A252F823F000BFE1200008AB200008D5
:102070000321000803210008E920000803210008CB
:102080009920000803210008C3200008032100084C
:10209000FB6C0233BB6435E0FB6C02333B6431E024
:1020A0000521204809F0B6FA2CE01F4BFB63194BC1
:1020B000DB8AF96B184601F009FC034687F85730B4
:1020C00020E0012387F84730124BDB8A97F847203E
:1020D0001146184601F065FC034687F8573011E0B9
:1020E000FB6C0233BB630DE00A4BDB8A184601F040
:1020F00048FC034687F8573004E0FB6C02337B63EF
:1021000000E000BF00E000BF012318465837BD467D
:1021100080BD00BF80060020D0060020D40600202D
:102120009C060020B406002007B2010090B595B0CF
:1021300008AF0346FB710023FB620023BB62002350
:102140007B6200233B62FB79062B60D801A252F828
:1021500023F000BF9521000871210008AB21000881
:1021600083210008C12100080F220008C7210008B0
:102170008023FB62A023BB6204237B6200233B62BB
:1021800046E08023FB62A023BB6206237B6203231D
:102190003B623DE04FF4C863FB624FF47A63BB627D
:1021A00005237B6200233B6232E04FF4C863FB628D
:1021B0004FF47A63BB6207237B6203233B6227E011
:1021C00000237B6224E04FF44873FB624FF44873B2
:1021D000BB6200237B624FF4FA733B62474B93F878
:1021E0004C30002B08D0454B002283F84C2028238C
:1021F000FB622823BB620BE0404B012283F84C209A
:102200004FF44873FB624FF44873BB6200E000BFB9
:10221000FB79062B6AD801A252F823F03922000874
:102220003922000839220008392200089B220008C0
:10223000B3220008CB2200083B6AD8B2FB6A99B2ED
:10224000BB6A9AB2002306930023059300230493EC
:1022500000230393002302930023019300230093A0
:10226000002301F0CAFA0346FB77FB7F002B03D162
:102270007B6ADAB2214B1A760A2001F066FB03462C
:10228000FB771F4B3B611023FB73FB7B39691846BF
:1022900001F049FB0346FB772BE001F0A2FA03466D
:1022A000FB77FB7F002B23D17B6ADAB2134B1A76C4
:1022B0001EE0134BBB611023FB75FB7DB96918460B
:1022C00001F031FB0346FB7713E00C4BD88AFB6A25
:1022D00099B2BB6A9AB27B6A9CB23B6A9BB200938A
:1022E000234601F0E4FB0346FB7702E000BF00E079
:1022F00000BF00BF3437BD4690BD00BF8006002040
:102300005C00002080B582B000AF1E4B44221A82D0
:102310001C4B08225A821B4B4FF4A8629A82194B1D
:102320001E22DA75174BFB225A83164B40229A77EE
:10233000144BF8229A83134B2022DA77114B022296
:102340009A75104B6F221A830E4B0F4A1A600D4B71
:1023500041F284525A600B4B0C4A9A60094B4FF47D
:102360008B52DA60074B00221A84064B00225A6215
:10237000044824F029FA0346FB71FB791846083714
:10238000BD4680BDA8350020C40E00204824002092
:10239000F0B597B006AF0023FB840023BB84002375
:1023A0007B8400233B84BA4A0121342001F0DFF909
:1023B000034687F83F3000F0ADF9B863BA6B0621E9
:1023C000002001F0D4F9034687F83F3000F036FAD8
:1023D00078637A6B1021182001F0C9F9034687F859
:1023E0003F3000F0BDFA38633A6B1021082001F04D
:1023F000BEF9034687F83F301921012001F0CCF9DE
:10240000034687F83F3001F0E1FA034687F83F3092
:10241000002387F82F3097F82F3043F0010387F817
:102420002F3097F82F30002B28D007F1260297F88D
:102430002F0007F12203019307F1240300931346B1
:102440000622002101F054FA034687F83F30F88C49
:10245000B98C904B00930623002201F009FB034640
:1024600087F83F30F88C798C07F120030093022322
:10247000002201F0FDFA034687F83F3002220221D4
:10248000002001F05EF9034687F83F30824B0122BD
:102490001A70814B1B78184601F0DDF9034687F866
:1024A0003F307D4B01225A707B4B08221A717A4BC8
:1024B00010225A71784B0022DA70774B774A9A6073
:1024C000754B01229A70BA6B1021754800F030FBF1
:1024D000714B9C78704B5D786F4B1B796E4A5279CB
:1024E0006D49C9786C488068002604960390029173
:1024F00001920093002301222946204601F0BBF9F6
:10250000034687F83F30644B9B78002B04D001F0E2
:102510002CFA034687F83F300023FB811623BB8546
:1025200019233B74ED237B748223BB74AE23FB74AD
:10253000ED233B7521237B754C23BB759D23FB75D8
:1025400041233B7645237B762223BB768E23FB7685
:1025500031233B77FE237B770023BB770023FB7778
:10256000F88CB98D07F1100207F10E0305930023D3
:102570000493102303930023029300230193022367
:1025800000930B46022101F049FA034687F83F30D9
:10259000444BBB62FFF74EFB0346DAB2414B1A7065
:1025A000FFF748FB03461B0ADAB23E4B5A70FFF7AF
:1025B0004FFB0346DAB23B4B9A70FFF749FB0346E9
:1025C0001B0ADAB2374BDA70364B8B221A71FFF7DF
:1025D00095FB0346DAB2334B5A71324B01229A71A2
:1025E000304B0622DA712F4B00221A722D4B00223B
:1025F0005A722C4B00229A722A4B8322DA720023E1
:102600007B7300237B8100237B720023FB800023EC
:10261000BB80BC1D07F1090207F10A0107F10D009B
:102620003B1D0093234601F076F87B89DAB21D4BFF
:102630001A737B891B0A9BB2DAB21A4B5A73194B75
:10264000FF229A73174BFF22DA73164BFF221A747C
:10265000144BFF225A74134BFF229A74114BFF2222
:10266000DA74104BFF221A750E4BFF225A75F88C44
:10267000F989BB8DDAB2BB6A00931346002201F0E0
:10268000F7F9034687F83F3000BF4437BD46F0BD39
:1026900000EB0208540000208006002007B2010071
:1026A0005C000020D035002080B582B000AF002350
:1026B0003B603B4619461648FEF722F83B68083354
:1026C00018460DF047FF0346FB71FB79002B04D041
:1026D0003B681846FFF756F904E03B6819460C487A
:1026E000FDF7B6FF0A48FDF799FF0346002B06D118
:1026F000FB79002B03D00021042008F053FE0021B9
:10270000102008F04FFE00BF0837BD4680BD00BF57
:102710005006002080B58AB000AF00237B61454A97
:1027200007F10C0392E803001860043319803B1D85
:102730000622002118462CF085F93F4B34221A70EE
:102740003D4B12225A703C4B2A229A703A4BE1229E
:10275000DA70394B08221A71374B00225A713B1D2F
:102760000622194634482CF043F90346002B02D0C8
:10277000314B7B6258E0FFF779FA38623B6AB3F17C
:10278000FF3F23D0FFF78AFAF861FFF77BFAB861C1
:102790003B6ADAB2284B1A703B6A1B0ADAB2264B44
:1027A0005A70BB69DAB2244B9A70FB69DAB2224BD9
:1027B000DA70FB691B0ADAB21F4B1A71FB691B0C3A
:1027C000DAB21D4B5A711C4B7B622DE007F11403EA
:1027D0001946002004F0CEF90346002B1AD17B697C
:1027E0001A7A154B1A707B695A7A134B5A707B69A7
:1027F0009A7A114B9A707B69DA7A0F4BDA707B699F
:102800001A7B0D4B1A717B695A7B0B4B5A710A4B21
:102810007B6209E0084B07F10C0292E803001860A4
:1028200004331980044B7B627B6A18462837BD4607
:1028300080BD00BFD8EA02085806002090B591B0CC
:1028400000AF454B07F114040FCB84E80F00424B57
:102850003C1D0FCB84E80F0007F124031022002158
:1028600018462CF0EFF83D4B1C4607F114030FCB34
:1028700084E80F0007F124031022194637482CF092
:10288000B7F80346002B02D0344BFB635EE0FFF742
:1028900011FAB863FFF71AFA7863BB6BB3F1FF3F25
:1028A0004CD07B6BB3F1FF3F48D0BB6BDAB22B4B04
:1028B0001A722A4B1A7A294B1A70BB6B1B0ADAB2AE
:1028C000264B5A72254B5A7A244B5A70BB6B1B0C01
:1028D000DAB2224B9A72214B9A7A204B9A70BB6BD8
:1028E0001B0EDAB21D4BDA721C4BDA7A1B4BDA7014
:1028F0007B6BDAB2194B1A73184B1A7B174B1A7190
:102900007B6B1B0ADAB2154B5A73144B5A7B134B71
:102910005A717B6B1B0CDAB2104B9A730F4B9A7B7C
:102920000E4B9A717B6B1B0EDAB20C4BDA730B4BAE
:10293000DA7B0A4BDA71094BFB6307E0074B1C4655
:102940003B1D0FCB84E80F00044BFB63FB6B184669
:102950004437BD4690BD00BFE0EA02086006002093
:1029600090B591B000AF494B07F114040FCB84E848
:102970000F00464B3C1D0FCB84E80F0007F12403EA
:102980001022002118462CF05DF8414B1C4607F13F
:1029900014030FCB84E80F0007F12403102219461B
:1029A0003B482CF025F80346002B02D0384BFB6344
:1029B00066E0FFF78BF9B863FFF794F97863BB6BB8
:1029C000B3F1FF3F54D07B6BB3F1FF3F50D07B6B33
:1029D000DAB22F4B1A722E4B1A7A2D4B1A707B6B70
:1029E0001B0ADAB22A4B5A72294B5A7A284B5A7070
:1029F0007B6B1B0CDAB2264B9A72254B9A7A244BCE
:102A00009A707B6B1B0EDAB2214BDA72204BDA7AAA
:102A10001F4BDA70BB6BDBB2DB43DAB21C4B1A73B1
:102A20001B4B1A7B1A4B1A71BB6B1B0ADBB2DB43C5
:102A3000DAB2174B5A73164B5A7B154B5A71BB6B54
:102A40001B0CDBB2DB43DAB2114B9A73104B9A7B4F
:102A50000F4B9A71BB6B1B0EDBB2DB43DAB20C4B34
:102A6000DA730B4BDA7B0A4BDA71094BFB6307E035
:102A7000074B1C463B1D0FCB84E80F00044BFB6348
:102A8000FB6B18464437BD4690BD00BFF0EA020814
:102A90007006002080B500AF23F0F8FE0346002B3F
:102AA00001D101F005FF00BF80BD80B500AF01205E
:102AB00008F0A4FC00BF80BD80B582B000AF0F233A
:102AC0003B71387912F0B1F900BF0837BD4680BDBF
:102AD00080B582B000AF0346FB71FB79002B03D0B9
:102AE0000349002006F0B4F800BF0837BD4680BD9A
:102AF000D12A000880B582B000AF786000214FF481
:102B0000805008F04FFC00BF0837BD4680BD80B440
:102B100083B000AF786000BF0C37BD465DF8047B22
:102B2000704780B500AF0420FFF700FB00BF80BDF9
:102B300080B487B000AFF8600B467A60FB72002368
:102B4000FB82D8E0FB8AFA6813441B787B75FB8A0A
:102B50000133FA6813441B783B753B7DFF2B5CD037
:102B6000FF2B00F3BA800A2B00F0B9800A2B00F388
:102B7000B480012B00F0B580092B00D0ADE0FA8ABB
:102B80007B7D13441A46FB6813441B78582B40F096
:102B9000AA80FA8A7B7D1344013BFA6813441B78B0
:102BA000582B40F0A0807B681B781B09FB747B6866
:102BB0001B7803F00F03BB74FB7C092B0AD9FA8A3C
:102BC0007B7D1344013BFA681344FA7C3732D2B25E
:102BD0001A7009E0FA8A7B7D1344013BFA681344BA
:102BE000FA7C3032D2B21A70BB7C092B0AD9FA8A2D
:102BF0007B7D13441A46FB681344BA7C3732D2B249
:102C00001A7070E0FA8A7B7D13441A46FB681344FD
:102C1000BA7C3032D2B21A7065E0FB8A0233FA68AD
:102C2000134430221A70FB8A0333FA6813440022DB
:102C30001A70FB8A0433FA68134402221A70FB8A62
:102C40000533FA6813448B221A70FB8A0633FA683C
:102C5000134483221A70FB8A0733FA681344002254
:102C60001A70FB8A0833FA68134400221A70FB8A30
:102C70000933FA68134400221A707B685A1DFB8AD4
:102C80000A33F9680B4412781A707B681A1DFB8AA4
:102C90000B33F9680B4412781A707B68DA1CFB8AD4
:102CA0000C33F9680B4412781A707B689A1CFB8A03
:102CB0000D33F9680B4412781A707B685A1CFB8A32
:102CC0000E33F9680B4412781A70FB8A0F33FA68D6
:102CD00013447A6812781A7006E000BF04E000BF5F
:102CE00002E000BF00E000BF7B7D9AB2FB8A134484
:102CF0009BB20133FB82FB7A9BB2FA8A9A42FFF4C1
:102D000021AF00BF00BF1C37BD465DF8047B704794
:102D100080B586B000AFF8607A601A460B467B81BA
:102D200013463B819123FB7500233B617A893B89E4
:102D30001344BB82FB681B78042B38D1214B224AF9
:102D40009A60BB8A0B33990807F110021D4B0220D1
:102D5000FEF7D6FC0346002B02D09123FB752CE036
:102D60003B69002B29D03B6904221A72FB685A1C6C
:102D70003B6912785A72FB689A1C3B6912789A7206
:102D80003B6903F10B00FB68D91CFB6802331B781D
:102D90001A4620F0CFFF3B6919460C48FDF777FC37
:102DA0000021042008F0FEFA0023FB7505E0FB6813
:102DB0001B78022B01D10023FB75FB7D18461837C9
:102DC000BD4680BDB80E0020B92A0008500600207C
:102DD00080B582B000AF786039600449002005F00A
:102DE00037FF00BF0837BD4680BD00BFD12A0008AD
:102DF00080B483B000AF0346FB7100BF0C37BD4603
:102E00005DF8047B704780B483B000AF0346FB716C
:102E100000BF0C37BD465DF8047B704780B400AF3F
:102E2000054B1B68044A23F48073136000BFBD4642
:102E30005DF8047B704700BF000C024680B400AF11
:102E4000064BD3F8F430054A43F40003C2F8F430DB
:102E500000BFBD465DF8047B704700BF000C024612
:102E600080B485B000AF78600A4BD3F89820094948
:102E70007B681343C1F89830064BD3F898207B68E1
:102E80001340FB60FB6800BF1437BD465DF8047B50
:102E9000704700BF000C024680B400AF034B012214
:102EA0009A6300BFBD465DF8047B70470008024688
:102EB00080B500AF00F052F800BF80BD80B582B091
:102EC00000AF78600020FFF793FF00F061F800F09A
:102ED00073F80DF053FC00F0ADF800F079F800F055
:102EE00085F800F09BF8174B1B884FF6FF72934252
:102EF00011D0144B1B88002B0BD0124B1B889B024C
:102F000023F4FF5323F01F0303F1FF6303F5F823BA
:102F100002E00D4B00E00C4B184605F0F5F90346B6
:102F2000002B01D003F072FBFEF7F6FE0121022018
:102F300001F04AF90020FFF766FF00231846083722
:102F4000BD4680BDA007F90B00C00F0880B500AFDB
:102F50004FF0FF3008F082F800BF80BD80B582B02E
:102F600000AF00237B603B1D1946002003F002FEEA
:102F70000346002B03D00C200BF0C0FB04E07B6861
:102F80009B7B18460BF0BAFB00BF0837BD4680BDDF
:102F900080B500AFFFF752FF08F088FA04480AF046
:102FA000A1F9FDF7A1FE034B01221A7000BF80BDFD
:102FB00040000030E635002080B500AF04F0A2FEEE
:102FC00007F0D0FA0121012007F00EFB00BF80BD01
:102FD00080B500AF02F05AFA034A0021012008F040
:102FE000BFF900BF80BD00BF7D55000880B500AFB0
:102FF000094A00214FF4807008F0B2F90121012044
:1030000001F0E2F80021022001F0DEF800210020AA
:1030100001F0DAF800BF80BDF144000880B500AFD0
:10302000034A0021402008F09BF900BF80BD00BF8B
:10303000B13E000880B500AF0748FEF711FA03461D
:10304000002B01D003F0E2FA044A0021202008F00E
:1030500087F900BF80BD00BF7C000020751B000801
:1030600080B500AF08F0C8FD05F030F907F018FB97
:1030700008F0D2FD00BF80BD80B500AFFFF70CFFA8
:10308000074B1B78002B06D007F0DEFA0346022B15
:1030900001D100F084F8FFF7D1FE00BF80BD00BF72
:1030A000E635002080B500AF0120FFF7D9FE02F021
:1030B00057FE0021042007F097FA00BF80BD80B5BD
:1030C00000AF0021402008F06DF900BF80BD80B541
:1030D00000AF0021012008F065F900BF80BD0000AD
:1030E00080B483B000AF78607B68074A1A607B6861
:1030F000064A5A607B68064A9A6000BF0C37BD4694
:103100005DF8047B704700BF25310008433100089B
:103110005F31000880B500AF0021202008F042F99F
:1031200000BF80BD80B582B000AF786039603B6879
:103130009B001946786807F0D5FE00BF0837BD46EA
:1031400080BD80B582B000AF78607B689B00184678
:1031500007F0FCFD034618460837BD4680BD80B524
:1031600082B000AF7860786807F080FE00BF083753
:10317000BD4680BD80B500AF00214FF4807008F0DF
:1031800011F900BF80BD80B500AFFFF747FE00BF5B
:1031900080BD80B500AFFFF741FE00BF80BD80B5A8
:1031A00082B000AF00233B6002F096FD0346002B87
:1031B0001DD13B46184611F0D0FD78603B68B3F155
:1031C000FF3F04D14FF0FF3002F092FD0FE03B686B
:1031D00040F2DC52934206D93B68A3F2DC53184616
:1031E00002F086FD03E00121042007F0FDF900BF95
:1031F0000837BD4680BD80B485B000AF78607B687D
:103200001B68DA0F1346DB0013441A01D31AFB6064
:103210007B681B685A007B6804331B68DB0F1A430A
:103220007B681A607B6804331B6859007B6808332D
:103230001B68DA0F7B6804330A431A607B68083323
:103240001B6859007B680C331B68DA0F7B680833F6
:103250000A431A607B680C331B6859007B680C3387
:10326000FA684A401A6000BF1437BD465DF8047B17
:10327000704780B582B000AF78603960396878688F
:1032800001F016FC00BF0837BD4680BD80B584B094
:1032900000AF78600D4BFB6001F068FB796801209E
:1032A00001F08EFBFB680022DA60FB68DA68FB68DD
:1032B0009A60FB689A68FB685A60FB685A68FB680A
:1032C0001A6000BF1037BD4680BD00BFA04500207A
:1032D00080B598B000AFF860B9607A607F4B3B650D
:1032E0000023BB65FB687B657B68002B44D0BB6813
:1032F00003F00F03BB65BB68002B04D0BB6D002B34
:1033000001D11023BB65BA68BB6DD31ABB6033E033
:1033100007F120031022796D18462BF0C4FB3B6A9D
:103320003B643B6C1ABA3B6D1B6853403B627B6A43
:103330007B647B6C1ABA3B6D5B6853407B62BB6AF3
:10334000BB64BB6C1ABA3B6D9B685340BB62FB6AA3
:10335000FB64FB6C1ABA3B6DDB685340FB623A6D51
:1033600007F1200311461846FFF783FF7B6D1033EA
:103370007B65BB68103BBB60BB68002BC8D17B681A
:10338000002B00F0A6800023FB62FB6ABB62BB6AD5
:103390007B627B6A3B620023FB651BE0FB6D9A0846
:1033A000930060333B4453F8401C786DFB6D03443D
:1033B0001B781846FB6DDB4303F00303DB0000FAC8
:1033C00003F31943930060333B4443F8401CFB6D07
:1033D0000133FB65FA6DBB6D9A42DFD30023FB61BD
:1033E000FB69BB61BB697B617B693B6107F11002D3
:1033F00007F1100311461846FFF73BFF07F11003D2
:103400001846FFF7F8FEBB6D0F2B19D8BB6D9A0855
:10341000930060333B4453F8401CBB6DDB4303F027
:103420000303DB00802000FA03F3194393006033A9
:103430003B4443F8401C07F110031846FFF7DBFE3E
:103440000023FB651AE0FB6D9B0060333B4453F89F
:10345000402C3B6DF96D53F82110FB6D9B006033E0
:103460003B4453F8503C4B405A40FB6D9B0060334B
:103470003B4443F8402CFB6D0133FB65FB6D032B94
:10348000E1D93A6D07F1200311461846FFF7F1FE26
:1034900001F050FB3B6D1B683B633B6B1BBA3B620F
:1034A0003B6D5B687B637B6B1BBA7B623B6D9B6890
:1034B000BB63BB6B1BBABB623B6DDB68FB63FB6B27
:1034C0001BBAFB6207F120031022194678682BF023
:1034D000EAFA00BF6037BD4680BD00BFA0450020AE
:1034E00080B500AF01F026FB00BF80BD80B58AB07B
:1034F00000AFF860B9607A603B6001F037FA3B6872
:10350000002B01D0032300E00223F968184601F0E4
:1035100057FA07F110031022B96818462BF0C3FAC6
:103520003B697B62FB693B617B6AFB617B697B6218
:10353000BB697B617B6ABB6107F1100207F1100375
:103540001146184601F0B4FA01F0F4FA3B693B6207
:10355000FB693B613B6AFB617B693B62BB697B61E9
:103560003B6ABB6107F110031022194678682BF003
:103570009AFA00BF2837BD4680BD000080B500AF75
:103580000448FDF73BF8044A0021802007F0E8FEDC
:1035900000BF80BDB04500208136000880B586B0F0
:1035A00002AF03463960FB80FB88184600F048F8FC
:1035B0000023FB6007F10C02002309210120FEF724
:1035C0009FF80346002B01D0642331E0FB68FA88A2
:1035D0001A81FB6819461848FDF759F8FB6803F192
:1035E0000C00FB680093154B0022396807F06EFF52
:1035F0000346002B09D0FB681846FDF767F8FB6807
:103600001846FEF7BFF9912312E0FB680C33184609
:1036100007F092FF0346002B09D0FB681846FDF720
:1036200055F8FB681846FEF7ADF9912300E000233A
:1036300018461037BD4680BDB0450020B1360008A1
:1036400080B584B000AF0346FB80FB8819460B4869
:1036500000F040F8F860FB68002B0AD0FB680C33E0
:10366000184608F001F8F868FDF730F8F868FEF73A
:1036700089F900BF1037BD4680BD00BFB0450020AE
:1036800080B500AF094B1B681B89184623F00AF967
:1036900001F00EF9054B1B681846FDF717F8034BB0
:1036A0001B681846FEF76EF900BF80BDB8450020C4
:1036B00080B582B000AF7860054A7B681360002156
:1036C000802007F06FFE00BF0837BD4680BD00BFF9
:1036D000B845002080B584B000AF78600B467B8091
:1036E0007B681B68FB600DE0FB681B897A889A4247
:1036F00001D1FB680BE0FB6807F10C02114618468C
:10370000FDF718F8FB687A689A42EDD10023184655
:103710001037BD4680BD80B588B002AFF860B96093
:103720007A603B603B6A00933B687A68B968F868E6
:1037300023F09DFC0346FB75FB7D18461837BD46FC
:1037400080BD80B584B000AF0346FB710B46BB71F2
:1037500013467B717A79B979FB79184623F0A4FC7A
:103760000346FB73FB7B18461037BD4680BD80B512
:1037700084B000AF03463A60FB710B46BB71B97968
:10378000FB793A68184623F0BFFC0346FB73FB7BCA
:1037900018461037BD4680BD80B584B000AF0346E3
:1037A0000A46FB711346BB71BA79FB79114618467C
:1037B00023F0BAFC0346FB73FB7B18461037BD466B
:1037C00080BD80B584B000AF0346FB80FB881846FF
:1037D00023F0F2FC0346FB73FB7B18461037BD4613
:1037E00080BD80B582B000AF24F098FB0346FB712A
:1037F000FB7918460837BD4680BD90B58DB008AF3F
:103800000446084611461A462346FB710346BB8010
:103810000B467B801346BB71BC797A88B988F879EE
:103820003B8F0693BB8E05933B6B049397F82C302C
:103830000393BB6A029397F82430019397F82030E2
:103840000093234624F070FA0346FB73FB7B184673
:103850001437BD4690BD80B584B000AF0346FB7100
:10386000FB79184628F08EFF0346FB73FB7B184656
:103870001037BD4680BD90B58BB006AF04460846F4
:1038800011461A462346FB710346BB710B467B71FA
:1038900013463B713C797A79B979F87997F83030E9
:1038A0000493FB6A039397F82830029397F8243027
:1038B000019397F820300093234628F06DFF0346CC
:1038C000FB73FB7B18461437BD4690BD80B584B0B2
:1038D00000AF03463960FB80FB883968184629F041
:1038E00001FF0346FB73FB7B18461037BD4680BDC6
:1038F00080B586B002AF3B600346FB710B46BB71DF
:1039000013467B717A79B979F879FB690193BB69C0
:1039100000933B6824F07CF80346FB73FB7B18465E
:103920001037BD4680BD80B584B000AF0346396016
:10393000FB71FB793968184624F028FA0346FB73BB
:10394000FB7B18461037BD4680BD80B584B000AF04
:103950000346FB71FB79184624F0A0FA0346FB737B
:10396000FB7B18461037BD4680BD80B582B000AFE6
:1039700024F040FB0346FB71FB7918460837BD462F
:1039800080BD80B584B000AF0346FB80FB8818463D
:1039900029F0C6FE0346FB73FB7B18461037BD4675
:1039A00080BD80B584B000AF03460A46FB80134655
:1039B0007B717A79FB88114618462AF04FFE034640
:1039C000FB73FB7B18461037BD4680BD80B582B0C7
:1039D00000AF25F03BF80346FB71FB79184608372A
:1039E000BD4680BD80B586B002AF396011461A462B
:1039F0000346FB710B46BB7113467B717979BA792B
:103A0000F879BB6900930B46396825F07DF80346C9
:103A1000FB73FB7B18461037BD4680BD80B58CB06C
:103A200006AFBA601A460346FB810B467B7313460A
:103A3000FB80FA88797BF8897B6B059397F83030A7
:103A4000049397F82C30039397F82830029397F853
:103A50002430019397F8203000931346BA6825F07C
:103A600025FC0346FB75FB7D18461837BD4680BD17
:103A700090B587B002AF0446084611461A46234661
:103A8000FB800346BB800B46FB701346BB70BC78C3
:103A9000FA78B988F8883B6A0093234625F058FAEB
:103AA0000346FB73FB7B18461437BD4690BD90B5AB
:103AB00087B002AF0446084611461A462346FB80EB
:103AC0000346BB800B467B8013463B803C887A884C
:103AD000B988F8883B8C0093234627F008FE0346FC
:103AE000FB73FB7B18461437BD4690BD80B500AF15
:103AF000FFF7F6FC00F0E0F8FFF740FD00BF80BDE7
:103B000080B586B002AFB9607B600346FB73134695
:103B1000BB81BA89F87B3B8B00937B68B96802F064
:103B2000A9FD034618461037BD4680BD80B584B058
:103B300002AF3B600346FB710B46BB711346BB8073
:103B4000BA88B979F8793B8A00933B6802F098FE0D
:103B5000034618460837BD4680BD80B582B000AF29
:103B600003463960FB801346BB80BA88FB883968FE
:103B7000184602F03BFF034618460837BD4680BD95
:103B800080B582B000AF0346FB71FB79184602F0A6
:103B90006FFF00BF0837BD4680BD80B582B000AF63
:103BA00003463960FB71FB793968184601F09AFCCD
:103BB00000BF0837BD4680BD80B584B000AFF86057
:103BC000B9607A6001237A68B968F868FFF78EFCFB
:103BD00000BF1037BD4680BD80B582B000AF7860B1
:103BE0007868FFF753FB00BF0837BD4680BD80B53E
:103BF00084B000AFF860B9607A607A68B968F86834
:103C0000FFF766FB00BF1037BD4680BD80B582B0B0
:103C100000AF7860786800F05BF803461846083714
:103C2000BD4680BD80B582B000AF7860786800F096
:103C30006DF800BF0837BD4680BD80B582B000AFCB
:103C4000786039603968786800F070F80346184683
:103C50000837BD4680BD80B582B000AF7860786817
:103C600000F094F8034618460837BD4680BD80B57D
:103C700000AF23F0A1FE00F01BFE00BF80BD80B5A9
:103C800082B000AF03463960FB80FB883968184674
:103C9000FFF784FC034618460837BD4680BD80B553
:103CA00082B000AF0346FB80FB881846FFF7C8FCD4
:103CB00000BF0837BD4680BD80B500AF01F0C8F831
:103CC000024B00221A7000BF80BD00BFBC4500201F
:103CD00080B582B000AF786000F0EEFF0346002BA5
:103CE00002D16FF001030AE000220021786801F0A0
:103CF00051F9054B01221A70FFF7E1F9002318462C
:103D00000837BD4680BD00BFBC45002080B582B0ED
:103D100000AF78604022044978682AF0C4FE00BFF2
:103D20000837BD4680BD00BFC045002080B582B0C9
:103D300000AF7860396000F0BFFF0346002B02D16E
:103D40006FF0010316E0386801F0AAF820227968C4
:103D50000A482AF0A8FE0A4B4022396818462AF081
:103D6000A2FE084B02221A70074B01221A70FFF7BD
:103D7000A6F9002318460837BD4680BDC04500207F
:103D8000E0450020BC450020BD45002080B582B044
:103D900000AF7860084B1B78002B02D06FF0020355
:103DA00005E02022054978682AF07DFE00231846A8
:103DB0000837BD4680BD00BFBD450020C04500207E
:103DC00080B500AF354B1B78002B01D1002362E09A
:103DD00000F0FEFF0346002B02D16FF001035AE012
:103DE0002E4B1B78013B042B50D801A252F823F034
:103DF000053E0008113E00082F3E0008513E000815
:103E0000733E0008264B1946264801F01DF93DE097
:103E100001F064F80346002B33D0234B184601F021
:103E20003FF81E4B03221A706FF0010333E001F0DC
:103E300055F80346002B26D0194B1B4A114618464D
:103E400001F05CF8154B04221A706FF0010322E0B8
:103E500001F090F80346002B17D0114B124A194677
:103E6000104801F097F80D4B05221A706FF001030E
:103E700011E000210B4801F0E7F80C4B00221A700A
:103E800004E000BF02E000BF00E000BFFFF7EFFE6C
:103E9000FFF712FF0023184680BD00BFBC4500207D
:103EA000E0450020C045002000460020BD45002020
:103EB00080B500AFFFF784FF0346002B01D0FFF76A
:103EC000FEF800BF80BD000080B582B000AF0823BF
:103ED000FB7100F069F90346FB71FB79002B0AD1F5
:103EE000074B00221A60074B00225A77054B064AFF
:103EF0001A6000F061F9FB7918460837BD4680BDAD
:103F0000204600208C0000200030024080B584B0A4
:103F100000AF78600823FB737B68002B02D1062377
:103F2000FB731FE07B681B7A012B02D10323FB7319
:103F300018E000F039F90346FB73FB7B002B11D12D
:103F40000B4B1B6801330A4A1360094B1A687B68E4
:103F50001A607B689A697B685A607B6801221A72D2
:103F600000F02AF9FB7B18461037BD4680BD00BF24
:103F70002446002080B586B000AFF860B9607A6052
:103F80003B600823FB750023BB75FB68002B05D045
:103F9000BB68002B02D03B68002B02D10623FB75C7
:103FA00039E0FB681B7A002B02D10423FB7532E059
:103FB000FB681A681A4B1B689A4203D8FB681B6897
:103FC000002B02D10523FB7525E000F0EDF8034638
:103FD000FB75FB7D002B1ED1FB681A68114B1B681B
:103FE0009A4204D0F86800F08BF80346BB75BB7D9D
:103FF000002B0CD17A68B9680B4808F0AEF802467D
:104000003B681A603B681A68FB685A6001E0072346
:10401000FB7500F0D1F8FB7D18461837BD4680BD12
:1040200024460020204600208C00002080B586B069
:1040300000AFF860B9607A603B600823FB75FB68ED
:10404000002B05D0BB68002B02D03B68002B02D1AF
:104050000623FB7549E0FB681B7A002B02D1042381
:10406000FB7542E0FB681A68224B1B689A4203D832
:10407000FB681B68002B02D10523FB7535E000F0BF
:1040800093F80346FB75FB7D002B2ED1FB681A6865
:10409000194B1B689A420CD17A68B968174808F026
:1040A00018F802463B681A603B681A68FB685A6059
:1040B00019E0F86800F024F80346002B11D10F4BEB
:1040C0001B68FA6852681A617A68B9680B4808F088
:1040D00044F802463B681A603B681A68FB685A60FD
:1040E00001E00723FB7500F067F8FB7D18461837E1
:1040F000BD4680BD24460020204600208C000020C4
:1041000080B584B000AF78600023FB73234B5B7FE6
:10411000DBB2002B04D0214807F0AEFF0346FB734F
:10412000FB7B002B34D17B685B691C4AD3607B68C6
:104130005A7B1A4B5A717B681A7B184B1A717B6831
:104140001B69164A93607B689B69144A13617B68FC
:10415000DB69124A53617B681B6A104A93617B6872
:104160005B6A0E4A13620D4807F022FF0346FB7399
:10417000FB7B002B04D17B681B68094A136007E0B6
:104180001822002107482AF05DFC044B00221A6225
:10419000FB7B18461037BD4680BD00BF8C00002059
:1041A000204600209000002080B400AF0023184675
:1041B000BD465DF8047B704780B400AF002318460D
:1041C000BD465DF8047B704780B487B000AF78606F
:1041D0000B46FB70EFF310833B613B697B6172B66A
:1041E00000BFFB78002B0AD0012B13D101227B6882
:1041F0009A400F4B1B6813430D4A13600BE00122DA
:104200007B6802FA03F3DA43094B1B681340084A40
:10421000136000E000BF7B69FB60FB6883F31088DC
:1042200000BF00BF1C37BD465DF8047B704700BF70
:104230002846002080B584B000AF78603960012343
:10424000FB73124B1B6803F00203002B07D00F4BCC
:104250001B6803F00403002B01D0FB7B11E000BFBF
:104260000A4B1B6803F00103002BF9D13A68796807
:10427000012008F0C3FA0346002B01D10023FB7391
:10428000FB7B18461037BD4680BD00BF2846002086
:1042900080B588B000AF78600123FB772B4B1B887B
:1042A0004FF6FF7293420AD0284B1B88002B04D094
:1042B000264B1B889B025B0B02E0802300E08023DF
:1042C0007A68934201D2FB7F3CE0214B1B6803F0EC
:1042D0000203002B07D01E4B1B6803F00403002BC6
:1042E00001D0FB7F2EE000BF194B1B6803F00103D8
:1042F000002BF9D10223FB60144B1B884FF6FF7291
:1043000093420BD0114B1B88002B05D00F4B1B8801
:104310009B025B0B013B02E07F2300E07F237A6876
:1043200013403B6101237B6107F1180207F10C0385
:104330001146184608F0A8FB0346002B01D10023C4
:10434000FB77FB7F18462037BD4680BDA007F90BE1
:104350002846002080B586B000AFF860B9607A606A
:104360003B60BB68B3F1006F31D32F4B1B884FF616
:10437000FF7293420CD02C4B1B88002B05D02A4B8C
:104380001B889B0203F1006304E04FF0016301E02E
:104390004FF00163BA68934219D3BA687B681A4434
:1043A000214B1B884FF6FF718B420CD01E4B1B8894
:1043B000002B05D01C4B1B889B0203F1006304E01B
:1043C0004FF0016301E04FF00163934201D20223F9
:1043D00025E0FB6803F00303002B04D1BB6803F066
:1043E0000F03002B01D0022319E0386800F0B8F960
:1043F0000346FB75FB7D002B10D10C4AFB68136054
:104400000A4ABB685360094A7B689360084B0022E4
:104410001A70084B00221A70FEF7ACFEFB7D18469E
:104420001837BD4680BD00BFA007F90B44460020E9
:10443000404600205846002080B586B000AFF860A6
:10444000B9607A60264B1B884FF6FF7293420AD000
:10445000234B1B88002B04D0214B1B889B025B0B3A
:1044600002E0802300E08023FA68934216D3FA68C2
:10447000BB681A441A4B1B884FF6FF718B420AD057
:10448000174B1B88002B04D0154B1B889B025B0B22
:1044900002E0802300E08023934201D202231BE04C
:1044A000BB68002B01D1022316E0786800F058F9B0
:1044B0000346FB75FB7D002B0DD10A4AFB68D360D8
:1044C000084ABB681361084B01221A70074B00228F
:1044D0001A70FEF74FFEFB7D18461837BD4680BDAB
:1044E000A007F90B44460020404600205846002013
:1044F00080B586B000AF0023FB750023BB75002399
:104500007B608D4B1B78002B02D0012B6BD0CBE056
:104510008A4B1B78002B38D1894B40F24C421A60F1
:10452000854B01221A7008F0B3F91DE0854B5B68DA
:104530001A46844B1B6819461046FFF77BFE03465C
:10454000BB75BB7D002B0FD17E4B5B6810337D4A62
:1045500053607C4B1B6810337A4A1360794B9B681D
:10456000043B1A46774B9A60764B9B68002B02DD22
:10457000BB7D002BDAD008F0ADF9724B9B68002BA5
:1045800000F391800123FB758DE06D4B41F2040235
:104590001A60694B01221A7008F07AF913E0694B2E
:1045A000DB681846FFF774FE0346BB75BB7D002B26
:1045B00009D1644B1B69013B624A1361614BDB68A3
:1045C0000133604AD3605F4B1B69002B02D0BB7D77
:1045D000002BE4D008F07EF95A4B1B69002B62D106
:1045E0000123FB755FE0584B1B7883F00103DBB2BE
:1045F000002B06D0524B1B685449184602F018FB9A
:1046000052E04E4B1B78002B2BD108F041F90FE004
:104610004C4B5B6810334B4A53604A4B1B6810335A
:10462000484A1360474B9B68043B1A46454B9A60C7
:10463000444B9B68002B0BDD424B5B681A46414B99
:104640001B6819461046FFF7F5FD0346002BDFD027
:104650003C4B9B68002B01DC0123FB7508F03AF909
:104660001BE008F015F9374BDB681846FFF710FE22
:104670000346002B09D1334B1B69013B314A1361BF
:10468000304BDB6801332F4AD3602E4B1B69002B64
:1046900001D10123FB7508F01DF902F05BFB2A4BE9
:1046A00000221A7000E000BFFB7D002B39D0EFF331
:1046B0001083BB60BB683B6172B600BF244B002215
:1046C0001A70244B00221A703B69FB60FB6883F36D
:1046D000108800BF204B1B68002B0DD01E4B1B68A1
:1046E0000020984708E03B1D19461C48FCF708F8D5
:1046F0007B689B68012098471848FBF78FFF0346AB
:10470000002B14D1124B1B7883F00103DBB2002B7A
:104710000DD0104B1B7883F00103DBB2002BE2D1EC
:1047200005E0074B1B680949184602F081FA00BFF3
:104730001837BD4680BD00BF5846002040460020C7
:104740005C460020444600202E4600208D4800088C
:104750002C4600202D4600203C46002030460020FC
:1047600080B58CB000AF7860002387F82F3002232B
:1047700087F82E30EFF31083FB61FB69BB6272B6E2
:1047800000BF3D4B1B7883F00103DBB2002B05D04B
:104790003A48FBF733FF384B01221A70384B1B782D
:1047A00083F00103DBB2002B14D0364B1B7883F06F
:1047B0000103DBB2002B09D0314B01221A70314BBF
:1047C00001221A70012387F82F3006E0002387F8B2
:1047D0002F3002E0002387F82F30BB6ABB61BB6932
:1047E00083F3108800BF97F82F3083F00103DBB20A
:1047F000002B0FD07B68002B08D07B689B68002BB8
:1048000004D07B6819461D48FBF741FF012387F858
:104810002E302BE07B68002B15D07B689B68002B2B
:1048200011D0EFF310833B613B697B6272B600BF2E
:104830007B689B68144A13607B6A7B617B6983F3A6
:10484000108800BF0FE0EFF31083BB60BB683B62D2
:1048500072B600BF0C4B00221A603B6AFB60FB681B
:1048600083F3108800BF002387F82E3097F82E308E
:1048700018463037BD4680BD3846002030460020FF
:104880002C4600202D4600203C46002080B500AF7D
:10489000034B01221A70FEF76DFC00BF80BD00BF04
:1048A0002E46002080B500AF00F002F800BF80BDAA
:1048B00080B500AF074B1B78002B05D0054B0022BD
:1048C0001A70032021F0B1F90021102006F06AFDD2
:1048D00000BF80BD1E47002080B485B000AF786067
:1048E0000A4BD3F88C2009497B681343C1F88C30FC
:1048F000064BD3F88C207B681340FB60FB6800BF3D
:104900001437BD465DF8047B704700BF000C0246BB
:1049100080B483B000AF7860084BD3F88C207B68FC
:1049200013407A689A4201D1012300E0002318461F
:104930000C37BD465DF8047B704700BF000C024693
:1049400080B483B000AF7860074BD3F88C207B68CD
:10495000DB4305491340C1F88C3000BF0C37BD461E
:104960005DF8047B704700BF000C024680B584B040
:1049700000AF124BFB604FF48030FFF7C9FF0346D6
:10498000002B01D0002314E0FB6801221A70EFF322
:1049900010833B603B68BB6072B600BF4FF4803051
:1049A000FFF79AFFBB687B607B6883F3108800BFCA
:1049B000012318461037BD4680BD00BF6046002069
:1049C00080B58AB000AF7860396007F10803102223
:1049D000396818462AF067F8344B00221A607B6861
:1049E00003F00203002B0CD0304ABB6813612F4A3E
:1049F000FB6853612D4A3B6993612C4A7B69D36103
:104A000017E0BB68294ABB61BB691BBAD361FB686D
:104A1000264AFB61FB691BBA93613B69234A3B62EF
:104A20003B6A1BBA53617B69204A7B627B6A1BBA73
:104A300013617B6803F00103002B1AD11B4B082282
:104A40001A601A4B1B68194A43F00103136000BF38
:104A5000164B5B6803F00103002BF9D0134BD3F81E
:104A60000833124A43F00103C2F808330F4B1022F7
:104A70001A607B6803F00403002B05D00B4B1B6806
:104A80000A4A43F00403136000BF084B5B6803F05D
:104A90008003002BF9D0054B1B68044A43F0010347
:104AA000136000BF2837BD4680BD00BF00000C4228
:104AB00080B483B000AF786039601D4A7B681B68A2
:104AC00093607B6804331A4A1B6893607B680833E1
:104AD000174A1B6893607B680C33154A1B68936008
:104AE00000BF134B5B6803F00103002BF9D0104BA0
:104AF000DA683B681A600E4A3B680433D2681A6071
:104B00000B4A3B680833D2681A60094A3B680C3389
:104B1000D2681A60064BD3F80833054A43F0010304
:104B2000C2F8083300BF0C37BD465DF8047B704700
:104B300000000C4280B584B000AF104BFB60FB68F6
:104B40001B78002B16D00E4B00221A60EFF3108357
:104B50003B603B68BB6072B600BF4FF48030FFF72C
:104B6000EFFEBB687B607B6883F3108800BFFB6847
:104B700000221A7000BF1037BD4680BD604600207D
:104B800000000C4280B485B000AF78600A4BD3F8C7
:104B90008C2009497B681343C1F88C30064BD3F84D
:104BA0008C207B681340FB60FB6800BF1437BD4658
:104BB0005DF8047B704700BF000C024680B483B0F0
:104BC00000AF7860074BD3F88C207B68DB43054946
:104BD0001340C1F88C3000BF0C37BD465DF8047B34
:104BE000704700BF000C024680B483B000AF78600D
:104BF00039607B681B6823F47C523B681B021A43B4
:104C00007B681A6000BF0C37BD465DF8047B7047B7
:104C100080B483B000AF78607B681B6843F001020A
:104C20007B681A6000BF0C37BD465DF8047B704797
:104C300080B483B000AF78607B681B6823F001020A
:104C40007B681A6000BF0C37BD465DF8047B704777
:104C500080B483B000AF78607B681B6843F00202C9
:104C60007B681A6000BF0C37BD465DF8047B704757
:104C700080B483B000AF78607B685B6803F4003376
:104C8000B3F5003F01D1012300E0002318460C37A3
:104C9000BD465DF8047B704780B483B000AF786098
:104CA0007B689B6843F400327B689A6000BF0C37D6
:104CB000BD465DF8047B704780B584B000AF1B4BE8
:104CC000FB60FB681B78002B01D000232AE0FB6807
:104CD00001221A70022000F0C9FAEFF310833B6042
:104CE0003B68BB6072B600BF4FF40010FFF74AFF8D
:104CF000BB687B607B6883F3108800BF0C48FFF7BC
:104D000087FF00BF0A4B5B6803F00103002BF9D05B
:104D1000074B9B68064A43F468139360022000F037
:104D2000D3FA012318461037BD4680BD64460020E3
:104D300000200C4280B483B000AF7860396006492F
:104D40007B6803F580733A6841F8232000BF0C3775
:104D5000BD465DF8047B704700200C4280B487B0EC
:104D600000AFF860B9607A60FB689A000D4B13449D
:104D70007B610AE07A68131D7B607B69191D79618C
:104D800012681A60BB68013BBB60BB68002BF1DC9A
:104D90007B6900221A6000BF1C37BD465DF8047BAA
:104DA000704700BF00240C4280B582B000AF78602D
:104DB00079680648FFF718FF0448FFF76DFF0348BE
:104DC000FFF746FF00BF0837BD4680BD00200C42FC
:104DD00080B500AF0248FFF74BFF0346184680BD81
:104DE00000200C4280B483B000AF7860054A7B6835
:104DF00003F5807352F8233018460C37BD465DF832
:104E0000047B704700200C4280B487B000AFF8608C
:104E1000B9607A60FB689A000C4B13447B610AE02E
:104E20007A69131D7B617B68191D796012681A60AD
:104E3000BB68013BBB60BB68002BF1DC00BF00BF5F
:104E40001C37BD465DF8047B704700BF00240C4250
:104E500080B584B000AF104BFB60FB681B78002B63
:104E600016D00E48FFF7E4FEEFF310833B603B687B
:104E7000BB6072B600BF4FF40010FFF79FFEBB6827
:104E80007B607B6883F3108800BFFB6800221A7088
:104E900000BF1037BD4680BD6446002000200C4294
:104EA00080B582B000AF78604FF480710220FFF7C8
:104EB00041FF7A6808214FF4CA70FFF74FFF064A96
:104EC000082140F21A20FFF749FF0C20FFF76CFF82
:104ED00000BF0837BD4680BD04EB020880B500AFB7
:104EE00040F29E20FFF77EFF034649F26A1293428A
:104EF0000CBF01230023DBB2184680BD80B582B011
:104F000000AF786039604FF480710220FFF712FF24
:104F100001210420FFF70EFF124A08210620FFF7A7
:104F20001DFF114A08214820FFF718FF0F4A0821EA
:104F30001C20FFF713FF7A6808215E20FFF70EFFA1
:104F40003A6808217420FFF709FF094A0821322036
:104F5000FFF704FF2820FFF727FF00BF0837BD46F3
:104F600080BD00BF84EB0208A4EB020804EB02083A
:104F700024EB020880B500AFA020FFF733FF034603
:104F80004DF20D6293420CBF01230023DBB21846A1
:104F900080BD000080B584B000AFF860B9607A6071
:104FA0004FF480710020FFF7C5FE4FF4807102209E
:104FB000FFF7C0FE01210420FFF7BCFE1C4A0821B8
:104FC0000620FFF7CBFE1B4A08214820FFF7C6FE4C
:104FD000194A082140F22230FFF7C0FEFA68082182
:104FE0004FF46A70FFF7BAFEBB68002B01D0BB68B4
:104FF00000E0124B1A4608215E20FFF7AFFE7B68E7
:10500000002B01D07B6800E00D4B1A4608211C20C4
:10501000FFF7A4FE0B4A082140F2E220FFF79EFEB4
:105020002020FFF7C1FE00BF1037BD4680BD00BF86
:1050300084EB0208A4EB020804EB020844EB02082C
:1050400064EB0208C4EB020880B582B000AF786060
:1050500039607B68002B04D07A6808215E20FFF756
:10506000D3FE3B68002B04D03A6808217420FFF778
:10507000CBFE00BF0837BD4680BD000080B400AF46
:10508000054B1B68044A43F48073136000BFBD46A0
:105090005DF8047B704700BF000C024680B400AF8F
:1050A000074B1B6803F48063B3F5806F01D10123C4
:1050B00000E000231846BD465DF8047B704700BF42
:1050C000000C024680B485B000AF78600A4BD3F87C
:1050D0008C2009497B681343C1F88C30064BD3F808
:1050E0008C207B681340FB60FB6800BF1437BD4613
:1050F0005DF8047B704700BF000C024680B483B0AB
:1051000000AF7860074BD3F88C207B68DB43054900
:105110001340C1F88C3000BF0C37BD465DF8047BEE
:10512000704700BF000C024680B483B000AF7860C7
:105130007B681B6843F004027B681A6000BF0C3771
:10514000BD465DF8047B704780B483B000AF7860E3
:105150007B681B6823F004027B681A6000BF0C3771
:10516000BD465DF8047B704780B483B000AF7860C3
:105170007B685B6803F00103012B01D1012300E090
:10518000002318460C37BD465DF8047B704780B499
:1051900083B000AF78607B685B6803F00203022B8A
:1051A00001D1012300E0002318460C37BD465DF80D
:1051B000047B704780B483B000AF78607B685B6825
:1051C00003F04003402B01D1012300E000231846E7
:1051D0000C37BD465DF8047B704780B483B000AFE8
:1051E00078607B686FF020025A6000BF0C37BD46C4
:1051F0005DF8047B704780B483B000AF78607B6853
:105200006FF040025A6000BF0C37BD465DF8047B6A
:10521000704780B483B000AF78607B689B681846A5
:105220000C37BD465DF8047B704780B500AFFFF7D3
:1052300025FF01E0FFF722FFFFF730FF0346002BB9
:10524000F8D000BF00BF80BD80B500AF0420FBF7E1
:1052500086FA0548FFF778FF012000F035F80420B2
:10526000FBF788FA00BF80BD00080C4280B586B00D
:1052700000AF0346FB71134B7B61FFF7D6FFEFF3E3
:105280001083FB60FB683B6172B600BF7B6993F8DB
:105290008230002B03D14FF48020FFF713FF7B698E
:1052A00093F88220FB791343DAB27B6983F882207A
:1052B0003B69BB60BB6883F3108800BF00BF183731
:1052C000BD4680BD6846002080B58AB000AF034669
:1052D000FB71204B7B62EFF310837B617B693B6248
:1052E00072B600BF7B6A93F882305AB297F90730E2
:1052F000DB435BB213405BB2DAB27B6A83F8822095
:105300003B6ABB61BB6983F3108800BF7B6A93F87B
:105310008230002B01D100F01FF8EFF310833B61C6
:105320003B69FB6172B600BF7B6A93F88230002B49
:1053300003D14FF48020FFF7E1FEFB69FB60FB68BF
:1053400083F3108800BFFDF71EFF00BF2837BD465E
:1053500080BD00BF6846002080B483B000AFB22398
:105360007B6002E07B68013B7B607B68002BF9D1AE
:1053700000BF00BF0C37BD465DF8047B70470000DE
:1053800090B589B000AF78600023BB617B6893F86B
:105390008130002B10D10320FBF7E1F90120FFF74A
:1053A00065FF3948FFF7C0FE0320FBF7E3F97B6890
:1053B000012283F8812062E03348FFF7E8FE0346CC
:1053C000002B06D03048FFF708FF40F20113BB6105
:1053D00055E02D48FFF7EEFE0346002B12D02A4879
:1053E000FFF709FF0C23FB6105E02748FFF711FFDA
:1053F000FB69013BFB61FB69002BF6DC4FF4817319
:10540000BB613CE07B6893F880301F2B31D8EFF311
:1054100010833B613B697B6172B600BF0520FBF7DF
:105420009EF912E07B6893F880301C461648FFF71F
:10543000F0FE02467B6843F824207B6893F88030B6
:105440000133DAB27B6883F880207B6893F8803080
:105450001F2B05D80C48FFF787FE0346002BE1D130
:105460000520FBF787F97B69FB60FB6883F31088F5
:1054700005E0FFF7E9FE7B68002283F88120BB6925
:1054800018462437BD4690BD00080C4280B582B056
:1054900000AF134B7B607B68002283F880207B6821
:1054A000002283F881207B680022C3F884207B6877
:1054B000002283F882207868FFF762FF02467B684B
:1054C000C3F884207B6893F88130002B04D07B687C
:1054D000D3F88430002BEED000BF0837BD4680BD26
:1054E0006846002080B588B000AF03463960FB7184
:1054F000214BBB6134E0EFF310833B613B697B617F
:1055000072B600BFBB6993F88030002B0DD1BB6928
:1055100040F20312C3F88420FB7903F01F02BB6939
:1055200053F82230DB43FB610FE0BB6993F8803016
:10553000013BDAB2BB6983F88020BB6993F8803005
:105540001A46BB6953F82230FB617B69FB60FB683C
:1055500083F3108800BF3B681A1D3A60FA691A602D
:10556000FB795A1EFA71002BC5D1FDF7B0FD00BFC3
:105570002037BD4680BD00BF6846002080B586B09C
:1055800000AF1F4B3B6100237B613B6993F8813087
:10559000002B04D13B6993F880301F2B25D8EFF303
:1055A00010837B607B68FB6072B600BF3B69D3F8F9
:1055B00084307B613B690022C3F88420FB68BB60B8
:1055C000BB6883F3108800BF7B69002B0DD138695D
:1055D000FFF7D6FE78617B69002B06D13B6993F813
:1055E0008130002B01D001237B617B69002B01D02E
:1055F000FDF76DFD7B6918461837BD4680BD00BFBD
:105600006846002080B483B000AF0346FB7197F971
:105610000730002B0EDB0B4A97F907305B0980330C
:1056200052F82320FB7903F01F0322FA03F303F05F
:10563000010300E0002318460C37BD465DF8047BEB
:10564000704700BF00E100E080B483B000AF0346C4
:105650003960FB7197F90730002B0ADB3B68DAB23F
:105660000C4997F907301201D2B20B4483F800239A
:105670000AE03B68DAB20849FB7903F00F03043B08
:105680001201D2B20B441A7600BF0C37BD465DF84A
:10569000047B704700E100E000ED00E080B400AF63
:1056A000074BD3F8083203F48033B3F5803F01D1C0
:1056B000012300E000231846BD465DF8047B7047D7
:1056C000000C024680B400AF044BD3F8F03003F472
:1056D00040231846BD465DF8047B7047000C024627
:1056E00080B400AF094BD3F8003103F00203002B64
:1056F00001D0022304E0054BD3F8003103F001038D
:105700001846BD465DF8047B704700BF000802469E
:1057100080B400AF074BDB6803F40043B3F5004FE0
:1057200001D1012300E000231846BD465DF8047B4B
:10573000704700BF0008024680B582B000AF00236A
:105740007B60FFF7BFFF7860094BD3F89830084AB9
:1057500043F00103C2F89830054BD3F8983003F0BA
:1057600001033B603B6800BF0837BD4680BD00BFFA
:10577000000C024680B485B000AF78600B4B1B680C
:105780000B4AA2FB03239B0C7A6802FB03F3FB602A
:1057900000BFFB685A1EFA60002BF9D100BF00BFA2
:1057A0001437BD465DF8047B704700BF4001002000
:1057B00083DE1B4380B483B000AF0346FB7100BFA0
:1057C0000C37BD465DF8047B7047000080B500AF24
:1057D000084B1B78012B0AD1064B00221A7000BF20
:1057E00019F0ECFD0246044B1B689A42F8D000BF4A
:1057F00080BD00BF114700201447002080B500AFD6
:10580000FFF76EFF0346022B0BD1084BD3F8C030D5
:1058100003F00103002B07D1FFF740FF0346002BE5
:1058200002D1034B01221A7000BF80BD000C02465A
:105830001147002080B500AF054B1B78002B04D02A
:1058400019F0BCFD0346034A136000BF80BD00BFD2
:10585000114700201447002080B582B000AF0346F6
:10586000FB71FB79002B04D002F0D4FC08F05EFF42
:1058700001E008F06DFF00BF0837BD4680BD80B570
:1058800084B000AF786039603B68FB6011E00023B2
:10589000BB6007F1080319460120FFF723FE3A68B1
:1058A000FB68D31A7A681344BA681A60FB68043B31
:1058B000FB60FB68032BEAD8FB68002B12D00023A7
:1058C000BB6007F1080319460120FFF70BFE3A6899
:1058D000FB68D31A7A68134407F10801FA6818467E
:1058E00029F0E1F800BF1037BD4680BD80B582B019
:1058F00000AF7860074A7B681360002200214220D5
:1059000006F094FA422006F0AEFA00BF0837BD4612
:1059100080BD00BFF046002080B582B000AF786047
:10592000074A7B68136000220F213D2006F07EFAB3
:105930003D2006F098FA00BF0837BD4680BD00BF85
:10594000F446002080B584B000AF0346FB71052308
:10595000FB733D20FFF756FE0346002B0BD1FB796E
:10596000002B01D10F23FB73FB7B002219463D2046
:1059700006F05CFA05E0FB79002B02D0044B012213
:105980001A703D2006F0AEFA00BF1037BD4680BD4C
:105990001047002080B483B000AF0E4B1B68002B73
:1059A00003DD0C4B1B68013B00E00023094A136038
:1059B000084B1B68002B06D1074B1B687B607B687C
:1059C00083F3108800BF00BF0C37BD465DF8047B31
:1059D000704700BF08470020F846002080B483B01D
:1059E00000AF0B4B1B68002B05D1EFF310837B60DE
:1059F0007B68084A136072B600BF054B1B68013311
:105A0000034A136000BF0C37BD465DF8047B704746
:105A100008470020F846002080B584B000AF034658
:105A2000FB71FB7903F00103002B0BD01A4B1B68B1
:105A3000013B194A1360184B1B68002B02D142200E
:105A400006F011FAFB7903F00203002B0BD0134B85
:105A50001B68013B114A1360104B1B68002B02D1DD
:105A60003D2006F000FAFB7903F00403002B0FD071
:105A70000B4B1B68013B0A4A1360094B1B68002B48
:105A800006D1084B1B68FB60FB6883F3118800BFDD
:105A900000BF1037BD4680BDFC46002000470020F7
:105AA000044700200C47002080B584B000AF0346B7
:105AB000FB71FB7903F00103002B0BD01D4B1B681E
:105AC00001331C4A13601B4B1B68012B02D142207F
:105AD00006F0D7F9FB7903F00203002B0BD0164B2D
