:020000040800F2
:1000000000000220BD820008AFAF0008B7AF0008B3
:10001000BFAF0008C7AF0008CFAF000845750008A4
:10002000000000000000000000000000D7AF000842
:10003000E5AF000800000000F3AF000801B00008C1
:1000400045750008457500080DB0000845750008A5
:100050004575000845750008457500084575000898
:100060004575000821B00008457500084575000871
:100070004575000845750008457500084575000878
:100080004575000845750008457500084575000868
:100090004575000845750008457500084575000858
:1000A0004575000845750008457500084575000848
:1000B000457500085DB000086BB000084575000884
:1000C0004575000845750008457500084575000828
:1000D0004575000845750008457500084575000818
:1000E0004575000845750008457500084575000808
:1000F00045750008457500084575000845750008F8
:1001000045750008457500084575000879B0000878
:1001100045750008457500084575000845750008D7
:100120004575000845750008457500089DB0000834
:1001300045750008D5B000084575000845750008EC
:100140004575000845750008B1B000084575000800
:100150004575000845750008457500084575000897
:1001600010B5054C237833B9044B13B10448AFF3F1
:1001700000800123237010BDD00500200000000086
:100180000C99020808B5034B1BB103490348AFF3B0
:10019000008008BD00000000D40500200C99020872
:1001A00070B4840746D04C1E002941D0D5B2034616
:1001B00002E0611EE4B30C4603F8015B9907F8D135
:1001C000032C2ED9D5B245EA05250F2C45EA054565
:1001D00019D9264603F11001103E0F2E41F8105C8C
:1001E00041F80C5C41F8085C41F8045C01F1100135
:1001F000F2D8A4F1100121F00F0104F00F04103126
:10020000032C0B440DD91E4621460439032946F818
:10021000045BFAD8211F21F0030104310B4404F0E0
:1002200003042CB1D2B21C4403F8012BA342FBD12E
:1002300070BC70470C460346C2E7000053B94AB988
:10024000002908BF00281CBF4FF0FF314FF0FF30DE
:1002500000F0B0B9ADF1080C6DE904CE00F006F87D
:10026000DDF804E0DDE9022304B070472DE9F04F2A
:10027000099D884604468E46002B4AD18A4217467D
:100280005FD9B2FA82F64EB1C6F1200301FA06FE3A
:10029000B740B44020FA03F343EA0E0E4FEA174882
:1002A0001FFA87FC230CBEFBF8F108FB11EE01FBE3
:1002B0000CF243EA0E439A4207D9FB1801F1FF30D2
:1002C00002D29A4200F2548101469B1AA2B2B3FBB9
:1002D000F8F008FB103300FB0CFC42EA03429445A3
:1002E0000BD9BA1800F1FF332CBF01240024944528
:1002F00002D9002C00F03F81184640EA0140A2EBF1
:100300000C0200211DB1F2400023C5E90023BDE825
:10031000F08F8B4205D90DB1C5E9000100210846D7
:10032000F5E7B3FA83F100294ED14345C0F01281BD
:10033000824240F20F810846002DE8D0C5E9004E08
:10034000E5E7002A00F0AC80B2FA82F6002E40F019
:10035000BB808B1A4FEA124EBCB20121020C80B254
:10036000B3FBFEFC0EFB1C3342EA034304FB0CF21E
:100370009A420ED9FB180CF1FF382CBF4FF001093F
:100380004FF000099A4203D9B9F1000F00F0EC8058
:10039000C4469B1AB3FBFEF80EFB183304FB08F4AB
:1003A00040EA034294420BD9BA1808F1FF332CBF3C
:1003B00001200020944202D9002800F0D180984604
:1003C000121B48EA0C409DE7C1F120068B4008FA59
:1003D00001F400FA01F922FA06F728FA06F88A4031
:1003E0001F4320FA06F3380C23431FFA87FC1C0C2A
:1003F000B8FBF0FE00FB1E8844EA08440EFB0CF834
:10040000A0450ED93C190EF1FF3A2CBF4FF0010B5D
:100410004FF0000BA04503D9BBF1000F00F0B880EE
:10042000D646A4EB08041FFA83F8B4FBF0F300FBF4
:10043000134403FB0CFC48EA0444A4450ED93C19C0
:1004400003F1FF302CBF4FF001084FF00008A44526
:1004500003D9B8F1000F00F09F80034643EA0E4035
:10046000A4EB0C04A0FB02EC64457346E04602D307
:1004700007D1F14505D2BEEB02036CEB070C013846
:10048000E0465DB1B9EB030264EB080404FA06F63A
:1004900022FA01F3CC401E43C5E90064002136E78F
:1004A000B1FBF2FC010C144680B2964641EA0841C9
:1004B0002026904640EA01431046B1FBF2F1A3EB3F
:1004C000080341EA0C414BE7B740C6F1200301FAAB
:1004D00006F221FA03F84FEA174E20FA03F3BCB2F2
:1004E000B0401343020C190C80B2B8FBFEF90EFBAE
:1004F000198841EA084109FB04F8884551D979185F
:1005000009F1FF3C2CBF4FF0010A4FF0000A88456B
:1005100002D9BAF1000F31D0A1EB0801B1FBFEF90D
:1005200009FB04F80EFB19119BB243EA0143434552
:1005300035D2FB1809F1FF312CBF4FF0010A4FF003
:10054000000A4345BBD2BAF1000FB8D1A9F10201AC
:100550003B44B4E7841A68EB030201209646EBE6BD
:100560003A44A8F102082BE7ACF1020C3B4410E737
:1005700002393B44A9E63A440238BEE6A7EB080834
:10058000A9F1020C4144B1FBFEF909FB04F8C9E7EB
:10059000AEF1020E3C4444E7023B3C445EE7494670
:1005A0008DE7A1EB0801CC46B1FBFEF909FB04F88D
:1005B000B8E700BF704700BF80B483B000AF786079
:1005C000044B01221A7000BF0C37BD465DF8047B56
:1005D000704700BFFC05002080B584B000AF786094
:1005E0000023FB601CF07EF907F10C0318460EF0A7
:1005F0005DFBFB6818460FF097F978680FF001FC77
:1006000004480FF00AFC00F007F800BF1037BD46A1
:1006100080BD00BFB905000880B582B000AF0E4BA9
:100620001B78012B14D00C4B01221A7000F092F9A8
:100630000346FB71FB79002B0CBF01230023DBB2C7
:10064000184600F0ABF804F0BDFA04F0D7FA00E069
:1006500000BF0837BD4680BDEC05002080B485B0E2
:1006600000AF03463960FB710023FB7310E000BF4D
:100670000D4B1B6803F00103002BF9D00B49FB7BEA
:100680009B003A6813440A681A60FB7B0133FB73D2
:10069000FA7BFB799A42EAD300BF00BF1437BD460C
:1006A0005DF8047B704700BF04080C4208080C4248
:1006B00080B400AF00BFBD465DF8047B704780B5D5
:1006C00084B000AFF860B9607A603B60102200210E
:1006D000786829F0DDF800BF1037BD4680BD80B4D2
:1006E00083B000AF786000BF0C37BD465DF8047B77
:1006F000704780B584B000AFF860B9607A607B68FD
:10070000002B04D010220021786829F0C1F800BF26
:100710001037BD4680BD80B400AF00BFBD465DF858
:10072000047B704780B400AF00BFBD465DF8047B1A
:10073000704780B483B000AF7860002318460C3750
:10074000BD465DF8047B704780B483B000AF78602D
:100750003960002318460C37BD465DF8047B7047AE
:1007600080B500AF04F010F800BF80BD80B485B044
:1007700000AF78607A6813469B0013449A001344D4
:10078000FB6000BFFB685A1EFA60002BFAD100BF65
:1007900000BF1437BD465DF8047B704780B483B05A
:1007A00000AF0346FB71FB79002B01D100BFFDE7D1
:1007B00000BF0C37BD465DF8047B704780B582B042
:1007C00000AF786039603968786804F026F800BFB7
:1007D0000837BD4680BD80B582B000AF0346FB71CF
:1007E000FB79184604F006F800BF0837BD4680BD07
:1007F00080B500AF03F0E6FF00BF80BD80B582B0DA
:1008000000AF7860786804F03FF800BF0837BD4655
:1008100080BD80B582B000AF7860786804F04AF897
:1008200000BF0837BD4680BD80B582B000AF03462B
:10083000FB71FB79184604F053F800BF0837BD463A
:1008400080BD80B582B000AF0346FB71FB79002B01
:1008500002D004F045F901E004F058F900BF083770
:10086000BD4680BD80B582B000AF0346FB71FB7909
:10087000002B02D004F060F901E004F072F900BF2F
:100880000837BD4680BD80B400AF00BFBD465DF8EF
:10089000047B704780B483B000AF786000BF0C3732
:1008A000BD465DF8047B704780B582B000AF124B47
:1008B0001B680133104A13601BF0DCFB0346FB711D
:1008C000FB790E4A1360FB79002B0AD10C4B1B6895
:1008D00001330B4A136000F045F81BF013FB03F0E3
:1008E00053FC1BF0C7FB0346002B01D104F076F943
:1008F00000BF0837BD4680BDF0050020F805002088
:10090000F405002080B582B000AF0346FB71FB798F
:10091000184604F04FF800BF0837BD4680BD80B5CB
:1009200082B000AF0346FB71FB79184604F08AF8E9
:1009300000BF0837BD4680BD80B400AF00BFBD46D4
:100940005DF8047B704780B400AF00BFBD465DF822
:10095000047B704780B400AF00231846BD465DF8A5
:10096000047B704780B400AF00231846BD465DF895
:10097000047B704780B400AF01231846BD465DF884
:10098000047B704780B485B000AFF860B9607A60CE
:10099000002318461437BD465DF8047B704780B4C9
:1009A00085B000AFB9607B600346FB731346BB8123
:1009B000002318461437BD465DF8047B704780B4A9
:1009C00085B000AFF8607B600B46FB7213463B813D
:1009D0004FF0FF3318461437BD465DF8047B70476F
:1009E00080B483B000AF03463960FB801346BB8000
:1009F000012318460C37BD465DF8047B704780B470
:100A000083B000AF786000BF0C37BD465DF8047B53
:100A1000704780B485B000AFF860B9607A6000BFFD
:100A20001437BD465DF8047B704780B483B000AFD7
:100A30007860002318460C37BD465DF8047B70478C
:100A400080B582B000AF786039603B689B00194682
:100A5000786806F0E1FE00BF0837BD4680BD80B56E
:100A600082B000AF78607B689B00184606F008FEF5
:100A7000034618460837BD4680BD80B582B000AF3A
:100A80007860786806F08CFE00BF0837BD4680BDF0
:100A900080B483B000AF78607B68074A1A607B68D7
:100AA000064A5A607B68064A9A6000BF0C37BD460A
:100AB0005DF8047B704700BF410A00085F0A000828
:100AC0007B0A000880B500AF0021202007F004F960
:100AD00000BF80BD80B400AF00BFBD465DF8047BA1
:100AE000704780B400AF00BFBD465DF8047B70471F
:100AF00080B483B000AF786000BF0C37BD465DF8AE
:100B0000047B704780B483B000AF786000BF0C37BF
:100B1000BD465DF8047B704780B483B000AF786059
:100B2000002318460C37BD465DF8047B704780B43F
:100B300083B000AF78603960002318460C37BD469B
:100B40005DF8047B704780B400AF00231846BD46B3
:100B50005DF8047B704780B400AF00BFBD465DF810
:100B6000047B704780B483B000AF7860396000BF09
:100B70000C37BD465DF8047B704780B483B000AF8E
:100B80007860396000BF0C37BD465DF8047B704764
:100B900080B483B000AF786000BF0C37BD465DF80D
:100BA000047B704780B483B000AF786000BF0C371F
:100BB000BD465DF8047B704780B483B000AF7860B9
:100BC00000BF0C37BD465DF8047B704780B400AFB2
:100BD00000BFBD465DF8047B7047000080B400AFE5
:100BE000084B1B68074A23F004031360064B1B687D
:100BF000054A43F00703136030BF00BFBD465DF8F0
:100C0000047B704710ED00E0042004E080B400AFE6
:100C100000BFBD465DF8047B7047000080B400AFA4
:100C2000054B1B68044A43F00103136000BFBD4637
:100C30005DF8047B704700BF980C024680B483B017
:100C400000AF0346FB7100BF0C37BD465DF8047B67
:100C5000704780B483B000AF0346FB7100BF0C3710
:100C6000BD465DF8047B704780B483B000AF786008
:100C700039607B681B6823F440023B681A437B6839
:100C80001A6000BF0C37BD465DF8047B704780B426
:100C900083B000AF786039607B685B6C23F0010241
:100CA0003B681A437B685A6400BF0C37BD465DF849
:100CB000047B704780B483B000AF786039607B6894
:100CC0005B6C23F002023B681A437B685A6400BFE6
:100CD0000C37BD465DF8047B704780B483B000AF2D
:100CE000786039607B681B6923F000523B681A43C7
:100CF0007B681A6100BF0C37BD465DF8047B704706
:100D000080B485B000AFF860B9607A60FB685A695A
:100D1000BB6803F00403072101FA03F3DB431A4025
:100D2000BB6803F00403796801FA03F31A43FB6814
:100D30005A6100BF1437BD465DF8047B704780B42C
:100D400083B000AF786039607B68DB6823F4001201
:100D50003B681A437B68DA6000BF0C37BD465DF81C
:100D6000047B704780B485B000AFF860B9607A60EA
:100D7000FB689A6ABB6803F01F030F2101FA03F3B3
:100D8000DB431A407B689B0E03F00F01BB6803F046
:100D90001F0301FA03F31A43FB689A6200BF14377A
:100DA000BD465DF8047B704780B483B000AF7860C7
:100DB00039607B68DB6823F003023B681A437B6879
:100DC000DA6000BF0C37BD465DF8047B704780B425
:100DD00083B000AF78607B68DB6803F003031846DC
:100DE0000C37BD465DF8047B704780B485B000AF1A
:100DF000F860B9607A60FB685A69BB681B02DB4324
:100E00001A40BB6819027B680B4023F07C4323F037
:100E1000FF031A43FB685A6100BF1437BD465DF8F3
:100E2000047B704780B483B000AF78607B689B68B8
:100E300023F0104323F0170343F080527B689A603D
:100E400000BF0C37BD465DF8047B704780B483B0AB
:100E500000AF78607B689B6823F0104323F0170392
:100E60007A68936000BF0C37BD465DF8047B70471D
:100E700080B483B000AF78607B689B6803F08053D8
:100E8000B3F1805F01D1012300E0002318460C3745
:100E9000BD465DF8047B704780B483B000AF7860D6
:100EA0007B689B6823F0004323F0170343F00102A3
:100EB0007B689A6000BF0C37BD465DF8047B7047C5
:100EC00080B483B000AF78607B689B6823F00043F8
:100ED00023F0170343F002027B689A6000BF0C37CF
:100EE000BD465DF8047B704780B483B000AF786086
:100EF0007B689B6803F00103012B01D1012300E013
:100F0000002318460C37BD465DF8047B704780B45B
:100F100083B000AF78607B689B6803F00203022B0C
:100F200001D1012300E0002318460C37BD465DF8CF
:100F3000047B704780B483B000AF78607B689B68A7
:100F400023F0004323F0170343F000427B689A60CC
:100F500000BF0C37BD465DF8047B704780B483B09A
:100F600000AF78607B689B6803F00043B3F1004FEB
:100F700001D1012300E0002318460C37BD465DF87F
:100F8000047B704780B483B000AF78607B689B6857
:100F900023F0004323F0170343F004027B689A60B8
:100FA00000BF0C37BD465DF8047B704780B483B04A
:100FB00000AF78607B689B6803F00403042B01D1C9
:100FC000012300E0002318460C37BD465DF8047B82
:100FD000704780B483B000AF78607B689B6803F093
:100FE0001003102B01D1012300E0002318460C3719
:100FF000BD465DF8047B704780B483B000AF786075
:101000007B681B6C9BB2C3F30B039BB218460C3777
:10101000BD465DF8047B704780B483B000AF786054
:101020007B681B6C9BB2C3F309039BB218460C3759
:10103000BD465DF8047B704780B483B000AF786034
:101040007B681B6CDBB218460C37BD465DF8047B31
:10105000704780B483B000AF78607B681B6CDBB2F4
:1010600003F03F03DBB218460C37BD465DF8047B46
:10107000704780B483B000AF78607B681B6803F072
:101080000103012B01D1012300E0002318460C3796
:10109000BD465DF8047B704780B483B000AF7860D4
:1010A0007B681B6803F00403042B01D1012300E0DB
:1010B000002318460C37BD465DF8047B704780B4AA
:1010C00083B000AF78607B6801221A6000BF0C37E4
:1010D000BD465DF8047B704780B483B000AF786094
:1010E0007B6804221A6000BF0C37BD465DF8047BA4
:1010F0007047000080B483B000AF7860074BD3F82E
:10110000E83023F4E04205497B681343C1F8E83036
:1011100000BF0C37BD465DF8047B7047000C0246EB
:1011200080B485B000AF78600A4BD3F894200949A9
:101130007B681343C1F89430064BD3F894207B6846
:101140001340FB60FB6800BF1437BD465DF8047BAD
:10115000704700BF000C024680B483B000AF7860D7
:10116000074BD3F894207B68DB4305491340C1F853
:10117000943000BF0C37BD465DF8047B704700BF5C
:10118000000C024680B582B000AF0923FB7100F06D
:10119000A5FB0346FB71FB79002B0CD1084B002209
:1011A0001A60084B084A1A60084B00221A6000F0C7
:1011B000BBF900F09BFBFB7918460837BD4680BDA4
:1011C0000406002000000020001002460006002057
:1011D00080B584B000AF78600923FB737B68002B77
:1011E00002D10623FB731BE07B681B79012B02D124
:1011F0000323FB7314E000F071FB0346FB73FB7BDE
:10120000002B0DD1094B1B680133084A1360074BB3
:101210001A687B681A607B6801221A7100F066FB0D
:10122000FB7B18461037BD4680BD00BF0806002076
:1012300080B586B000AF78600B46FB700923FB7564
:10124000EFF31083FB60FB683B6172B600BFFB7875
:10125000002B0DD17B681B68012202FA03F3DA43ED
:10126000164B1B681340154A13600023FB7510E0F2
:10127000FB78012B0BD17B681B6801229A400F4B36
:101280001B6813430D4A13600023FB7501E008231C
:10129000FB750A4B1B68002B02D100F045F901E0F9
:1012A00000F0D6F83B69BB60BB6883F3108800BFD1
:1012B000FB7D18461837BD4680BD00BF00060020E4
:1012C00080B584B000AF786039600923FB730023D8
:1012D000BB810220FFF7B2FC7B68002B02D03B6889
:1012E000002B02D10623FB739DE07B681B79002B4A
:1012F00002D10423FB7396E07B681A684C4B1B6891
:101300009A4203D87B681B68002B02D10523FB732C
:1013100089E07B681B6801229A40464B1B6813409A
:10132000002B02D10823FB737DE000F0D7FA0346BF
:10133000FB73FB7B002B76D17B681A683E4B1B68E6
:101340009A4209D0786800F041F90346FB733B4BA1
:101350001B681846FFF7A0FDFB7B002B5FD1786868
:1013600000F02AFA0346BB81354B1A88354B1B889F
:101370009A4224D1BB899BB21A4640F6E44303FB50
:1013800002F27B68DB685B0840F6FF7121FA03F329
:10139000B2FBF3F34FF47A7202FB03F3A3F53923A4
:1013A000A3F50C63284A82FB03129212DB17D31AAF
:1013B0009BB21E339BB21AB23B681A8031E0214BBC
:1013C0001A881F4B1B889A4224D0BB899BB21A46AD
:1013D0007B68DB685B0802FA03F31A4640F6E443D5
:1013E00002FB03F3194AA2FB03239B091A46144B81
:1013F0001B88D31A642203FB02F2124B1B88194686
:101400000F4B1B88CB1A92FBF3F39BB21E339BB29C
:101410001AB201E047F6FF723B681A8001E0072329
:10142000FB7300F063FAFB7B18461037BD4680BDA6
:10143000080600200006002004060020000000200E
:101440001007F90B4207F90BAD8BDB68F119760534
:1014500080B584B000AF00233B600020FFF7EEFBB7
:10146000EFF31083BB60BB68FB6072B600BF2D4B0F
:101470001B681846FFF738FD0346002B45D10020B6
:10148000FFF738FE2020FFF74BFE264B1B6818465F
:10149000FFF7C8FC00BF234B1B681846FFF7E8FCAA
:1014A0000346002BF7D01F4B1B681846FFF78FFC35
:1014B00003463B601B4B1B6800211846FFF774FC7A
:1014C000184B1B681846FFF735FD00BF154B1B680E
:1014D0001846FFF743FD0346002BF7D1114B1B685D
:1014E0003A6811461846FFF75FFC004600460D4B70
:1014F0001B681846FFF7D0FC00BF0A4B1B68184654
:10150000FFF7B7FD0346002BF7D0FB687B607B68D5
:1015100083F3108800BF0020FFF79BFB00BF10374C
:10152000BD4680BD0000002080B584B000AF012022
:10153000FFF784FBEFF31083BB60BB68FB6072B600
:1015400000BF214B1B681846FFF7CEFC0346002B5B
:101550002CD01D4B1B681846FFF7B2FC1A4B1B68BA
:101560001846FFF7ACFD00BF174B1B681846FFF786
:10157000BBFC0346012BF7D000BF134B1B6818467A
:10158000FFF727FD0346012BF7D00F4B1B681846CA
:10159000FFF75CFC00BF0C4B1B681846FFF768FCAC
:1015A0000346012BF7D02020FFF7D6FDFB687B60B8
:1015B0007B6883F3108800BF0120FFF74AFB00BF60
:1015C0001037BD4680BD00BF0000002080B58CB044
:1015D00000AF7860002387F82F300023BB6207F14B
:1015E000200300221A605A6007F1080300221A60E3
:1015F0005A609A60DA601A615A61694B1B68184632
:1016000009F00AFE0346002B03D0012387F82F3090
:1016100023E0634B1B681846FFF7D9FB0346BB6208
:101620005F4B1B6800211846FFF7BEFB5C4B1B6835
:101630001846FFF77FFC00BF594B1B681846FFF7A1
:101640008DFC0346002BF7D1554B1B68BA6A114637
:101650001846FFF7A9FB0046004697F82F30002BED
:1016600040F097807B68DB683B627B681B697B622C
:101670007B685B69BB607B685B6BFB607B689B6BBB
:101680003B617B68DB697B617B681B6ABB617B6854
:101690005B6AFB617B685B6C424A934205D14FF405
:1016A00080014148FFF7E0FA0EE07B685B6C3F4A3F
:1016B000934205D14FF400013B48FFF7D5FA03E010
:1016C00000213948FFF7D0FA354B1A687B689B68D0
:1016D00019461046FFF701FB314B1B6807F120024A
:1016E0001146184609F03CFE0346002B03D00123A7
:1016F00087F82F304DE02A4B1A687B681B6B194620
:101700001046FFF71CFB264B1B6807F10802114629
:10171000184609F047FE0346002B03D0012387F843
:101720002F3036E01E4B1A687B6893F83C30194620
:101730001046FFF7ACFA1A4B1A687B681B6C194607
:101740001046FFF7B7FA164B18687B689B6A1A4673
:101750000021FFF7D5FA124B18687B68DB6A1A463E
:101760001349FFF7CDFA0E4B18687B68996C7B68BC
:101770005B6C1A46FFF7F6FA094B18687B68596CE0
:101780007B68DB6C1A46FFF730FB7B681B68094AF5
:10179000136097F82F3018463037BD4680BD00BF24
:1017A000000000200100008008130246002000B461
:1017B00004FFFF030406002080B584B000AF78600A
:1017C0000023FB8100F056F87B68DB680C2B48D8BF
:1017D00001A252F823F000BF0D180008631800089A
:1017E000631800086318000823180008631800082D
:1017F0006318000863180008391800086318000807
:1018000063180008631800084F1800084FF480534D
:10181000FB81174B1B681846FFF7EEFB0346FB8165
:1018200020E04FF48063FB81114B1B681846FFF7E3
:10183000F3FB0346FB8115E04FF48073FB810C4BF7
:101840001B681846FFF7F8FB0346FB810AE04023BC
:10185000FB81074B1B681846FFF7FBFB0346FB8128
:1018600000E000BFFB899BB218461037BD4680BD23
:101870000000002080B500AF174B1B681846FFF72B
:1018800033FB0346012B15D1134B1B681846FFF79A
:101890003EFB0346002B0DD10F4B1B681846FFF78C
:1018A00085FB0346002B05D10B4B1B681846FFF741
:1018B00069FB01E003F020FC00BF074B1B681846E2
:1018C000FFF7EAFB0346002BF7D0034B1B681846D3
:1018D000FFF702FC00BF80BD0000002080B400AF15
:1018E00000231846BD465DF8047B704780B400AF06
:1018F00000231846BD465DF8047B704780B586B06E
:1019000000AF78600123FB7500233B61994B1B7886
:10191000012B02D10C23FB7527E17B68002B02D140
:101920000223FB7521E17B681B68002B02D1032396
:10193000FB751AE17B681B6803F00303002B02D0E0
:101940000323FB7511E17B685B68002B02D1032345
:10195000FB750AE17B689B68002B06D07B68DB681F
:10196000002B02D10423FB75FFE07B689A681346C5
:101970005B0013443B610023FB6028E07B68DA686E
:10198000FB68DB0013445B683A6913443B617B6886
:10199000DA68FB68DB0013441B78002B02D10423B8
:1019A000FB7511E07B68DA68FB68DB0013445B6859
:1019B000002B02D10423FB7506E07B685B683A6963
:1019C0009A4201D90423FB75FB680133FB607B68F5
:1019D0009B68FA689A4202D2FB7D012BCED0FB7D38
:1019E000012B40F0C280644B00221A60634B00223E
:1019F0001A60634B00221A60624B00221A60624B2D
:101A000000221A60614B00221A60614B00221A60AA
:101A10005F4B00225A605E4B00229A605D4B0022B1
:101A20001A605C4B00225A605B4B00221A605A4BD2
:101A300000225A605648FFF72BF8554B1B68002BC5
:101A400007D0534B5B68002B03D0514B9B68002B96
:101A500002D10523FB7588E07B681B68464A13604A
:101A60007B685B68454A1360494B1B68424A1268B1
:101A70004249096810469847454B59687B689A68FF
:101A800013465B0013441846884703463F4A1360D9
:101A90003E4B1B68002B06D17B689B68002B02D055
:101AA0000623FB7561E03B4809F0DAFC3A4809F08F
:101AB000D7FC7B689B68344A1360334B1A68134623
:101AC0005B001A442E4B1B6813442D4A13600023FD
:101AD000BB6040E07B68DA68BB68DB00D1182B4B49
:101AE0001868BA6813465B0013449B0003440A78E5
:101AF0001A707B68DA68BB68DB00D118234B186862
:101B0000BA6813465B0013449B0003444A68C3F859
:101B100001201E4B1968BA6813465B0013449B00F2
:101B20000B4400225A7100229A710022DA710022BD
:101B30001A72164B1968BA6813465B0013449B006F
:101B40000B44D3F801200F4B1B6813440D4A13605C
:101B5000BB680133BB600C4B1B68BA689A42B9D3AF
:101B6000044B01221A700023FB75FB7D18461837C1
:101B7000BD4680BD0C060020100600201406002083
:101B8000180600201C060020200600202406002045
:101B900028060020340600203C06002080B58EB0C8
:101BA00000AFB9607A603B600346FB73012387F89E
:101BB000373000233B630023BB627B6800221A603E
:101BC000904B1B78002B03D10D2387F8373012E19F
:101BD000BB68002B03D10A2387F837300BE1FB7B6E
:101BE000002B45D1EFF31083FB61FB693B6272B6BA
:101BF00000BF854B1A68854B1B68D21A844B1B6843
:101C0000D31ABA689A4227D2824B5B68BA6801320B
:101C100010469847B862BB6A002B16D0FB7B1A06A9
:101C2000BB6823F07F431A43BB6A1A60BB6A1A1D64
:101C30007B681A60754B1A68BB6813440133734A9A
:101C40001360002387F837300CE0386800F0F6F9AD
:101C50000B2387F8373005E0386800F0EFF90A23E6
:101C600087F837303B6ABB61BB6983F31088C2E0F9
:101C7000092387F83730EFF310837B617B697B6240
:101C800072B600BF0023FB62A5E0634B1968FA6AD5
:101C900013465B0013449B000B441B78FA7B9A426B
:101CA00040F096805C4B1968FA6A13465B00134457
:101CB0009B000B44D3F80510574B1868FA6A13467B
:101CC0005B0013449B000344D3F80130994215D2C2
:101CD000514B1968FA6A13465B0013449B000B448E
:101CE000D3F801104C4B1868FA6A13465B00134492
:101CF0009B000344D3F80530CB1A3B63424B1A6870
:101D0000424B1B68D21A424B1B68D21A3B6B1344DE
:101D1000BA689A4256D23F4B5B68BA6801321046A5
:101D20009847B862BB6A002B45D0FB7B1A06BB689C
:101D300023F07F431A43BB6A1A60BB6A1A1D7B6893
:101D40001A60354B1968FA6A13465B0013449B000E
:101D50000B44D3F80520BB68D1182F4B1868FA6ADA
:101D600013465B0013449B0003444A1CC3F8052040
:101D7000294B1968FA6A13465B0013449B000B4415
:101D8000D3F80110244B1868FA6A13465B00134419
:101D90009B000344D3F80530994208D21B4B1A68C4
:101DA000BB681A443B6BD31A0133184A13600023F3
:101DB00087F837300CE0386800F040F90B2387F8DB
:101DC000373005E0386800F039F90A2387F83730F2
:101DD000FB6A0133FB62114B1B68FA6A9A4204D218
:101DE00097F83730092B3FF450AF7B6A3B613B6972
:101DF00083F3108800BF97F8373018463837BD4650
:101E000080BD00BF0C06002014060020180600202C
:101E10001C060020280600202406002020060020A2
:101E200080B58CB000AF7860012387F82F30002395
:101E300087F8273000233B620023FB610023BB614E
:101E40006C4B1B78002B03D10D2387F82F30CAE091
:101E50007B68002B03D1022387F82F30C3E07B6817
:101E600003F00303002B03D0072387F82F30BAE0D9
:101E7000614B1A68614B1B689B0013447A689A4255
:101E800004D85D4B1B687A689A4203D2082387F80E
:101E90002F30A8E0EFF310833B613B697B6172B6A2
:101EA00000BF7B68043BBB61BB691B681B0E87F8E6
:101EB0002730BB691B6823F07F43FB61FB6901335B
:101EC000FB614F4B9B68B869984797F82730002B08
:101ED00009D14C4B1A68FB69D31A4A4A1360002394
:101EE00087F82F3075E0092387F82F300023BB6275
:101EF00066E0454B1968BA6A13465B0013449B00C1
:101F00000B441B7897F827209A4256D13E4B19680C
:101F1000BA6A13465B0013449B000B44D3F80510C8
:101F2000394B1868BA6A13465B0013449B0003449C
:101F3000D3F80130CB1A3B623B6A002B24DD3B6AAD
:101F4000FA699A421AD9304B1968BA6A13465B008B
:101F500013449B000B44D3F801102B4B1868BA6A4A
:101F600013465B0013449B000344D3F80530CA1AA0
:101F7000244B1B681344234A136005E0214B1A6865
:101F8000FB69D31A1F4A13601F4B1968BA6A1346BC
:101F90005B0013449B000B44D3F805101A4B1868E0
:101FA000BA6A13465B0013449B000344FA698A1A19
:101FB000C3F80520002387F82F30BB6A0133BB62CA
:101FC000124B1B68BA6A9A4203D297F82F30092B3A
:101FD0008FD000F045F87B69FB60FB6883F31088C5
:101FE00000BFFEF76FFD97F82F3018463037BD461B
:101FF00080BD00BF0C060020100600201406002043
:1020000028060020180600202406002020060020B4
:1020100080B582B000AF00237B6000F041F87860AB
:102020007B68002B02D07B689B6898477B68002BFD
:10203000F3D100BF00BF0837BD4680BD80B582B078
:1020400000AF78607B68002B03D07968034809F003
:102050005FFA00BF0837BD4680BD00BF34060020D0
:1020600080B582B000AF00237B6009E03B1D1946BC
:10207000094809F094FA7B681946084809F048FABB
:10208000054809F0FDF90346002BEFD000BF00BF63
:102090000837BD4680BD00BF340600203C06002046
:1020A00080B582B000AF00237B60084809F0E8F9F2
:1020B0000346002B04D13B1D1946044809F06FFA72
:1020C0007B6818460837BD4680BD00BF3C0600202F
:1020D00080B400AF044B1B68C3F30B031846BD4626
:1020E0005DF8047B704700BF004004E080B400AF9F
:1020F000044B1B681B0C9BB21846BD465DF8047B65
:10210000704700BF004004E080B400AF034B1B6881
:102110001846BD465DF8047B704700BF000AF90B06
:1021200080B400AF034B1B68DBB21846BD465DF8B8
:10213000047B7047040AF90B80B400AF034B1B68A3
:102140001B0A1846BD465DF8047B7047040AF90B6C
:1021500080B400AF034B1B681846BD465DF8047B96
:10216000704700BF0007F90B80B400AF034B1B683A
:102170001846BD465DF8047B704700BF0407F90BA5
:1021800080B400AF034B1B681846BD465DF8047B66
:10219000704700BF0807F90B80B400AF044B1B6801
:1021A00003F01F031846BD465DF8047B704700BF6F
:1021B0000005F90B80B584B002AF344809F050F93E
:1021C000334A0021102005F065FD324A0021042029
:1021D00005F060FDFC2200212F48FEF7D3FB4FF4F1
:1021E000FC722D490020FEF714FC0020FEF71DFCB8
:1021F0000023009300230022FF210020FEF7DFFBD5
:10220000034613F1030F02D00320FEF7F8FB00F0A2
:10221000C7FA0346002B31D100F008FB09F0FAF9A8
:102220001E4B00221A761D4B4FF6FF72DA821C4AB3
:1022300000214FF4805005F02DFD00230093194B31
:1022400000220021184805F0DBFD00230093174B06
:1022500000220021164805F0D3FD03F0ADF803F08D
:1022600001FA062001F03BFA0346FB71012000F061
:10227000ABF94EF660210C4805F066FE074B0022D4
:1022800083F84C2000BF0837BD4680BD44060020BF
:10229000312F0008452B0008D006002074060020CE
:1022A0009B2F00086D2F000890060020872F000844
:1022B000A806002080B596B000AF7860972387F815
:1022C00057307B6801333B653B6D1B78FF2B00F07B
:1022D000F980FF2B00F365813E2B3FD03E2B00F3AE
:1022E0006081052B02D0102B34D05AE13B6D0233B4
:1022F000FB60FB68B3F801309AB2AD4BDB8A9A42BF
:1023000005D1AB4B0022DA82A94B00221A7600F0ED
:102310001AFEA84B01221A70A74B01221A70FB6803
:10232000B3F801309AB2A34B5A80FB68B3F801307E
:102330009AB2A14B5A809F4803F02AF89E4803F0B6
:102340007DF9012000F040F94EF660219B4805F030
:10235000FBFD27E13B6D02333B6123E13B6D023323
:102360003B633B6B1B78013B0B2B00F2A98001A266
:1023700052F823F049240008C1240008A5230008CE
:10238000C1240008C1240008C1240008C124000899
:10239000C1240008C1240008D1230008C12400087A
:1023A000C523000800233B623B6B0133FB61FB69E3
:1023B000B3F803309BB21A4640F2E24302FB03F348
:1023C0003B627EE03B6B0133FB6200F0BCFD78E0DA
:1023D0000023BB623B6B01337B627B6AB3F817302F
:1023E0009BB21A4640F2E24302FB03F3BB62704B1E
:1023F0001B7E012B03D16E4B03221A7602E06C4B3D
:1024000002221A767B6AB3F801309AB2684BDA82FC
:10241000684B00221A70684B00221A707B6AB3F86E
:1024200001309AB2634B5A807B6AB3F801309AB29A
:10243000614B5A805F4802F0ABFF5F4803F0FEF843
:102440005E4805F0ABFD3CE00023BB613B6B013314
:102450007B617B69B3F80B309BB21A4640F2E243D2
:1024600002FB03F3BB61524B1B7E012B03D1504B8C
:1024700003221A7602E04E4B02221A767B69B3F8E9
:1024800001309AB24A4BDA824A4B00221A704A4B08
:1024900000221A707B69B3F801309AB2454B5A801A
:1024A0007B69B3F801309AB2434B5A80414802F03D
:1024B0006FFF414803F0C2F8404805F06FFD00E0AF
:1024C00000BF6FE03B6D0233FB64FB6C1B889BB26B
:1024D000B3F5006F2AD0B3F5006F60DC40F20A421A
:1024E00093425CDCB3F5806F04DC042B26D0062B12
:1024F00051D054E0A3F20143092B50D801A252F865
:1025000023F000BF7D250008472500089F2500080F
:102510009F250008852500089F250008352500080F
:102520009F2500085F2500089F250008FB6C0233EB
:10253000BB6435E0FB6C02333B6431E0052120488D
:1025400005F002FD2CE01F4BFB63194BDB8AF96B96
:10255000184601F049F9034687F8573020E0012377
:1025600087F84730124BDB8A97F847201146184608
:1025700001F0A5F9034687F8573011E0FB6C0233F0
:10258000BB630DE00A4BDB8A184601F088F903466D
:1025900087F8573004E0FB6C02337B6300E000BF38
:1025A00000E000BF012318465837BD4680BD00BF7C
:1025B00074060020C4060020C806002090060020F3
:1025C000A806002007B2010090B595B008AF0346F9
:1025D000FB710023FB620023BB6200237B620023AC
:1025E0003B62FB79062B60D801A252F823F000BFB2
:1025F000312600080D260008472600081F2600087F
:102600005D260008AB260008632600088023FB62D5
:10261000A023BB6204237B6200233B6246E080234D
:10262000FB62A023BB6206237B6203233B623DE087
:102630004FF4C863FB624FF47A63BB6205237B628D
:1026400000233B6232E04FF4C863FB624FF47A63CD
:10265000BB6207237B6203233B6227E000237B628C
:1026600024E04FF44873FB624FF44873BB620023CD
:102670007B624FF4FA733B62474B93F84C30002B6C
:1026800008D0454B002283F84C202823FB622823E6
:10269000BB620BE0404B012283F84C204FF448739F
:1026A000FB624FF44873BB6200E000BFFB79062B6E
:1026B0006AD801A252F823F0D5260008D5260008D2
:1026C000D5260008D5260008372700084F27000820
:1026D000672700083B6AD8B2FB6A99B2BB6A9AB214
:1026E0000023069300230593002304930023039300
:1026F000002302930023019300230093002301F0A1
:102700000AF80346FB77FB7F002B03D17B6ADAB222
:10271000214B1A760A2001F0A6F80346FB771F4BDF
:102720003B611023FB73FB7B3969184601F089F884
:102730000346FB772BE000F0E2FF0346FB77FB7FCD
:10274000002B23D17B6ADAB2134B1A761EE0134BAF
:10275000BB611023FB75FB7DB969184601F071F868
:102760000346FB7713E00C4BD88AFB6A99B2BB6A2D
:102770009AB27B6A9CB23B6A9BB20093234601F0FB
:1027800024F90346FB7702E000BF00E000BF00BF72
:102790003437BD4690BD00BF740600205C000020A9
:1027A00080B582B000AF1E4B44221A821C4B082217
:1027B0005A821B4B4FF4A8629A82194B1E22DA757B
:1027C000174BFB225A83164B40229A77144BF82260
:1027D0009A83134B2022DA77114B02229A75104B01
:1027E0006F221A830E4B0F4A1A600D4B41F284522E
:1027F0005A600B4B0C4A9A60094B4FF48B52DA60CB
:10280000074B00221A84064B00225A6204481EF02D
:10281000B7FF0346FB71FB7918460837BD4680BDFC
:10282000A0350020BC0E002040240020F0B597B059
:1028300006AF0023FB840023BB8400237B8400239A
:102840003B84BA4A0121342000F01FFF034687F879
:102850003F3000F0ADF9B863BA6B0621002000F0FC
:1028600014FF034687F83F3000F036FA78637A6B3E
:102870001021182000F009FF034687F83F3000F0D0
:10288000BDFA38633A6B1021082000F0FEFE0346C3
:1028900087F83F301921012000F00CFF034687F82C
:1028A0003F3001F021F8034687F83F30002387F8D6
:1028B0002F3097F82F3043F0010387F82F3097F827
:1028C0002F30002B28D007F1260297F82F0007F1B0
:1028D0002203019307F124030093134606220021EB
:1028E00000F094FF034687F83F30F88CB98C904B8A
:1028F00000930623002201F049F8034687F83F3091
:10290000F88C798C07F1200300930223002201F058
:102910003DF8034687F83F3002220221002000F0F4
:102920009EFE034687F83F30824B01221A70814B8E
:102930001B78184600F01DFF034687F83F307D4B9B
:1029400001225A707B4B08221A717A4B10225A715D
:10295000784B0022DA70774B774A9A60754B0122E8
:102960009A70BA6B1021754800F01EFB714B9C7871
:10297000704B5D786F4B1B796E4A52796D49C978FF
:102980006C4880680026049603900291019200939F
:10299000002301222946204600F0FBFE034687F86B
:1029A0003F30644B9B78002B04D000F06CFF034653
:1029B00087F83F300023FB811623BB8519233B7426
:1029C000ED237B748223BB74AE23FB74ED233B7534
:1029D00021237B754C23BB759D23FB7541233B76DF
:1029E00045237B762223BB768E23FB7631233B77F0
:1029F000FE237B770023BB770023FB77F88CB98D10
:102A000007F1100207F10E0305930023049310232E
:102A100003930023029300230193022300930B46A8
:102A2000022100F089FF034687F83F30444BBB6228
:102A3000FFF74EFB0346DAB2414B1A70FFF748FB33
:102A400003461B0ADAB23E4B5A70FFF74FFB0346B0
:102A5000DAB23B4B9A70FFF749FB03461B0ADAB226
:102A6000374BDA70364B8B221A71FFF795FB034612
:102A7000DAB2334B5A71324B01229A71304B062233
:102A8000DA712F4B00221A722D4B00225A722C4BF6
:102A900000229A722A4B8322DA7200237B7300236E
:102AA0007B8100237B720023FB800023BB80BC1D45
:102AB00007F1090207F10A0107F10D003B1D009320
:102AC000234600F0B6FD7B89DAB21D4B1A737B8971
:102AD0001B0A9BB2DAB21A4B5A73194BFF229A7334
:102AE000174BFF22DA73164BFF221A74144BFF2286
:102AF0005A74134BFF229A74114BFF22DA74104B55
:102B0000FF221A750E4BFF225A75F88CF989BB8D7E
:102B1000DAB2BB6A00931346002200F037FF034687
:102B200087F83F3000BF4437BD46F0BD4C990208DE
:102B3000540000207406002007B201005C00002051
:102B4000C835002080B582B000AF00233B603B4613
:102B50001946164808F023FD3B680833184608F06C
:102B600089FD0346FB71FB79002B04D03B681846B6
:102B7000FFF756F904E03B6819460C4808F0A2FC40
:102B80000A4808F07DFC0346002B06D1FB79002B98
:102B900003D00021042005F09FF80021102005F04B
:102BA0009BF800BF0837BD4680BD00BF440600202B
:102BB00080B58AB000AF00237B61454A07F10C0362
:102BC00092E803001860043319803B1D062200219F
:102BD000184626F05DFE3F4B34221A703D4B122200
:102BE0005A703C4B2A229A703A4BE122DA70394BE8
:102BF00008221A71374B00225A713B1D06221946D2
:102C0000344826F035FE0346002B02D0314B7B6260
:102C100058E0FFF779FA38623B6AB3F1FF3F23D0FF
:102C2000FFF78AFAF861FFF77BFAB8613B6ADAB21C
:102C3000284B1A703B6A1B0ADAB2264B5A70BB69E2
:102C4000DAB2244B9A70FB69DAB2224BDA70FB6974
:102C50001B0ADAB21F4B1A71FB691B0CDAB21D4B4F
:102C60005A711C4B7B622DE007F1140319460020BA
:102C7000FDF752FF0346002B1AD17B691A7A154BD8
:102C80001A707B695A7A134B5A707B699A7A114B86
:102C90009A707B69DA7A0F4BDA707B691A7B0D4B7D
:102CA0001A717B695A7B0B4B5A710A4B7B6209E0A4
:102CB000084B07F10C0292E80300186004331980F6
:102CC000044B7B627B6A18462837BD4680BD00BF37
:102CD000249902084C06002090B591B000AF454BF6
:102CE00007F114040FCB84E80F00424B3C1D0FCBBF
:102CF00084E80F0007F1240310220021184626F073
:102D0000C7FD3D4B1C4607F114030FCB84E80F00B1
:102D100007F1240310221946374826F0A9FD03467F
:102D2000002B02D0344BFB635EE0FFF711FAB8636F
:102D3000FFF71AFA7863BB6BB3F1FF3F4CD07B6BA4
:102D4000B3F1FF3F48D0BB6BDAB22B4B1A722A4B60
:102D50001A7A294B1A70BB6B1B0ADAB2264B5A72CD
:102D6000254B5A7A244B5A70BB6B1B0CDAB2224BA0
:102D70009A72214B9A7A204B9A70BB6B1B0EDAB277
:102D80001D4BDA721C4BDA7A1B4BDA707B6BDAB2B2
:102D9000194B1A73184B1A7B174B1A717B6B1B0A52
:102DA000DAB2154B5A73144B5A7B134B5A717B6B27
:102DB0001B0CDAB2104B9A730F4B9A7B0E4B9A7125
:102DC0007B6B1B0EDAB20C4BDA730B4BDA7B0A4BC4
:102DD000DA71094BFB6307E0074B1C463B1D0FCB29
:102DE00084E80F00044BFB63FB6B18464437BD4679
:102DF00090BD00BF2C9902085406002090B591B0F8
:102E000000AF494B07F114040FCB84E80F00464B89
:102E10003C1D0FCB84E80F0007F124031022002192
:102E2000184626F035FD414B1C4607F114030FCB25
:102E300084E80F0007F12403102219463B4826F0CE
:102E400017FD0346002B02D0384BFB6366E0FFF70B
:102E50008BF9B863FFF794F97863BB6BB3F1FF3F6D
:102E600054D07B6BB3F1FF3F50D07B6BDAB22F4B6A
:102E70001A722E4B1A7A2D4B1A707B6B1B0ADAB220
:102E80002A4B5A72294B5A7A284B5A707B6B1B0C6F
:102E9000DAB2264B9A72254B9A7A244B9A707B6B46
:102EA0001B0EDAB2214BDA72204BDA7A1F4BDA7042
:102EB000BB6BDBB2DB43DAB21C4B1A731B4B1A7BC6
:102EC0001A4B1A71BB6B1B0ADBB2DB43DAB2174B2E
:102ED0005A73164B5A7B154B5A71BB6B1B0CDBB2EA
:102EE000DB43DAB2114B9A73104B9A7B0F4B9A71FA
:102EF000BB6B1B0EDBB2DB43DAB20C4BDA730B4B52
:102F0000DA7B0A4BDA71094BFB6307E0074B1C467F
:102F10003B1D0FCB84E80F00044BFB63FB6B184693
:102F20004437BD4690BD00BF3C99020864060020AE
:102F300080B500AF1EF086FC0346002B01D101F0E6
:102F400029F900BF80BD80B500AF012004F0F0FE7C
:102F500000BF80BD80B582B000AF0F233B713879D0
:102F60000CF067FF00BF0837BD4680BD80B582B05A
:102F700000AF786000214FF4805004F0ADFE00BF38
:102F80000837BD4680BD80B483B000AF786000BF15
:102F90000C37BD465DF8047B704780B500AF042058
:102FA000FFF712FB00BF80BD80B487B000AFF860B0
:102FB0000B467A60FB720023FB82D8E0FB8AFA683A
:102FC00013441B787B75FB8A0133FA6813441B7822
:102FD0003B753B7DFF2B5CD0FF2B00F3BA800A2BA7
:102FE00000F0B9800A2B00F3B480012B00F0B5800B
:102FF000092B00D0ADE0FA8A7B7D13441A46FB68AA
:1030000013441B78582B40F0AA80FA8A7B7D134426
:10301000013BFA6813441B78582B40F0A0807B6872
:103020001B781B09FB747B681B7803F00F03BB74D0
:10303000FB7C092B0AD9FA8A7B7D1344013BFA6891
:103040001344FA7C3732D2B21A7009E0FA8A7B7DD7
:103050001344013BFA681344FA7C3032D2B21A703E
:10306000BB7C092B0AD9FA8A7B7D13441A46FB687C
:103070001344BA7C3732D2B21A7070E0FA8A7B7D80
:1030800013441A46FB681344BA7C3032D2B21A7029
:1030900065E0FB8A0233FA68134430221A70FB8A17
:1030A0000333FA68134400221A70FB8A0433FA6867
:1030B000134402221A70FB8A0533FA6813448B22E8
:1030C0001A70FB8A0633FA68134483221A70FB8A4B
:1030D0000733FA68134400221A70FB8A0833FA682F
:1030E000134400221A70FB8A0933FA681344002241
:1030F0001A707B685A1DFB8A0A33F9680B441278F0
:103100001A707B681A1DFB8A0B33F9680B4412781E
:103110001A707B68DA1CFB8A0C33F9680B4412784E
:103120001A707B689A1CFB8A0D33F9680B4412787D
:103130001A707B685A1CFB8A0E33F9680B441278AC
:103140001A70FB8A0F33FA6813447A6812781A707F
:1031500006E000BF04E000BF02E000BF00E000BFE7
:103160007B7D9AB2FB8A13449BB20133FB82FB7ACC
:103170009BB2FA8A9A42FFF421AF00BF00BF1C370E
:10318000BD465DF8047B704780B586B000AFF8603F
:103190007A601A460B467B8113463B819123FB756F
:1031A00000233B617A893B891344BB82FB681B780F
:1031B000042B38D1214B224A9A60BB8A0B339908E1
:1031C00007F110021D4B0220FEF7E8FC0346002B1E
:1031D00002D09123FB752CE03B69002B29D03B6981
:1031E00004221A72FB685A1C3B6912785A72FB68F7
:1031F0009A1C3B6912789A723B6903F10B00FB68D9
:10320000D91CFB6802331B781A461BF097FD3B69FB
:1032100019460C4808F07CF90021042004F05CFDFC
:103220000023FB7505E0FB681B78022B01D100230E
:10323000FB75FB7D18461837BD4680BDB00E0020DB
:10324000552F00084406002080B483B000AF034629
:10325000FB7100BF0C37BD465DF8047B704780B43E
:1032600083B000AF0346FB7100BF0C37BD465DF86D
:10327000047B704780B400AF054B1B68044A23F4FD
:103280008073136000BFBD465DF8047B704700BFCC
:10329000000C024680B400AF064BD3F8F430054A68
:1032A00043F40003C2F8F43000BFBD465DF8047B70
:1032B000704700BF000C024680B500AF00F052F826
:1032C00000BF80BD80B582B000AF78600020FFF7FE
:1032D000BBFF00F061F800F073F808F0CDFA00F0E1
:1032E000ADF800F079F800F085F800F09BF8174B86
:1032F0001B884FF6FF72934211D0144B1B88002B92
:103300000BD0124B1B889B0223F4FF5323F01F03A7
:1033100003F1FF6303F5F82302E00D4B00E00C4BD3
:10332000184602F051FB0346002B01D001F0E4FEE9
:10333000FEF740FF0121022000F08CFD0020FFF786
:103340008EFF002318460837BD4680BDA007F90B45
:1033500000C00F0880B500AF4FF0FF3004F018FB3D
:1033600000BF80BD80B582B000AF00237B603B1DF5
:1033700019460020FDF7D0FB0346002B03D00C209C
:1033800007F0F0F804E07B689B7B184607F0EAF84A
:1033900000BF0837BD4680BD80B500AFFFF77AFF9C
:1033A00004F01EFD044805F0D3FFFDF7EBFE034BD0
:1033B00001221A7000BF80BD40000030DE350020C1
:1033C00080B500AFFDF78DFBFDF7C5FB01210120A6
:1033D000FDF7D3FB00BF80BD80B500AF01F0F6F86C
:1033E000034A0021012004F055FC00BF80BD00BF4E
:1033F0002546000880B500AF094A00214FF48070CF
:1034000004F048FC0121012000F024FD00210220ED
:1034100000F020FD0021002000F01CFD00BF80BD59
:10342000470B000880B500AF034A0021402004F09C
:1034300031FC00BF80BD00BF2507000880B500AF8C
:103440000748FEF75BFA0346002B01D001F054FE5B
:10345000044A0021202004F01DFC00BF80BD00BFF5
:103460007C0000201120000880B500AF0021012061
:1034700004F032FC00BF80BD80B500AF00214FF4E6
:10348000807004F029FC00BF80BD80B500AFFFF75D
:10349000F1FE00BF80BD000080B500AF044807F01A
:1034A000DFFF044A0021802004F0F4FB00BF80BD50
:1034B000984500209D35000880B586B002AF0346D0
:1034C0003960FB80FB88184600F048F80023FB6059
:1034D00007F10C02002309210120FEF75FFB0346E0
:1034E000002B01D0642331E0FB68FA881A81FB6865
:1034F0001946184808F00CF8FB6803F10C00FB684B
:103500000093154B0022396804F07AFC0346002B27
:1035100009D0FB68184608F021F8FB681846FEF74A
:103520007FFC912312E0FB680C33184604F09EFCEC
:103530000346002B09D0FB68184608F00FF8FB681B
:103540001846FEF76DFC912300E000231846103763
:10355000BD4680BD98450020CD35000880B584B0BB
:1035600000AF0346FB80FB8819460B4800F040F88B
:10357000F860FB68002B0AD0FB680C33184604F097
:103580000DFDF86807F0EAFFF868FEF749FC00BF98
:103590001037BD4680BD00BF9845002080B500AF04
:1035A000094B1B681B8918461EF058F900F0F2FD04
:1035B000054B1B68184607F0D1FF034B1B681846E4
:1035C000FEF72EFC00BF80BDA045002080B582B074
:1035D00000AF7860054A7B6813600021802004F00A
:1035E0007BFB00BF0837BD4680BD00BFA045002063
:1035F00080B584B000AF78600B467B807B681B6829
:10360000FB600DE0FB681B897A889A4201D1FB6858
:103610000BE0FB6807F10C021146184607F0DEFFCD
:10362000FB687A689A42EDD1002318461037BD46F0
:1036300080BD80B588B002AFF860B9607A603B6049
:103640003B6A00933B687A68B968F8681EF0EBFC47
:103650000346FB75FB7D18461837BD4680BD80B517
:1036600084B000AF0346FB710B46BB7113467B7100
:103670007A79B979FB7918461EF0F2FC0346FB73A0
:10368000FB7B18461037BD4680BD80B584B000AFC7
:1036900003463A60FB710B46BB71B979FB793A6816
:1036A00018461EF00DFD0346FB73FB7B18461037D2
:1036B000BD4680BD80B584B000AF03460A46FB71AD
:1036C0001346BB71BA79FB79114618461EF008FD06
:1036D0000346FB73FB7B18461037BD4680BD80B5A3
:1036E00084B000AF0346FB80FB8818461EF040FD07
:1036F0000346FB73FB7B18461037BD4680BD80B583
:1037000082B000AF1FF08AFB0346FB71FB791846BD
:103710000837BD4680BD90B58DB008AF0446084659
:1037200011461A462346FB710346BB800B467B803D
:103730001346BB71BC797A88B988F8793B8F0693B8
:10374000BB8E05933B6B049397F82C300393BB6AB5
:10375000029397F82430019397F820300093234682
:103760001FF062FA0346FB73FB7B18461437BD4615
:1037700090BD80B584B000AF0346FB71FB7918465D
:1037800023F080FF0346FB73FB7B18461037BD46D2
:1037900080BD90B58BB006AF0446084611461A4668
:1037A0002346FB710346BB710B467B7113463B718D
:1037B0003C797A79B979F87997F830300493FB6AD3
:1037C000039397F82830029397F82430019397F8E1
:1037D00020300093234623F05FFF0346FB73FB7BFF
:1037E00018461437BD4690BD80B584B000AF03467F
:1037F0003960FB80FB883968184624F0F3FE0346E5
:10380000FB73FB7B18461037BD4680BD80B586B084
:1038100002AF3B600346FB710B46BB7113467B71E5
:103820007A79B979F879FB690193BB6900933B68B0
:103830001FF06EF80346FB73FB7B18461037BD463E
:1038400080BD80B584B000AF03463960FB71FB7961
:10385000396818461FF01AFA0346FB73FB7B1846BB
:103860001037BD4680BD80B584B000AF0346FB7104
:10387000FB7918461FF092FA0346FB73FB7B184650
:103880001037BD4680BD80B582B000AF1FF032FB5F
:103890000346FB71FB7918460837BD4680BD80B5ED
:1038A00084B000AF0346FB80FB88184624F0B8FEC6
:1038B0000346FB73FB7B18461037BD4680BD80B5C1
:1038C00084B000AF03460A46FB8013467B717A79C9
:1038D000FB881146184625F001FE0346FB73FB7B6F
:1038E00018461037BD4680BD80B582B000AF20F0CD
:1038F0002DF80346FB71FB7918460837BD4680BD9D
:1039000080B586B002AF396011461A460346FB7196
:103910000B46BB7113467B717979BA79F879BB692B
:1039200000930B46396820F06FF80346FB73FB7B6E
:1039300018461037BD4680BD80B58CB006AFBA6062
:103940001A460346FB810B467B731346FB80FA88BD
:10395000797BF8897B6B059397F83030049397F85F
:103960002C30039397F82830029397F82430019372
:1039700097F8203000931346BA6820F017FC0346EE
:10398000FB75FB7D18461837BD4680BD90B587B0E6
:1039900002AF0446084611461A462346FB800346FA
:1039A000BB800B46FB701346BB70BC78FA78B988B5
:1039B000F8883B6A0093234620F04AFA0346FB73DB
:1039C000FB7B18461437BD4690BD90B587B002AF5B
:1039D0000446084611461A462346FB800346BB8030
:1039E0000B467B8013463B803C887A88B988F888F0
:1039F0003B8C0093234622F0FAFD0346FB73FB7BCE
:103A000018461437BD4690BD80B500AFFCF750FE98
:103A1000FCF781FEFFF740FD00BF80BD80B586B09A
:103A200002AFB9607B600346FB731346BB81BA8962
:103A3000F87B3B8B00937B68B968FCF7B0FF0346CB
:103A400018461037BD4680BD80B584B002AF3B60DC
:103A50000346FB710B46BB711346BB80BA88B9792C
:103A6000F8793B8A00933B68FCF7A9FF03461846A8
:103A70000837BD4680BD80B582B000AF03463960CF
:103A8000FB801346BB80BA88FB8839681846FCF770
:103A9000A7FF034618460837BD4680BD80B582B0F3
:103AA00000AF0346FB71FB791846FCF7A8FF00BF87
:103AB0000837BD4680BD80B582B000AF034639608F
:103AC000FB71FB7939681846FCF7C8FD00BF083761
:103AD000BD4680BD80B584B000AFF860B9607A6043
:103AE00001237A68B968F868FCF7E9FD00BF103770
:103AF000BD4680BD80B582B000AF78607868FCF7C5
:103B0000EEFD00BF0837BD4680BD80B584B000AF74
:103B1000F860B9607A607A68B968F868FCF7E9FD1E
:103B200000BF1037BD4680BD80B582B000AF786061
:103B30007868FCF7FEFD034618460837BD4680BD91
:103B400080B582B000AF7860396039687868FCF77A
:103B5000FBFD034618460837BD4680BD80B582B0E0
:103B600000AF03463960FB80FB8839681846FFF7D1
:103B7000A3FC034618460837BD4680BD80B582B019
:103B800000AF0346FB80FB881846FFF7E7FC00BF49
:103B90000837BD4680BD000080B584B000AF7860B6
:103BA0000823FB737B68002B02D10623FB731FE005
:103BB0007B681B7A012B02D10323FB7318E000F012
:103BC00039F90346FB73FB7B002B11D10B4B1B68B0
:103BD00001330A4A1360094B1A687B681A607B68D4
:103BE0009A697B685A607B6801221A7200F02AF990
:103BF000FB7B18461037BD4680BD00BFA84500209E
:103C000080B586B000AFF860B9607A603B60082389
:103C1000FB750023BB75FB68002B05D0BB68002B30
:103C200002D03B68002B02D10623FB7539E0FB680C
:103C30001B7A002B02D10423FB7532E0FB681A6863
:103C40001A4B1B689A4203D8FB681B68002B02D1F1
:103C50000523FB7525E000F0EDF80346FB75FB7DC1
:103C6000002B1ED1FB681A68114B1B689A4204D0C6
:103C7000F86800F08BF80346BB75BB7D002B0CD1B8
:103C80007A68B9680B4804F0E2FE02463B681A60A5
:103C90003B681A68FB685A6001E00723FB7500F077
:103CA000D1F8FB7D18461837BD4680BDA8450020D9
:103CB000A44500208C00002080B586B000AFF860DD
:103CC000B9607A603B600823FB75FB68002B05D068
:103CD000BB68002B02D03B68002B02D10623FB758A
:103CE00049E0FB681B7A002B02D10423FB7542E0FC
:103CF000FB681A68224B1B689A4203D8FB681B6852
:103D0000002B02D10523FB7535E000F093F8034644
:103D1000FB75FB7D002B2ED1FB681A68194B1B68C5
:103D20009A420CD17A68B968174804F04CFE0246F2
:103D30003B681A603B681A68FB685A6019E0F868CB
:103D400000F024F80346002B11D10F4B1B68FA68D2
:103D500052681A617A68B9680B4804F078FE024626
:103D60003B681A603B681A68FB685A6001E00723E9
:103D7000FB7500F067F8FB7D18461837BD4680BD1F
:103D8000A8450020A44500208C00002080B584B008
:103D900000AF78600023FB73234B5B7FDBB2002B0B
:103DA00004D0214804F0E2FD0346FB73FB7B002BAB
:103DB00034D17B685B691C4AD3607B685A7B1A4BA1
:103DC0005A717B681A7B184B1A717B681B69164AFB
:103DD00093607B689B69144A13617B68DB69124AB4
:103DE00053617B681B6A104A93617B685B6A0E4A69
:103DF00013620D4804F056FD0346FB73FB7B002B5A
:103E000004D17B681B68094A136007E0182200216F
:103E1000074825F03DFD044B00221A62FB7B184643
:103E20001037BD4680BD00BF8C000020A445002097
:103E30009000002080B400AF00231846BD465DF816
:103E4000047B704780B400AF00231846BD465DF880
:103E5000047B704780B487B000AF78600B46FB707E
:103E6000EFF310833B613B697B6172B600BFFB7867
:103E7000002B0AD0012B13D101227B689A400F4BF3
:103E80001B6813430D4A13600BE001227B6802FAA2
:103E900003F3DA43094B1B681340084A136000E040
:103EA00000BF7B69FB60FB6883F3108800BF00BF25
:103EB0001C37BD465DF8047B704700BFAC45002051
:103EC00080B586B000AFF860B9607A603B60BB68CF
:103ED000B3F1006F31D32F4B1B884FF6FF72934223
:103EE0000CD02C4B1B88002B05D02A4B1B889B0227
:103EF00003F1006304E04FF0016301E04FF0016360
:103F0000BA68934219D3BA687B681A44214B1B885C
:103F10004FF6FF718B420CD01E4B1B88002B05D037
:103F20001C4B1B889B0203F1006304E04FF001630C
:103F300001E04FF00163934201D2022325E0FB68C8
:103F400003F00303002B04D1BB6803F00F03002B25
:103F500001D0022319E0386800F080F80346FB75B1
:103F6000FB7D002B10D10C4AFB6813600A4ABB682A
:103F70005360094A7B689360084B00221A70084B13
:103F800000221A70FFF778FAFB7D18461837BD46F5
:103F900080BD00BFA007F90BC8450020C445002024
:103FA000DC45002080B586B000AFF860B9607A606B
:103FB000264B1B884FF6FF7293420AD0234B1B8877
:103FC000002B04D0214B1B889B025B0B02E080235B
:103FD00000E08023FA68934216D3FA68BB681A445B
:103FE0001A4B1B884FF6FF718B420AD0174B1B8868
:103FF000002B04D0154B1B889B025B0B02E0802337
:1040000000E08023934201D202231BE0BB68002B17
:1040100001D1022316E0786800F020F80346FB7512
:10402000FB7D002B0DD10A4AFB68D360084ABB68B0
:104030001361084B01221A70074B00221A70FFF718
:104040001BFAFB7D18461837BD4680BDA007F90B4B
:10405000C8450020C4450020DC45002080B58CB058
:1040600000AF7860002387F82F30022387F82E30C6
:10407000EFF31083FB61FB69BB6272B600BF3D4B7F
:104080001B7883F00103DBB2002B05D03A4807F020
:10409000E7F9384B01221A70384B1B7883F0010383
:1040A000DBB2002B14D0364B1B7883F00103DBB25C
:1040B000002B09D0314B01221A70314B01221A70AA
:1040C000012387F82F3006E0002387F82F3002E025
:1040D000002387F82F30BB6ABB61BB6983F310886C
:1040E00000BF97F82F3083F00103DBB2002B0FD015
:1040F0007B68002B08D07B689B68002B04D07B6812
:1041000019461D4807F004FA012387F82E302BE0EA
:104110007B68002B15D07B689B68002B11D0EFF3D8
:1041200010833B613B697B6272B600BF7B689B6812
:10413000144A13607B6A7B617B6983F3108800BF3C
:104140000FE0EFF31083BB60BB683B6272B600BF49
:104150000C4B00221A603B6AFB60FB6883F31088FB
:1041600000BF002387F82E3097F82E3018463037DE
:10417000BD4680BDBC450020B4450020B0450020B0
:10418000B1450020C045002080B500AF00F002F826
:1041900000BF80BD80B500AF074B1B78002B05D05A
:1041A000054B00221A7003201CF041FD0021102055
:1041B00003F092FD00BF80BDFC05002080B400AF7D
:1041C000054B1B68044A43F48073136000BFBD466F
:1041D0005DF8047B704700BF000C024680B400AF5E
:1041E000074B1B6803F48063B3F5806F01D1012393
:1041F00000E000231846BD465DF8047B704700BF11
:10420000000C024680B485B000AF78600A4BD3F84A
:104210008C2009497B681343C1F88C30064BD3F8D6
:104220008C207B681340FB60FB6800BF1437BD46E1
:104230005DF8047B704700BF000C024680B483B079
:1042400000AF7860074BD3F88C207B68DB430549CF
:104250001340C1F88C3000BF0C37BD465DF8047BBD
:10426000704700BF000C024680B483B000AF786096
:104270007B681B6843F004027B681A6000BF0C3740
:10428000BD465DF8047B704780B483B000AF7860B2
:104290007B681B6823F004027B681A6000BF0C3740
:1042A000BD465DF8047B704780B483B000AF786092
:1042B0007B685B6803F00103012B01D1012300E05F
:1042C000002318460C37BD465DF8047B704780B468
:1042D00083B000AF78607B685B6803F00203022B59
:1042E00001D1012300E0002318460C37BD465DF8DC
:1042F000047B704780B483B000AF78607B685B68F4
:1043000003F04003402B01D1012300E000231846B5
:104310000C37BD465DF8047B704780B483B000AFB6
:1043200078607B686FF020025A6000BF0C37BD4692
:104330005DF8047B704780B483B000AF78607B6821
:104340006FF040025A6000BF0C37BD465DF8047B39
:10435000704780B483B000AF78607B689B68184674
:104360000C37BD465DF8047B704780B500AFFFF7A2
:1043700025FF01E0FFF722FFFFF730FF0346002B88
:10438000F8D000BF00BF80BD80B500AF0420FCF7AF
:1043900055FC0548FFF778FF012000F035F80420B0
:1043A000FCF757FC00BF80BD00080C4280B586B00A
:1043B00000AF0346FB71134B7B61FFF7D6FFEFF3B2
:1043C0001083FB60FB683B6172B600BF7B6993F8AA
:1043D0008230002B03D14FF48020FFF713FF7B695D
:1043E00093F88220FB791343DAB27B6983F8822049
:1043F0003B69BB60BB6883F3108800BF00BF183700
:10440000BD4680BDE045002080B58AB000AF0346C0
:10441000FB71204B7B62EFF310837B617B693B6216
:1044200072B600BF7B6A93F882305AB297F90730B0
:10443000DB435BB213405BB2DAB27B6A83F8822063
:104440003B6ABB61BB6983F3108800BF7B6A93F84A
:104450008230002B01D100F01FF8EFF310833B6195
:104460003B69FB6172B600BF7B6A93F88230002B18
:1044700003D14FF48020FFF7E1FEFB69FB60FB688E
:1044800083F3108800BFFFF700F800BF2837BD4650
:1044900080BD00BFE045002080B483B000AFB223F0
:1044A0007B6002E07B68013B7B607B68002BF9D17D
:1044B00000BF00BF0C37BD465DF8047B70470000AD
:1044C00090B589B000AF78600023BB617B6893F83A
:1044D0008130002B10D10320FCF7B0FB0120FFF747
:1044E00065FF3948FFF7C0FE0320FCF7B2FB7B688D
:1044F000012283F8812062E03348FFF7E8FE03469B
:10450000002B06D03048FFF708FF40F20113BB61D3
:1045100055E02D48FFF7EEFE0346002B12D02A4847
:10452000FFF709FF0C23FB6105E02748FFF711FFA8
:10453000FB69013BFB61FB69002BF6DC4FF48173E7
:10454000BB613CE07B6893F880301F2B31D8EFF3E0
:1045500010833B613B697B6172B600BF0520FCF7AD
:104560006DFB12E07B6893F880301C461648FFF71D
:10457000F0FE02467B6843F824207B6893F8803085
:104580000133DAB27B6883F880207B6893F880304F
:104590001F2B05D80C48FFF787FE0346002BE1D1FF
:1045A0000520FCF756FB7B69FB60FB6883F31088F2
:1045B00005E0FFF7E9FE7B68002283F88120BB69F4
:1045C00018462437BD4690BD00080C4280B582B025
:1045D00000AF134B7B607B68002283F880207B68F0
:1045E000002283F881207B680022C3F884207B6846
:1045F000002283F882207868FFF762FF02467B681A
:10460000C3F884207B6893F88130002B04D07B684A
:10461000D3F88430002BEED000BF0837BD4680BDF4
:10462000E045002080B586B000AF1F4B3B61002302
:104630007B613B6993F88130002B04D13B6993F88F
:1046400080301F2B25D8EFF310837B607B68FB60E5
:1046500072B600BF3B69D3F884307B613B690022AE
:10466000C3F88420FB68BB60BB6883F3108800BF7D
:104670007B69002B0DD13869FFF722FF78617B69D8
:10468000002B06D13B6993F88130002B01D0012328
:104690007B617B69002B01D0FEF7E6FE7B69184643
:1046A0001837BD4680BD00BFE045002080B483B010
:1046B00000AF0346FB7197F90730002B0EDB0B4A66
:1046C00097F907305B09803352F82320FB7903F018
:1046D0001F0322FA03F303F0010300E0002318464E
:1046E0000C37BD465DF8047B704700BF00E100E079
:1046F00080B483B000AF03463960FB7197F907308F
:10470000002B0ADB3B68DAB20C4997F9073012013B
:10471000D2B20B4483F800230AE03B68DAB20849BE
:10472000FB7903F00F03043B1201D2B20B441A765B
:1047300000BF0C37BD465DF8047B704700E100E028
:1047400000ED00E080B400AF044BD3F8F03003F488
:1047500040231846BD465DF8047B7047000C0246B6
:1047600080B400AF074BDB6803F40043B3F5004FA0
:1047700001D1012300E000231846BD465DF8047B0B
:10478000704700BF0008024680B582B000AF00232A
:104790007B60FFF7D7FF7860094BD3F89830084A61
:1047A00043F00103C2F89830054BD3F8983003F07A
:1047B00001033B603B6800BF0837BD4680BD00BFBA
:1047C000000C024680B500AF084B1B78012B0AD1C4
:1047D000064B00221A7000BF15F0F4FD0246044B90
:1047E0001B689A42F8D000BF80BD00BF89460020F8
:1047F0008C46002080B582B000AF0346FB71FB7988
:10480000002B04D001F066F805F0C4FE01E005F0CD
:10481000D3FE00BF0837BD4680BD80B584B000AF71
:10482000786039603B68FB6011E00023BB6007F1F2
:10483000080319460120FBF711FF3A68FB68D31AF9
:104840007A681344BA681A60FB68043BFB60FB6833
:10485000032BEAD8FB68002B12D00023BB6007F1C2
:10486000080319460120FBF7F9FE3A68FB68D31AE2
:104870007A68134407F10801FA68184625F039F8F8
:1048800000BF1037BD4680BD80B582B000AF7860F4
:10489000074A7B68136000220021422003F040FF9A
:1048A000422003F05AFF00BF0837BD4680BD00BF5D
:1048B0006846002080B582B000AF7860074A7B6808
:1048C000136000220F213D2003F02AFF3D2003F05A
:1048D00044FF00BF0837BD4680BD00BF6C460020C6
:1048E00080B584B000AF0346FB710523FB733D2008
:1048F000FFF7DCFE0346002B0BD1FB79002B01D127
:104900000F23FB73FB7B002219463D2003F008FFB9
:1049100005E0FB79002B02D0044B01221A703D20E8
:1049200003F05AFF00BF1037BD4680BD8846002007
:1049300080B483B000AF0E4B1B68002B03DD0C4B23
:104940001B68013B00E00023094A1360084B1B6809
:10495000002B06D1074B1B687B607B6883F31088B4
:1049600000BF00BF0C37BD465DF8047B704700BF39
:10497000804600207046002080B483B000AF0B4B0F
:104980001B68002B05D1EFF310837B607B68084A1E
:10499000136072B600BF054B1B680133034A1360F6
:1049A00000BF0C37BD465DF8047B70478046002091
:1049B0007046002080B584B000AF0346FB71FB79E0
:1049C00003F00103002B0BD01A4B1B68013B194A63
:1049D0001360184B1B68002B02D1422003F0BDFE70
:1049E000FB7903F00203002B0BD0134B1B68013B38
:1049F000114A1360104B1B68002B02D13D2003F0BD
:104A0000ACFEFB7903F00403002B0FD00B4B1B68AB
:104A1000013B0A4A1360094B1B68002B06D1084B67
:104A20001B68FB60FB6883F3118800BF00BF103771
:104A3000BD4680BD74460020784600207C4600209C
:104A40008446002080B584B000AF0346FB71FB793B
:104A500003F00103002B0BD01D4B1B6801331C4AD4
:104A600013601B4B1B68012B02D1422003F083FE15
:104A7000FB7903F00203002B0BD0164B1B680133AC
:104A8000144A1360134B1B68012B02D13D2003F025
:104A900072FEFB7903F00403002B14D00E4B1B684D
:104AA00001330D4A13600C4B1B68012B0BD1EFF344
:104AB0001183BB60BB68094A13605023FB60FB682D
:104AC00083F3128800BF00BF1037BD4680BD00BF12
:104AD00074460020784600207C4600208446002052
:104AE00080B500AF084BD3F8C030074A43F001034C
:104AF000C2F8C03000214220FFF7FAFD012000F08B
:104B0000C7FE00BF80BD00BF000C024680B500AFED
:104B1000084BD3F8C030074A23F00103C2F8C03075
:104B200005214220FFF7E4FD002000F0B1FE00BFA8
:104B300080BD00BF000C024680B500AF02F048FD0A
:104B400001210820FCF70EF802210220FBF7D0FF1C
:104B500000BFFFF705FE0346002BFAD000BF00BFE1
:104B600080BD80B500AF02F011FD00210820FBF7E9
:104B7000F9FF01210220FBF7BBFF00BFFFF7F0FDAB
:104B80000346002BFAD000BF00BF80BD80B400AF49
:104B9000044BD3F8F03003F440231846BD465DF8CB
:104BA000047B7047000C024680B400AF044B1B68C6
:104BB0001B0C9BB21846BD465DF8047B704700BFD6
:104BC000004004E080B500AF034A0021022003F05A
:104BD00061F800BF80BD00BFA908000880B500AF24
:104BE0000021022003F078F800BF80BD80B500AF3F
:104BF0000021022003F070F800BF80BD80B500AF37
:104C0000012101201AF0BAFA00F03DF800F008F88E
:104C10001AF0BAFA00201AF0B5FA00BF80BD000001
:104C200080B500AF034A0021082003F033F800BF2D
:104C300080BD00BFB5B8000880B584B000AF0023C8
:104C4000FB73FFF7B1FFB860FFF7A0FF78607B68E8
:104C5000B3F5802F10D1BB68B3F5805F02D100237C
:104C6000FB730BE0BB68B3F5005F02D10023FB735D
:104C700004E00023FB7301E00023FB73FB7B184679
:104C80001037BD4680BD80B582B000AF00237B8069
:104C900000237B60FFF77AFF78607B68B3F5402FD5
:104CA00018D07B68B3F5402F18D87B68B3F5002F78
:104CB0000DD07B68B3F5002F10D87B68002B0CD08B
:104CC0007B68B3F5802F09D102237B6006E00123C6
:104CD0007B6003E000237B6000E000BF7B68DBB209
:104CE000BA1C114618461AF04BFA00BF0837BD46E9
:104CF00080BD80B582B000AF00237B710D23FB71B6
:104D00000A23BB71FFF7BFFFFFF796FF03467B71D6
:104D10007B7918460BF00EF8FFF738FF0346B3F522
:104D2000002F06D1FB790933FB71BB790333BB71CB
:104D300005E0FB790633FB71BB790433BB71FB796A
:104D40000D2B02D1BB790A2B05D0BA79FB7911461C
:104D5000184615F02EFB00BF0837BD4680BD000089
:104D600080B483B000AF0346FB71044AFB79137033
:104D700000BF0C37BD465DF8047B7047E04600205D
:104D800080B584B000AF0023FB7300233B7103F0B8
:104D9000EBFAFEF791FA00F03BF800F09BF800F018
:104DA00065F900F0C7F800F0F1F800F0D7F800F06E
:104DB000ADF800224FF48051134804F07FF9002031
:104DC000FEF780FAFEF7C6FAFB7B0133FB73FB7B31
:104DD000642B01D90023FB73FB7B3B71BB683A1D3D
:104DE0001A60BB6801221A71B968002000F090FABD
:104DF000064B1B781A464FF48051034804F05EF9C5
:104E0000642003F06FFBDDE700040242E04600206F
:104E100080B598B000AF07F120034022002118466A
:104E200024F036FD3B4620220021184624F030FDB8
:104E3000002004F029FB4FF4803004F0C7FA034649
:104E4000002B01D000F058F90B233B624FF4803364
:104E50007B620023BB624FF480733B6310237B6350
:104E60004FF08063BB630023FB6300233B6407F1C7
:104E70002003184604F06EFB0346002B01D000F01F
:104E80003BF93F233B6002237B600023BB60002390
:104E9000FB6040233B6100237B610023BB61002357
:104EA000FB613B460021184604F064FF0346002BDB
:104EB00001D000F021F9002003F09CFC0E2003F04B
:104EC00073FA0346002B01D000F016F900BF6037DB
:104ED000BD4680BD80B592B000AF3B464822002160
:104EE000184624F0D5FC4FF400433B604FF40023F8
:104EF0007B643B46184605F029F90346002B01D098
:104F000000F0FAF800BF4837BD4680BD80B500AF5D
:104F1000002004F0EBF80346002B01D000F0ECF881
:104F200004F004F90346002B01D000F0E5F800BFBF
:104F300080BD000080B500AF064B074A1A600548E7
:104F400004F0EEFA0346002B01D000F0D5F800BFC4
:104F500080BD00BF904600200060024080B500AFD9
:104F6000084B094A1A60074B20225A60054805F091
:104F700035FB0346002B01D000F0BEF8FFF704FA22
:104F800000BF80BD9C46002000080C4280B594B054
:104F900000AF07F1340300221A605A609A60DA60A9
:104FA0001A615A619A613B1D30220021184624F093
:104FB0006FFC2C4B2C4A1A602A4B1F229A60294BFB
:104FC00000221A61274B00225A61264B00229A6167
:104FD000244B4FF08042DA61224B00221A62214BAF
:104FE0004FF480725A621F4805F010FC0346002BF4
:104FF00001D000F081F800237B6300233B64002391
:105000007B640023BB6407F134031946154805F09F
:105010002BFF0346002B01D000F06EF8114805F07D
:10502000D7FE0346002B01D000F066F800233B6258
:105030000023BB600023BB614FF07C53FB614FF446
:1050400080733B633B1D01221946064805F060FC56
:105050000346002B01D000F04FF800BF5037BD468B
:1050600080BD00BFB04600200078004680B588B003
:1050700000AF07F10C0300221A605A609A60DA60F0
:105080001A611B4BD3F88C30194A43F00203C2F863
:105090008C30174BD3F88C3003F00203BB60BB6835
:1050A000134BD3F88C30124A43F00103C2F88C3012
:1050B0000F4BD3F88C3003F001037B607B68002238
:1050C0004FF480510B4803F0F9FF4FF48053FB601D
:1050D00001233B6100237B610023BB6107F10C03CB
:1050E0001946044803F094FE00BF2037BD4680BD3A
:1050F000000C02460004024280B400AF72B600BF4A
:1051000000BFFDE780B58EB000AF7860002387F860
:1051100037307B6801333B633B6B1B78FF2B7CD1C3
:105120003B6B0233FB62FB6A1B889BB2A3F6014315
:10513000152B6ED801A252F823F000BF955100083C
:10514000135200080B5200081352000813520008B3
:10515000135200081352000813520008135200089B
:10516000135200081352000813520008135200088B
:10517000135200081352000813520008135200087B
:10518000135200081352000813520008135200086B
:1051900003520008FB6A02333B623B6A1B889BB2E6
:1051A0003B833B6A5B889BB27B833B6ADB889BB219
:1051B000DBB23B753B6A08333B613B6A5B889BB261
:1051C0001A46194B5B8802339A4224D1012387F88F
:1051D00037303B6A1B7A002B02D0012B08D00FE03E
:1051E00002233B7307F10C03184600F0B5F807E003
:1051F00001233B7307F10C03184600F0ADF800BF24
:1052000009E0FB6A0233BB6206E0FB6A02337B62A1
:1052100002E000BF02E000BF00E000BF97F83730B7
:1052200018463837BD4680BDE446002080B58CB0B6
:1052300006AF344806F004FA0423FB758F233B7154
:10524000E5237B71B323BB71D523FB712E233B7206
:105250007F237B724A23BB729823FB722A233B7302
:1052600048237B737A23BB73CC23FB7340233B74AB
:10527000FE237B740023BB740023FB74FB7D391D6C
:10528000214A009201220220FEF73AFB0346BB7539
:1052900019233B71ED237B718223BB71AE23FB711C
:1052A000ED233B7221237B724C23BB729D23FB7247
:1052B00041233B7345237B732223BB738E23FB73F4
:1052C00041233B74FE237B740023BB740023FB74D7
:1052D0000D4B188801213A1D0C4B059301230493B3
:1052E00010230393012302930023019312230093BD
:1052F0000B460221FEF720FB0346BB7500BF1837A3
:10530000BD4680BD05510008E4460020E646002069
:1053100080B586B002AF03463960FB719223FB7300
:10532000FB79002B0FD10B4B18880A4B59883B682F
:105330001A793B681B68009313460022FEF726FB90
:105340000346FB7300E000BFFB7B18461037BD46E9
:1053500080BD00BFE446002080B483B000AF786019
:105360007B681B78022B06D0022B06DC002B06D0B4
:10537000012B06D001E000BF04E000BF02E000BF47
:1053800000E000BF00BF0C37BD465DF8047B7047EE
:1053900080B483B000AF78607B681B78002B02D0AC
:1053A000012B02D002E000BF00E000BF00BF0C37BD
:1053B000BD465DF8047B704780B500AFFFF736FF50
:1053C00000BF80BD80B58EB000AF7860002387F845
:1053D00037307B6801333B633B6B1B78FF2B40F01E
:1053E00092803B6B0233FB62FB6A1B889BB2A3F685
:1053F0000143152B00F2838001A252F823F000BF75
:1054000059540008FF540008F7540008FF540008DE
:10541000FF540008FF540008FF540008FF54000820
:10542000FF540008FF540008FF540008FF54000810
:10543000FF540008FF540008FF540008FF54000800
:10544000FF540008FF540008FF540008FF540008F0
:10545000FF540008EF540008FB6A02333B623B6ACA
:105460001B889BB23B833B6A5B889BB27B833B6A16
:10547000DB889BB2DBB23B753B6A08333B613B6A1E
:105480005B889BB21A46234B5B8802339A4219D140
:10549000012387F837303B6A1B7A002B02D0012B9F
:1054A00008D023E003233B7307F10C03184600F0F8
:1054B000A5F81BE002233B7307F10C03184600F02C
:1054C0009DF813E03B6A5B889BB21A46114B5B88E0
:1054D00001339A4215D1012387F8373001233B73FA
:1054E00007F10C03184600F089F80AE009E0FB6AAE
:1054F0000233BB6206E0FB6A02337B6202E000BF5C
:1055000002E000BF00E000BF97F837301846383798
:10551000BD4680BDE846002080B58CB006AF34485B
:1055200006F08EF80423FB758F233B71E5237B7116
:10553000B323BB71D523FB712E233B727F237B7278
:105540004A23BB729823FB722A233B7348237B7345
:105550007A23BB73CC23FB7340233B74FD237B7402
:105560000023BB740023FB74FB7D391D214A00928C
:1055700001220220FEF7C4F90346BB7519233B71D3
:10558000ED237B718223BB71AE23FB71ED233B7254
:1055900021237B724C23BB729D23FB7241233B73FF
:1055A00045237B732223BB738E23FB7341233B7400
:1055B000FD237B740023BB740023FB740D4B188800
:1055C00001213A1D0C4B05930023049310230393F0
:1055D0000123029300230193162300930B4602211B
:1055E000FEF7AAF90346BB7500BF1837BD4680BD5C
:1055F000C5530008E8460020EA46002080B582B086
:1056000000AF78607B681B78032B12D801A252F898
:1056100023F000BF33560008255600083356000813
:10562000335600087B685B681B781846FFF798FBC9
:1056300000E000BF00BF0837BD4680BD80B483B026
:1056400000AF78607B681B78002B02D0012B02D062
:1056500002E000BF00E000BF00BF0C37BD465DF8B0
:10566000047B704780B500AFFFF756FF00BF80BDD9
:1056700080B400AF074B1B6803F40033B3F5003F61
:1056800001D1012300E000231846BD465DF8047BEC
:10569000704700BF000C024680B483B000AF786052
:1056A000064BDB6923F0030204497B681343CB619B
:1056B00000BF0C37BD465DF8047B7047000C024606
:1056C00080B400AF044BDB6903F00C031846BD4601
:1056D0005DF8047B704700BF000C024680B400AF49
:1056E000054B1B68044A23F08073136000BFBD465E
:1056F0005DF8047B704700BF000C024680B483B0A5
:1057000000AF78607B681B6843F001027B681A6019
:1057100000BF0C37BD465DF8047B704780B483B092
:1057200000AF78607B681B6823F001027B681A6019
:1057300000BF0C37BD465DF8047B704780B483B072
:1057400000AF78607B681B6803F00103012B01D177
:10575000012300E0002318460C37BD465DF8047BAA
:10576000704700BF80B483B000AF78607B681B686F
:1057700023F002027B681A6000BF0C37BD465DF85B
:10578000047B704780B483B000AF78607B681B688F
:1057900043F002027B681A6000BF0C37BD465DF81B
:1057A000047B704780B483B000AF78607B685B6A2D
:1057B00018460C37BD465DF8047B704780B483B053
:1057C00000AF78607B686FF001021A6100BF0C3790
:1057D000BD465DF8047B704780B483B000AF78604D
:1057E0007B681B6903F00103012B01D1012300E059
:1057F000002318460C37BD465DF8047B704700BF98
:1058000080B483B000AF78607B68DB6843F001024E
:105810007B68DA6000BF0C37BD465DF8047B7047DB
:1058200080B483B000AF78607B68DB6823F001024E
:105830007B68DA6000BF0C37BD465DF8047B7047BB
:1058400080B400AF00BFBD465DF8047B704700BF69
:1058500010B50D4B1C78032C07D0FFF73FFF0B4A08
:10586000136D23F04003136510BD0420FBF74AF9C4
:105870002046FFF711FFFFF723FF0C28FBD105F0AF
:105880004DFFFFF7DDFF10BDF0460020000C024683
:1058900028B10120054B02211870FBF729B901211D
:1058A000024B18700846FBF723B900BF1C470020C5
:1058B000014B1878704700BFEC460020EFF31083CF
:1058C00072B60121024A117083F31088704700BF3D
:1058D000EC46002010B5FFF7EBFF00B110BD1D48EE
:1058E000FFF72CFF60B11B48FFF79AFF194C2046C9
:1058F000FFF758FF0028FAD1BDE8104000F05AB871
:105900001448FFF769FF01281FD0FFF7B1FE0028F8
:10591000FBD01048FFF752FF0E48FFF781FF0D48FC
:10592000FFF7ECFE0B4C2046FFF708FF0028FAD0EB
:10593000084C2046FFF736FF0028FAD10548FFF74C
:105940005FFFBDE8104000F035B80248FFF736FFB2
:10595000D2E700BF0044014008B5FFF7A9FF00B13E
:1059600008BD0948FFF7EAFE0028F9D10648FFF70D
:1059700025FF0548FFF7F6FE0348FFF741FFBDE8A6
:1059800008400148FFF7BABE0044014038B5EFF3C4
:10599000108572B6064C2046FFF7C0FE2046FFF782
:1059A000F1FE2046FFF73CFF85F3108838BD00BFAD
:1059B0000044014008B5FFF781FFFFF7E7FFBDE8AE
:1059C0000840FBF787B800BF90B58FB000AF786094
:1059D000012387F837300023BB8600237B86002312
:1059E000FB6200233B620023BB620823FB7700239A
:1059F000BB61B04B1B78012B03D1032387F83730F1
:105A000009E27B68002B03D1062387F8373002E2D6
:105A10007B6803F00F03002B03D0072387F8373090
:105A2000F9E1A54B1B884FF6FF72934209D0A24BB8
:105A30001B88002B05D0A04B1B889B02B3F5804F21
:105A400019D37B6803F580429B4B1B884FF6FF718F
:105A50008B420CD0984B1B88002B05D0964B1B8893
:105A60009B0203F1006304E04FF0016301E04FF09B
:105A70000163934203D2082387F83730CBE18F4884
:105A8000FEF78AF80346FB77FB7F002B06D0FB7FEF
:105A9000032B03D00C2387F83730BCE1EFF31083DE
:105AA0003B613B697B6172B600BF854B854A9A605A
:105AB0007B6803F178433B6228220021824823F06F
:105AC000E7FE002387F827308CE197F827307F4ADC
:105AD0009B0113441B781A46BB8E1344BB8697F870
