:020000040800F2
:1000000000000220A1BA0008170001081F00010823
:10001000270001082F000108370001089DB20008E1
:100020000000000000000000000000003F00010888
:100030004D000108000000005B0001086900010894
:100040009DB200089DB20008750001089DB200082D
:100050009DB200089DB200089DB200089DB2000844
:100060009DB20008890001089DB200089DB20008F9
:100070009DB200089DB200089DB200089DB2000824
:100080009DB200089DB200089DB200089DB2000814
:100090009DB200089DB200089DB200089DB2000804
:1000A0009DB200089DB200089DB200089DB20008F4
:1000B0009DB20008C5000108D30001089DB20008E8
:1000C0009DB200089DB200089DB200089DB20008D4
:1000D0009DB200089DB200089DB200089DB20008C4
:1000E0009DB200089DB200089DB200089DB20008B4
:1000F0009DB200089DB200089DB200089DB20008A4
:100100009DB200089DB200089DB20008E100010800
:100110009DB200089DB200089DB200089DB2000883
:100120009DB200089DB200089DB2000805010108BB
:100130009DB200083D0101089DB200089DB2000873
:100140009DB200089DB20008190101089DB2000887
:100150009DB200089DB200089DB200089DB2000843
:1001600010B5054C237833B9044B13B10448AFF3F1
:1001700000800123237010BDF00500200000000066
:10018000D0EA020808B5034B1BB103490348AFF39B
:10019000008008BD00000000F4050020D0EA02083D
:1001A00070B4840746D04C1E002941D0D5B2034616
:1001B00002E0611EE4B30C4603F8015B9907F8D135
:1001C000032C2ED9D5B245EA05250F2C45EA054565
:1001D00019D9264603F11001103E0F2E41F8105C8C
:1001E00041F80C5C41F8085C41F8045C01F1100135
:1001F000F2D8A4F1100121F00F0104F00F04103126
:10020000032C0B440DD91E4621460439032946F818
:10021000045BFAD8211F21F0030104310B4404F0E0
:1002200003042CB1D2B21C4403F8012BA342FBD12E
:1002300070BC70470C460346C2E7000053B94AB988
:10024000002908BF00281CBF4FF0FF314FF0FF30DE
:1002500000F0B0B9ADF1080C6DE904CE00F006F87D
:10026000DDF804E0DDE9022304B070472DE9F04F2A
:10027000099D884604468E46002B4AD18A4217467D
:100280005FD9B2FA82F64EB1C6F1200301FA06FE3A
:10029000B740B44020FA03F343EA0E0E4FEA174882
:1002A0001FFA87FC230CBEFBF8F108FB11EE01FBE3
:1002B0000CF243EA0E439A4207D9FB1801F1FF30D2
:1002C00002D29A4200F2548101469B1AA2B2B3FBB9
:1002D000F8F008FB103300FB0CFC42EA03429445A3
:1002E0000BD9BA1800F1FF332CBF01240024944528
:1002F00002D9002C00F03F81184640EA0140A2EBF1
:100300000C0200211DB1F2400023C5E90023BDE825
:10031000F08F8B4205D90DB1C5E9000100210846D7
:10032000F5E7B3FA83F100294ED14345C0F01281BD
:10033000824240F20F810846002DE8D0C5E9004E08
:10034000E5E7002A00F0AC80B2FA82F6002E40F019
:10035000BB808B1A4FEA124EBCB20121020C80B254
:10036000B3FBFEFC0EFB1C3342EA034304FB0CF21E
:100370009A420ED9FB180CF1FF382CBF4FF001093F
:100380004FF000099A4203D9B9F1000F00F0EC8058
:10039000C4469B1AB3FBFEF80EFB183304FB08F4AB
:1003A00040EA034294420BD9BA1808F1FF332CBF3C
:1003B00001200020944202D9002800F0D180984604
:1003C000121B48EA0C409DE7C1F120068B4008FA59
:1003D00001F400FA01F922FA06F728FA06F88A4031
:1003E0001F4320FA06F3380C23431FFA87FC1C0C2A
:1003F000B8FBF0FE00FB1E8844EA08440EFB0CF834
:10040000A0450ED93C190EF1FF3A2CBF4FF0010B5D
:100410004FF0000BA04503D9BBF1000F00F0B880EE
:10042000D646A4EB08041FFA83F8B4FBF0F300FBF4
:10043000134403FB0CFC48EA0444A4450ED93C19C0
:1004400003F1FF302CBF4FF001084FF00008A44526
:1004500003D9B8F1000F00F09F80034643EA0E4035
:10046000A4EB0C04A0FB02EC64457346E04602D307
:1004700007D1F14505D2BEEB02036CEB070C013846
:10048000E0465DB1B9EB030264EB080404FA06F63A
:1004900022FA01F3CC401E43C5E90064002136E78F
:1004A000B1FBF2FC010C144680B2964641EA0841C9
:1004B0002026904640EA01431046B1FBF2F1A3EB3F
:1004C000080341EA0C414BE7B740C6F1200301FAAB
:1004D00006F221FA03F84FEA174E20FA03F3BCB2F2
:1004E000B0401343020C190C80B2B8FBFEF90EFBAE
:1004F000198841EA084109FB04F8884551D979185F
:1005000009F1FF3C2CBF4FF0010A4FF0000A88456B
:1005100002D9BAF1000F31D0A1EB0801B1FBFEF90D
:1005200009FB04F80EFB19119BB243EA0143434552
:1005300035D2FB1809F1FF312CBF4FF0010A4FF003
:10054000000A4345BBD2BAF1000FB8D1A9F10201AC
:100550003B44B4E7841A68EB030201209646EBE6BD
:100560003A44A8F102082BE7ACF1020C3B4410E737
:1005700002393B44A9E63A440238BEE6A7EB080834
:10058000A9F1020C4144B1FBFEF909FB04F8C9E7EB
:10059000AEF1020E3C4444E7023B3C445EE7494670
:1005A0008DE7A1EB0801CC46B1FBFEF909FB04F88D
:1005B000B8E700BF704700BF80B500AF00F002F899
:1005C00000BF80BD80B500AF074B1B78002B05D066
:1005D000054B00221A70032025F02FFB002110206C
:1005E00000F072FD00BF80BD1248002080B483B0CF
:1005F00000AFEFF310837B607B6818460C37BD4675
:100600005DF8047B704780B483B000AF78607B688E
:1006100083F3108800BF0C37BD465DF8047B70473C
:1006200080B400AF72B600BFBD465DF8047B704772
:1006300080B483B000AF78607B687A681A607B68AA
:100640007A685A6000BF0C37BD465DF8047B70477E
:1006500080B584B000AF7860FFF7C8FFF860FFF79F
:10066000DFFF7B681B687A689A420CBF0123002376
:10067000DBB2FB72F868FFF7C6FFFB7A184610374B
:10068000BD4680BD80B584B000AF78603960FFF7AB
:10069000ADFFF860FFF7C4FF7B681A683B681A601B
:1006A0003B687A685A607B683A681A603B681B68E6
:1006B0003A685A60F868FFF7A6FF00BF1037BD46DA
:1006C00080BD80B584B000AF78603960FFF78EFFE1
:1006D000F860FFF7A5FF3B687A681A607B685A6884
:1006E0003B685A607B683A685A603B685B683A6866
:1006F0001A60F868FFF787FF00BF1037BD4680BD5E
:1007000080B584B000AF7860FFF770FFF860FFF746
:1007100087FF7B685B687A6812681A607B681B6871
:100720007A6852685A60F868FFF76DFF00BF1037AB
:10073000BD4680BD80B584B000AF78603960FFF7FA
:1007400055FFF860FFF76CFF7B681A683B681A601A
:100750007B681B681846FFF7D3FFF868FFF753FF65
:1007600000BF1037BD4680BD80B584B000AF786053
:100770003960FFF73BFFF860FFF752FF7B681A68AC
:100780003B681A60F868FFF73EFF00BF1037BD46B0
:1007900080BD000080B500AF0448FFF749FF044A60
:1007A0000021802000F074FC00BF80BD0C060020FA
:1007B0009908000880B586B002AF03463960FB8017
:1007C000FB88184600F048F80023FB6007F10C0294
:1007D00000230921012001F0AFF80346002B01D0CE
:1007E000642331E0FB68FA881A81FB6819461848CF
:1007F000FFF767FFFB6803F10C00FB680093154BE4
:100800000022396800F008FD0346002B09D0FB6880
:100810001846FFF775FFFB68184601F0C3F99123EE
:1008200012E0FB680C33184600F02CFD0346002B49
:1008300009D0FB681846FFF763FFFB68184601F014
:10084000B1F9912300E0002318461037BD4680BD62
:100850000C060020C908000880B584B000AF03462C
:10086000FB80FB8819460B4800F040F8F860FB68F5
:10087000002B0AD0FB680C33184600F093FDF86893
:10088000FFF73EFFF86801F08DF900BF1037BD4655
:1008900080BD00BF0C06002080B500AF094B1B686F
:1008A0001B89184626F006F8FFF78CFE054B1B68DF
:1008B0001846FFF725FF034B1B68184601F072F935
:1008C00000BF80BD1406002080B582B000AF786004
:1008D000054A7B6813600021802000F0F5FB00BF13
:1008E0000837BD4680BD00BF1406002080B584B027
:1008F00000AF78600B467B807B681B68FB600DE077
:10090000FB681B897A889A4201D1FB680BE0FB687F
:1009100007F10C0211461846FFF726FFFB687A68BC
:100920009A42EDD1002318461037BD4680BD000025
:1009300080B400AF064B00221A74064B00221A70D6
:10094000054B00221A7400BFBD465DF8047B70475A
:10095000180600202C0600203006002080B483B04A
:1009600000AF7860094B1B7C1946084A7B6842F847
:100970002130064B1B7C0133DAB2044B1A7400BFE2
:100980000C37BD465DF8047B704700BF1806002099
:1009900080B586B000AF78607B6801333B6100238F
:1009A000FB753B691B78FF2B3DD13B690233FB6034
:1009B000FB681B889BB203F47F43B3F5406F18D1EB
:1009C00000237B750DE07B7D304A52F82330786838
:1009D00098470346FB75FB7D002B08D17B7D0133D7
:1009E0007B752A4B1B7C7A7D9A42ECD31AE000BFC0
:1009F00018E000237B750DE07B7D254A52F82330FB
:100A0000786898470346FB75FB7D002B08D17B7DFA
:100A100001337B751E4B1B7C7A7D9A42ECD300E040
:100A200000BF00BF13E000237B750AE07B7D184AFE
:100A300052F82330786898470346FB757B7D013375
:100A40007B75134B1B7C7A7D9A42EFD300BFFB7DF5
:100A5000022B0FD0022B10DC002B02D0012B06D072
:100A60000BE0786802F05EF90346BB7508E00123ED
:100A7000BB7505E00023BB7502E00123BB7500BF19
:100A8000BB7D18461837BD4680BD00BF1806002044
:100A90003006002080B586B000AF78600023FB6090
:100AA0003E4B1A687B681340002B72D17B68002B89
:100AB0000DD008227B6813447B607B6803F007033A
:100AC000002B04D07B6823F0070308337B607B682E
:100AD000002B5ED0324B1B687A689A4259D8314B52
:100AE0003B61304B1B687B6104E07B693B617B6948
:100AF0001B687B617B695B687A689A4203D97B6972
:100B00001B68002BF1D1284B1B687A699A4240D0B0
:100B10003B691B6808221344FB607B691A683B69C8
:100B20001A607B695A687B68D21A08235B009A4274
:100B30000FD97A697B681344BB607B695A687B680C
:100B4000D21ABB685A607B697A685A60B86800F04C
:100B5000CFF8134B1A687B695B68D31A104A13608D
:100B60000F4B1A68114B1B689A4203D20C4B1B683F
:100B70000E4A13607B695A68084B1B681A437B69ED
:100B80005A607B6900221A60094B1B680133084ACE
:100B90001360FB6818461837BD4680BD600600200C
:100BA00050060020440600204C0600205406002079
:100BB0005806002080B584B000AF78607B68FB6089
:100BC0007B68002B28D008235B42FA681344FB6043
:100BD000FB68BB60BB685A68114B1B681340002B55
:100BE0001AD0BB681B68002B16D1BB685A680C4B27
:100BF0001B68DB431A40BB685A60BB685A68094BE4
:100C00001B681344074A1360B86800F071F8064B7C
:100C10001B680133044A136000BF1037BD4680BD16
:100C200060060020500600205C06002080B487B0DB
:100C300000AF786039603B683B617B687B617B69B2
:100C400003F00703002B0CD07B6907337B617B69C2
:100C500023F007037B617A687B69D31A3A691344EE
:100C60003B617B69FB601D4AFB6813601B4B0022E4
:100C70005A60FB683A6913447B6108227B699B1ABE
:100C80007B617B6923F007037B617B69144A1360F6
:100C9000134B1B6800225A60114B1B6800221A601C
:100CA000FB68BB60BB687A69D21ABB685A600C4BA0
:100CB0001A68BB681A60BB685B680A4A1360BB6845
:100CC0005B68094A1360094B4FF000421A6000BF8D
:100CD0001C37BD465DF8047B704700BF440600200A
:100CE0004C0600205406002050060020600600201C
:100CF00080B485B000AF7860284BFB6002E0FB68F1
:100D00001B68FB60FB681B687A689A42F7D8FB682F
:100D1000BB60FB685B68BA6813447A689A4208D182
:100D2000FB685A687B685B681A44FB685A60FB681A
:100D30007B607B68BB607B685B68BA681A44FB6851
:100D40001B689A4218D1FB681A68154B1B689A42B7
:100D50000DD07B685A68FB681B685B681A447B6827
:100D60005A60FB681B681A687B681A6008E00C4BC5
:100D70001A687B681A6003E0FB681A687B681A606F
:100D8000FA687B689A4202D0FB687A681A6000BFF2
:100D90001437BD465DF8047B704700BF4406002051
:100DA0004C06002080B590B000AF7860864B1B6881
:100DB000FB61854B1A687B681340834A1360834B41
:100DC0001B687B63824B1B683B63824B1B68FB6227
:100DD000814B1B68BB620CE10023FB6302E0FB6BF1
:100DE0000133FB637D4AFB6B52F83320FB6A1A40E8
:100DF000754B1B681340002BF1D0784AFB6B52F8FF
:100E00003320FB6A1A40704B1B681340BB63734A64
:100E1000FB6BDB0013445A68BB6B1340002B06D1FD
:100E20006E4AFB6BDB0013444FF0FF325A60674B96
:100E30001B68BB61694AFB6BDB0013445B68DA43E8
:100E4000674B1B681343664A1360654B1B68DB43A3
:100E5000BA691340BB61BA69BB6B1340002B03D066
:100E6000BA6BBB691340BB63BB69002B02D15C4BFF
:100E700000221A60594AFB6BDB0013445A68BB6BB3
:100E80001340184600F080F903461A46554B1A6085
:100E9000EFF310837B6172B6524B1B68012202FA9A
:100EA00003F3DA43494B1B681340484A136002239B
:100EB000FB6313E0FB6B013B484A52F83310494B8C
:100EC0001B68012202FA03F3DA43FB6B013B0A4081
:100ED000424941F83320FB6B013BFB63FB6B002B6A
:100EE000E8D17B6983F310883E4B1B68184600F0FD
:100EF0002BF93C4B1B681F2B78D83A4B1B683A4A9E
:100F000052F82330002B71D000237B621EE0334A5D
:100F10007B6ADB0013445A68324B1B68012101FADB
:100F200003F3DB431A402D497B6ADB000B445A6014
:100F30002A4A7B6ADB0013445A687B6A9B00403371
:100F40003B4443F8382C7B6A01337B627B6A012B7C
:100F5000DDD9244B1B68244A52F8233098470023DC
:100F60003B6213E01D4A3B6ADB0013445A683B6A4C
:100F70009B0040333B4453F8383C1A4017493B6AC6
:100F8000DB000B445A603B6A01333B623B6A012B36
:100F9000E8D9144B1B68184600F0E0F80B4B1B68AF
:100FA0007B630B4B1B683B630A4B1B68FB620A4B62
:100FB0001B68BB620B4B1B6801229A40084B1B68E5
:100FC0001343074A136014E0040000206406002065
:100FD00068060020000000206C060020F4060020B7
:100FE000040700207006002074060020002000F096
:100FF000BFF87A6BFB6A1A401F4B1B681340002B2B
:1010000005D03A6BBB6A1340002B3FF4E5AE1B4B97
:101010004FF0FF321A601A4B1A683B6B1340002BDB
:1010200023D102F0AFFFEFF310833B6172B6154B93
:101030001B687B63144B1B683B63144B1B68FB6290
:101040007A6BFB6A1A400C4B1B681340002B07D1CC
:101050000B4B1A683B6B1340002B01D102F086FF4B
:101060003B6983F3108802F0A3FF034AFB69136016
:1010700000BF4037BD4680BD040000207006002040
:101080006C06002064060020680600200000002096
:1010900080B586B000AFF860B9607A60EFF3108376
:1010A0007B6172B6F86800F06FF803461946054A8E
:1010B0007B6842F821307B6983F3108800BF1837C2
:1010C000BD4680BD7406002080B485B000AF786056
:1010D0003960EFF31083FB6072B60C4B1A687B68C3
:1010E00013430A4A13600A4A3B6852F833207B686C
:1010F0001A4307493B6841F83320FB6883F31088A3
:1011000000BF1437BD465DF8047B704764060020BD
:10111000F406002080B485B000AF7860EFF3108350
:10112000FB6072B6074B1A687B681343054A13606D
:10113000FB6883F3108800BF1437BD465DF8047B5D
:10114000704700BF6806002080B483B000AF7860AD
:1011500000BF0C37BD465DF8047B704780B483B098
:1011600000AF786000BF0C37BD465DF8047B704768
:1011700080B483B000AF0346FB7100BF0C37BD469F
:101180005DF8047B7047000080B485B000AF7860E4
:101190000023FB737B68BB60BB68B3F5803F04D260
:1011A0001023FB73BB681B04BB60BB68B3F1807F7B
:1011B00005D2FB7B0833FB73BB681B02BB60BB68BB
:1011C000B3F1805F05D2FB7B0433FB73BB681B016B
:1011D000BB60BB681B0F074AD25CFB7B1344FB73ED
:1011E000FB7BC3F11F03DBB218461437BD465DF825
:1011F000047B704700EC020880B500AF044B00226E
:101200001A60044B1B6898470346184680BD00BF10
:101210000807002044ED020880B584B000AFF860F4
:10122000B9603B601346FB71FB68002B23D03B6821
:10123000002B20D0FB6800221A60114B5B6AB86853
:1012400098470246FB685A60FB6800221A72FB68E6
:1012500000225A72FB6800229A72FB683A68DA60D0
:10126000FB68BA691A61FB68FA79DA72FB680022D6
:101270005A61002300E0012318461037BD4680BDA7
:1012800044ED020880B588B000AF78600023FB779A
:101290007B68002B50D0786800F068F9034683F033
:1012A0000103DBB2002B47D07B685B7A002B43D174
:1012B000EFF310837B6172B67B685B68BB61224B86
:1012C0001B6A98473861BA693B699A4201D23B6907
:1012D000BB617B68BA691A607B6800221A727B68FE
:1012E00001225A727B6800229A72184B1B68002BED
:1012F00006D1154B1B699847786800F0AFF917E0E5
:10130000114B9B699847F8607B681A68FB681A4420
:101310007B681A607B681A680C4B1B681B689A42D2
:1013200003D2786800F09AF902E0786800F066F974
:101330007B6983F3108801E00123FB77FB7F18466C
:101340002037BD4680BD00BF44ED020808070020DD
:1013500080B584B000AF786039600023FB737B6890
:10136000002B02D10123FB7314E00D4B5B6A38683C
:10137000984702467B685A60786800F0F7F80346A1
:10138000002B02D0786800F00DF87868FFF77AFF3C
:101390000346FB73FB7B18461037BD4680BD00BF7C
:1013A00044ED020880B586B000AF78600023FB757D
:1013B0007B68002B56D0EFF31083BB6072B62D4BC9
:1013C0001B683B612B4B1B68FB607B6801229A7298
:1013D000284B1B68002B41D07B6800225A72254B9A
:1013E0001B687A689A4234D1224B1B6800221A7219
:1013F000204B1B685B69002B0AD01E4B1B685B6986
:101400001C4A13601B4B1B68184600F0CDF823E004
:10141000194BDB689847174B00221A601CE0FA68EA
:101420007B689A4210D1FB685B69002B06D0FB6891
:101430005B69FB603B69FA685A610DE00023FB6061
:101440003B69FA685A6107E0FB683B61FB685B69CE
:10145000FB60FB68002BE2D10023FB75BB6883F3C4
:10146000108801E00123FB75FB7D18461837BD4647
:1014700080BD00BF0807002044ED020880B588B099
:1014800000AF0023BB6100237B6100233B61EFF3CE
:101490001083FB6072B6334B5B699847B860314B81
:1014A0001B69984778607A68BB68D31A3B602E4BFB
:1014B0001B68002B49D02C4B1B68FB61FB691B6828
:1014C0003A689A4206D2FB691A683B68D21AFB69ED
:1014D0001A6020E0FB6900221A607B69002B1AD198
:1014E000214B1B685B69204A1360FB6900221A725A
:1014F000FB6900225A72FB69DB7A012B05D1FB697B
:101500009B7A002B01D1FB69BB61FB691B693B61C5
:10151000FB69DB687B61FB695B69FB61FB69002B35
:10152000CCD1BB69002B02D0B869FFF7ABFE0E4BE4
:101530001B68002B09D00C4B1B681B7A002B04D1B5
:10154000094B1B68184600F02FF8FB6883F31088DE
:101550007B69002B02D07B693869984700BF203730
:10156000BD4680BD44ED02080807002080B485B068
:1015700000AF78600B4B1B68FB6008E0FA687B6883
:101580009A4201D1012306E0FB685B69FB60FB68BE
:10159000002BF3D1002318461437BD465DF8047BB9
:1015A000704700BF0807002090B585B000AF786095
:1015B000114B1B6A9847F8607B6801221A727B689E
:1015C0001C680D4B9B6998470246FB6813449C427C
:1015D00007D2094B9B6998470246FB681A447B680F
:1015E0001A60054B9B687A6812681046984700BFDE
:1015F0001437BD4690BD00BF44ED020880B485B0ED
:1016000000AF7860144B1B68FB60134B1B685B6971
:10161000BB6012E07B681A68BB681B689A4205D9F8
:10162000BB68FB60BB685B69BB6006E0FB687A680F
:101630005A617B68BA685A6109E0FB685B69002BF4
:10164000E8D1FB687A685A617B6800225A611437D6
:10165000BD465DF8047B70470807002080B584B064
:1016600000AF78600B4B1B68FB60FB68002B02D05F
:10167000FB6800221A727B68FA685A61054A7B6827
:101680001360044B1B681846FFF78EFF00BF10372E
:10169000BD4680BD0807002080B586B000AF7860E9
:1016A0000123FB7500233B61994B1B78012B02D171
:1016B0000C23FB7527E17B68002B02D10223FB750D
:1016C00021E17B681B68002B02D10323FB751AE123
:1016D0007B681B6803F00303002B02D00323FB7518
:1016E00011E17B685B68002B02D10323FB750AE1E3
:1016F0007B689B68002B06D07B68DB68002B02D1DF
:101700000423FB75FFE07B689A6813465B00134473
:101710003B610023FB6028E07B68DA68FB68DB0044
:1017200013445B683A6913443B617B68DA68FB6881
:10173000DB0013441B78002B02D10423FB7511E05E
:101740007B68DA68FB68DB0013445B68002B02D11E
:101750000423FB7506E07B685B683A699A4201D90D
:101760000423FB75FB680133FB607B689B68FA68A8
:101770009A4202D2FB7D012BCED0FB7D012B40F0A3
:10178000C280644B00221A60634B00221A60634BD4
:1017900000221A60624B00221A60624B00221A601B
:1017A000614B00221A60614B00221A605F4B0022DD
:1017B0005A605E4B00229A605D4B00221A605C4BBF
:1017C00000225A605B4B00221A605A4B00225A607A
:1017D000564802F00BFC554B1B68002B07D0534BAF
:1017E0005B68002B03D0514B9B68002B02D1052373
:1017F000FB7588E07B681B68464A13607B685B6802
:10180000454A1360494B1B68424A126842490968BD
:1018100010469847454B59687B689A6813465B00A9
:1018200013441846884703463F4A13603E4B1B68E3
:10183000002B06D17B689B68002B02D00623FB752A
:1018400061E03B48FEF7F4FE3A48FEF7F1FE7B68A4
:101850009B68344A1360334B1A6813465B001A4482
:101860002E4B1B6813442D4A13600023BB6040E0DD
:101870007B68DA68BB68DB00D1182B4B1868BA6844
:1018800013465B0013449B0003440A781A707B687C
:10189000DA68BB68DB00D118234B1868BA681346B6
:1018A0005B0013449B0003444A68C3F801201E4BAD
:1018B0001968BA6813465B0013449B000B4400226E
:1018C0005A7100229A710022DA7100221A72164BA4
:1018D0001968BA6813465B0013449B000B44D3F8A5
:1018E00001200F4B1B6813440D4A1360BB68013382
:1018F000BB600C4B1B68BA689A42B9D3044B0122F7
:101900001A700023FB75FB7D18461837BD4680BD55
:101910000C070020100700201407002018070020E3
:101920001C07002020070020240700202807002093
:10193000340700203C07002080B58AB000AFB960B2
:101940007A603B600346FB73012387F8273000234E
:101950003B620023BB617B6800221A608A4B1B78C4
:10196000002B03D10D2387F8273007E1BB68002B3C
:1019700003D10A2387F8273000E1FB7B002B40D1FD
:10198000EFF310833B6172B6804B1A68804B1B6883
:10199000D21A804B1B68D31ABA689A4227D27E4B60
:1019A0005B68BA68013210469847B861BB69002B82
:1019B00016D0FB7B1A06BB6823F07F431A43BB6932
:1019C0001A60BB691A1D7B681A60714B1A68BB6884
:1019D000134401336E4A1360002387F827300CE06C
:1019E000386800F0E3F90B2387F8273005E0386802
:1019F00000F0DCF90A2387F827303B6983F310886D
:101A0000BCE0092387F82730EFF310837B6172B6BF
:101A10000023FB61A5E0614B1968FA6913465B007E
:101A200013449B000B441B78FA7B9A4240F096804B
:101A30005A4B1968FA6913465B0013449B000B4428
:101A4000D3F80510554B1868FA6913465B00134428
:101A50009B000344D3F80130994215D24F4B1968CB
:101A6000FA6913465B0013449B000B44D3F8011042
:101A70004A4B1868FA6913465B0013449B00034401
:101A8000D3F80530CB1A3B62404B1A68404B1B68B9
:101A9000D21A404B1B68D21A3B6A1344BA689A4266
:101AA00056D23D4B5B68BA68013210469847B86120
:101AB000BB69002B45D0FB7B1A06BB6823F07F4334
:101AC0001A43BB691A60BB691A1D7B681A60334BE5
:101AD0001968FA6913465B0013449B000B44D3F862
:101AE0000520BB68D1182D4B1868FA6913465B00B6
:101AF00013449B0003444A1CC3F80520274B196874
:101B0000FA6913465B0013449B000B44D3F80110A1
:101B1000224B1868FA6913465B0013449B00034488
:101B2000D3F80530994208D2194B1A68BB681A4499
:101B30003B6AD31A0133164A1360002387F8273013
:101B40000CE0386800F032F90B2387F8273005E005
:101B5000386800F02BF90A2387F82730FB69013336
:101B6000FB610F4B1B68FA699A4204D297F8273041
:101B7000092B3FF450AF7B6983F3108897F8273027
:101B800018462837BD4680BD0C07002014070020EA
:101B9000180700201C070020280700202407002029
:101BA0002007002080B58AB000AF7860012387F855
:101BB00027300023FB770023BB6100237B610023D8
:101BC0003B61684B1B78002B03D10D2387F827302E
:101BD000C1E07B68002B03D1022387F82730BAE0ED
:101BE0007B6803F00303002B03D0072387F827301B
:101BF000B1E05D4B1A685D4B1B689B0013447A682B
:101C00009A4204D8584B1B687A689A4203D2082338
:101C100087F827309FE0EFF31083FB6072B67B6894
:101C2000043B3B613B691B681B0EFB773B691B68F0
:101C300023F07F437B617B6901337B614C4B9B6865
:101C400038699847FB7F002B09D14A4B1A687B699A
:101C5000D31A484A1360002387F8273074E0092319
:101C600087F8273000233B6265E0434B19683A6AE6
:101C700013465B0013449B000B441B78FA7F9A4287
:101C800056D13D4B19683A6A13465B0013449B00DA
:101C90000B44D3F80510384B18683A6A13465B00BA
:101CA00013449B000344D3F80130CB1ABB61BB69DA
:101CB000002B24DDBB697A699A421AD92E4B196828
:101CC0003A6A13465B0013449B000B44D3F801109F
:101CD000294B18683A6A13465B0013449B0003447F
:101CE000D3F80530CA1A234B1B681344214A1360EA
:101CF00005E0204B1A687B69D31A1E4A13601E4BFD
:101D000019683A6A13465B0013449B000B44D3F8EE
:101D10000510194B18683A6A13465B0013449B0080
:101D200003447A698A1AC3F80520002387F827300C
:101D30003B6A01333B62114B1B683A6A9A4203D2F9
:101D400097F82730092B90D000F042F8FB6883F316
:101D5000108802F065F997F8273018462837BD46F5
:101D600080BD00BF0C0700201007002014070020D2
:101D70002807002018070020240700202007002043
:101D800080B582B000AF00237B6000F041F878603E
:101D90007B68002B02D07B689B6898477B68002B90
:101DA000F3D100BF00BF0837BD4680BD80B582B00B
:101DB00000AF78607B68002B03D079680348FEF79A
:101DC00080FC00BF0837BD4680BD00BF340700203F
:101DD00080B582B000AF00237B6009E03B1D19464F
:101DE0000948FEF7A7FC7B6819460848FEF769FC1E
:101DF0000548FEF72DFC0346002BEFD000BF00BFC7
:101E00000837BD4680BD00BF340700203C070020D6
:101E100080B582B000AF00237B600848FEF718FC55
:101E20000346002B04D13B1D19460448FEF782FCF3
:101E30007B6818460837BD4680BD00BF3C070020C0
:101E400080B483B000AF0346FB7100BF0C37BD46C2
:101E50005DF8047B704780B483B000AF0346FB712C
:101E600000BF0C37BD465DF8047B704780B483B07B
:101E700000AF0346FB7100BF0C37BD465DF8047B25
:101E8000704780B483B000AF0346FB7100BF0C37CE
:101E9000BD465DF8047B704780B483B000AF034655
:101EA000FB7100BF0C37BD465DF8047B704780B402
:101EB00083B000AF786039607B681B6823F4400210
:101EC0003B681A437B681A6000BF0C37BD465DF85B
:101ED000047B704780B483B000AF786039607B6862
:101EE0005B6C23F001023B681A437B685A6400BFB5
:101EF0000C37BD465DF8047B704780B483B000AFFB
:101F0000786039607B685B6C23F002023B681A439F
:101F10007B685A6400BF0C37BD465DF8047B704790
:101F200080B483B000AF786039607B681B6923F0B0
:101F300000523B681A437B681A6100BF0C37BD46EC
:101F40005DF8047B704780B485B000AFF860B9607D
:101F50007A60FB685A69BB6803F00403072101FA41
:101F600003F3DB431A40BB6803F00403796801FA0A
:101F700003F31A43FB685A6100BF1437BD465DF88E
:101F8000047B704780B483B000AF786039607B68B1
:101F9000DB6823F400123B681A437B68DA6000BFF9
:101FA0000C37BD465DF8047B704780B485B000AF48
:101FB000F860B9607A60FB689A6ABB6803F01F0337
:101FC0000F2101FA03F3DB431A407B689B0E03F0F9
:101FD0000F01BB6803F01F0301FA03F31A43FB6808
:101FE0009A6200BF1437BD465DF8047B704780B429
:101FF00083B000AF786039607B68DB6823F0030250
:102000003B681A437B68DA6000BF0C37BD465DF859
:10201000047B704780B483B000AF78607B68DB6876
:1020200003F0030318460C37BD465DF8047B704788
:1020300080B485B000AFF860B9607A60FB685A6917
:10204000BB681B02DB431A40BB6819027B680B406C
:1020500023F07C4323F0FF031A43FB685A6100BF5F
:102060001437BD465DF8047B704780B483B000AF81
:1020700078607B689B6823F0104323F0170343F0DC
:1020800080527B689A6000BF0C37BD465DF8047BC8
:10209000704780B483B000AF78607B689B6823F0A2
:1020A000104323F017037A68936000BF0C37BD46D6
:1020B0005DF8047B704780B483B000AF78607B68C4
:1020C0009B6803F08053B3F1805F01D1012300E0EE
:1020D000002318460C37BD465DF8047B704780B47A
:1020E00083B000AF78607B689B6823F0004323F0E7
:1020F000170343F001027B689A6000BF0C37BD46AE
:102100005DF8047B704780B483B000AF78607B6873
:102110009B6823F0004323F0170343F002027B681F
:102120009A6000BF0C37BD465DF8047B704780B4F1
:1021300083B000AF78607B689B6803F00103012BDC
:1021400001D1012300E0002318460C37BD465DF89D
:10215000047B704780B483B000AF78607B689B6875
:1021600003F00203022B01D1012300E000231846F3
:102170000C37BD465DF8047B704780B483B000AF78
:1021800078607B689B6823F0004323F0170343F0DB
:1021900000427B689A6000BF0C37BD465DF8047B47
:1021A000704780B483B000AF78607B689B6803F0B1
:1021B0000043B3F1004F01D1012300E00023184692
:1021C0000C37BD465DF8047B704780B483B000AF28
:1021D00078607B689B6823F0004323F0170343F08B
:1021E00004027B689A6000BF0C37BD465DF8047B33
:1021F000704780B483B000AF78607B689B6803F061
:102200000403042B01D1012300E0002318460C37FE
:10221000BD465DF8047B704780B483B000AF786042
:102220007B689B6803F01003102B01D1012300E0B1
:10223000002318460C37BD465DF8047B704780B418
:1022400083B000AF78607B681B6C9BB2C3F30B0359
:102250009BB218460C37BD465DF8047B704780B4CE
:1022600083B000AF78607B681B6C9BB2C3F309033B
:102270009BB218460C37BD465DF8047B704780B4AE
:1022800083B000AF78607B681B6CDBB218460C37FC
:10229000BD465DF8047B704780B483B000AF7860C2
:1022A0007B681B6CDBB203F03F03DBB218460C37D4
:1022B000BD465DF8047B704780B483B000AF7860A2
:1022C0007B681B6803F00103012B01D1012300E0AF
:1022D000002318460C37BD465DF8047B704780B478
:1022E00083B000AF78607B681B6803F00403042BA5
:1022F00001D1012300E0002318460C37BD465DF8EC
:10230000047B704780B483B000AF78607B680122A3
:102310001A6000BF0C37BD465DF8047B704780B47F
:1023200083B000AF78607B6804221A6000BF0C376E
:10233000BD465DF8047B704780B483B000AF786021
:10234000074BD3F8E83023F4E04205497B68134398
:10235000C1F8E83000BF0C37BD465DF8047B70471C
:10236000000C024680B485B000AF78600A4BD3F809
:10237000942009497B681343C1F89430064BD3F885
:1023800094207B681340FB60FB6800BF1437BD4698
:102390005DF8047B704700BF000C024680B483B038
:1023A00000AF7860074BD3F894207B68DB43054986
:1023B0001340C1F8943000BF0C37BD465DF8047B74
:1023C000704700BF000C024680B582B000AF092301
:1023D000FB7100F0A5FB0346FB71FB79002B0CD1D0
:1023E000084B00221A60084B084A1A60084B00226A
:1023F0001A6000F0BBF900F09BFBFB791846083728
:10240000BD4680BD4807002008000020001002469D
:102410004407002080B584B000AF78600923FB73C7
:102420007B68002B02D10623FB731BE07B681B79C2
:10243000012B02D10323FB7314E000F071FB034670
:10244000FB73FB7B002B0DD1094B1B680133084A42
:102450001360074B1A687B681A607B6801221A7147
:1024600000F066FBFB7B18461037BD4680BD00BF01
:102470004C07002080B586B000AF78600B46FB703B
:102480000923FB75EFF31083FB60FB683B6172B6B9
:1024900000BFFB78002B0DD17B681B68012202FA7C
:1024A00003F3DA43164B1B681340154A13600023ED
:1024B000FB7510E0FB78012B0BD17B681B680122B8
:1024C0009A400F4B1B6813430D4A13600023FB75A2
:1024D00001E00823FB750A4B1B68002B02D100F0BA
:1024E00045F901E000F0D6F83B69BB60BB6883F3B7
:1024F000108800BFFB7D18461837BD4680BD00BF61
:102500004407002080B584B000AF786039600923AB
:10251000FB730023BB810220FFF792FC7B68002B3A
:1025200002D03B68002B02D10623FB739DE07B6841
:102530001B79002B02D10423FB7396E07B681A6899
:102540004C4B1B689A4203D87B681B68002B02D156
:102550000523FB7389E07B681B6801229A40464B88
:102560001B681340002B02D10823FB737DE000F0B1
:10257000D7FA0346FB73FB7B002B76D17B681A6886
:102580003E4B1B689A4209D0786800F041F9034637
:10259000FB733B4B1B681846FFF7A1FDFB7B002B31
:1025A0005FD1786800F02AFA0346BB81354B1A8860
:1025B000354B1B889A4224D1BB899BB21A4640F600
:1025C000E44303FB02F27B68DB685B0840F6FF71C3
:1025D00021FA03F3B2FBF3F34FF47A7202FB03F335
:1025E000A3F53923A3F50C63284A82FB0312921248
:1025F000DB17D31A9BB21E339BB21AB23B681A8008
:1026000031E0214B1A881F4B1B889A4224D0BB898A
:102610009BB21A467B68DB685B0802FA03F31A4632
:1026200040F6E44302FB03F3194AA2FB03239B0990
:102630001A46144B1B88D31A642203FB02F2124B76
:102640001B8819460F4B1B88CB1A92FBF3F39BB2E6
:102650001E339BB21AB201E047F6FF723B681A8044
:1026600001E00723FB7300F063FAFB7B1846103789
:10267000BD4680BD4C0700204407002048070020CD
:10268000080000201007F90B4207F90BAD8BDB683F
:10269000F119760580B584B000AF00233B600020BF
:1026A000FFF7CEFBEFF31083BB60BB68FB6072B635
:1026B00000BF2D4B1B681846FFF739FD0346002B62
:1026C00045D10020FFF738FE2020FFF74BFE264BB8
:1026D0001B681846FFF7C9FC00BF234B1B68184650
:1026E000FFF7E9FC0346002BF7D01F4B1B68184689
:1026F000FFF790FC03463B601B4B1B68002118460C
:10270000FFF775FC184B1B681846FFF736FD00BF36
:10271000154B1B681846FFF744FD0346002BF7D105
:10272000114B1B683A6811461846FFF760FC0046DB
:1027300000460D4B1B681846FFF7D1FC00BF0A4B43
:102740001B681846FFF7B8FD0346002BF7D0FB685F
:102750007B607B6883F3108800BF0020FFF77BFB62
:1027600000BF1037BD4680BD0800002080B584B092
:1027700000AF0120FFF764FBEFF31083BB60BB6881
:10278000FB6072B600BF214B1B681846FFF7CFFCF9
:102790000346002B2CD01D4B1B681846FFF7B3FCDB
:1027A0001A4B1B681846FFF7ADFD00BF174B1B689F
:1027B0001846FFF7BCFC0346012BF7D000BF134BB4
:1027C0001B681846FFF728FD0346012BF7D00F4B77
:1027D0001B681846FFF75DFC00BF0C4B1B681846D2
:1027E000FFF769FC0346012BF7D02020FFF7D6FD49
:1027F000FB687B607B6883F3108800BF0120FFF7D4
:102800002AFB00BF1037BD4680BD00BF0800002076
:1028100080B58CB000AF7860002387F82F3000239C
:10282000BB6207F1200300221A605A6007F1080317
:1028300000221A605A609A60DA601A615A61694B24
:102840001B6818460DF01CFD0346002B03D0012326
:1028500087F82F3023E0634B1B681846FFF7DAFB3D
:102860000346BB625F4B1B6800211846FFF7BFFBA6
:102870005C4B1B681846FFF780FC00BF594B1B6878
:102880001846FFF78EFC0346002BF7D1554B1B680B
:10289000BA6A11461846FFF7AAFB0046004697F8A9
:1028A0002F30002B40F097807B68DB683B627B68B1
:1028B0001B697B627B685B69BB607B685B6BFB60F1
:1028C0007B689B6B3B617B68DB697B617B681B6A18
:1028D000BB617B685B6AFB617B685B6C424A9342CD
:1028E00005D14FF480014148FFF7E1FA0EE07B6823
:1028F0005B6C3F4A934205D14FF400013B48FFF720
:10290000D6FA03E000213948FFF7D1FA354B1A68AF
:102910007B689B6819461046FFF702FB314B1B682A
:1029200007F12002114618460DF04EFD0346002B1C
:1029300003D0012387F82F304DE02A4B1A687B68BB
:102940001B6B19461046FFF71DFB264B1B6807F152
:102950000802114618460DF059FD0346002B03D01E
:10296000012387F82F3036E01E4B1A687B6893F8F6
:102970003C3019461046FFF7ADFA1A4B1A687B68CF
:102980001B6C19461046FFF7B8FA164B18687B689F
:102990009B6A1A460021FFF7D6FA124B18687B682B
:1029A000DB6A1A461349FFF7CEFA0E4B18687B68AC
:1029B000996C7B685B6C1A46FFF7F7FA094B18684D
:1029C0007B68596C7B68DB6C1A46FFF731FB7B68D0
:1029D0001B68094A136097F82F3018463037BD46F8
:1029E00080BD00BF080000200100008008130246DF
:1029F000002000B404FFFF034807002080B584B026
:102A000000AF78600023FB8100F056F87B68DB683C
:102A10000C2B48D801A252F823F000BF512A00081D
:102A2000A72A0008A72A0008A72A0008672A000882
:102A3000A72A0008A72A0008A72A00087D2A00085C
:102A4000A72A0008A72A0008A72A0008932A000836
:102A50004FF48053FB81174B1B681846FFF7EFFBC1
:102A60000346FB8120E04FF48063FB81114B1B6820
:102A70001846FFF7F4FB0346FB8115E04FF4807323
:102A8000FB810C4B1B681846FFF7F9FB0346FB81E3
:102A90000AE04023FB81074B1B681846FFF7FCFB4D
:102AA0000346FB8100E000BFFB899BB2184610374C
:102AB000BD4680BD0800002080B500AF174B1B68E5
:102AC0001846FFF734FB0346012B15D1134B1B6847
:102AD0001846FFF73FFB0346002B0DD10F4B1B6839
:102AE0001846FFF786FB0346002B05D10B4B1B68EE
:102AF0001846FFF76AFB01E004F026FC00BF074B15
:102B00001B681846FFF7EBFB0346002BF7D0034B7F
:102B10001B681846FFF703FC00BF80BD08000020BB
:102B200080B400AF00231846BD465DF8047B7047B3
:102B300080B400AF00231846BD465DF8047B7047A3
:102B400080B400AF044B1B68C3F30B031846BD46AB
:102B50005DF8047B704700BF004004E080B400AF24
:102B6000044B1B681B0C9BB21846BD465DF8047BEA
:102B7000704700BF004004E080B400AF034B1B6807
:102B80001846BD465DF8047B704700BF000AF90B8C
:102B900080B400AF034B1B68DBB21846BD465DF83E
:102BA000047B7047040AF90B80B400AF034B1B6829
:102BB0001B0A1846BD465DF8047B7047040AF90BF2
:102BC00080B400AF034B1B681846BD465DF8047B1C
:102BD000704700BF0007F90B80B400AF034B1B68C0
:102BE0001846BD465DF8047B704700BF0407F90B2B
:102BF00080B400AF034B1B681846BD465DF8047BEC
:102C0000704700BF0807F90B80B400AF044B1B6886
:102C100003F01F031846BD465DF8047B704700BFF4
:102C20000005F90B80B584B002AF3448FDF700FD14
:102C3000334A00211020FEF72BFA324A00210420EB
:102C4000FEF726FAFC2200212F4804F083FB4FF404
:102C5000FC722D49002006F027FC002006F052FDF2
:102C60000023009300230022FF21002004F0A6FC93
:102C7000034613F1030F02D0032004F097FD00F088
:102C8000C7FA0346002B31D100F008FBFDF750FED8
:102C90001E4B00221A761D4B4FF6FF72DA821C4A39
:102CA00000214FF48050FEF7F3F900230093194BF5
:102CB000002200211848FEF7AFFA00230093174BBB
:102CC000002200211648FEF7A7FA05F0ABF805F040
:102CD000FFF9062001F02DFC0346FB71012000F0F6
:102CE000ABF94EF660210C48FEF732FB074B002291
:102CF00083F84C2000BF0837BD4680BD5007002038
:102D0000A1390008B5350008D80700208007002049
:102D10002F3A0008013A00089C0700201B3A0008DF
:102D2000B407002080B596B000AF7860972387F88D
:102D300057307B6801333B653B6D1B78FF2B00F000
:102D4000F980FF2B00F365813E2B3FD03E2B00F333
:102D50006081052B02D0102B34D05AE13B6D023339
:102D6000FB60FB68B3F801309AB2AD4BDB8A9A4244
:102D700005D1AB4B0022DA82A94B00221A7600F073
:102D80001AFEA84B01221A70A74B01221A70FB6889
:102D9000B3F801309AB2A34B5A80FB68B3F8013004
:102DA0009AB2A14B5A809F4805F028F89E4805F03A
:102DB0007BF9012000F040F94EF660219B48FEF7B8
:102DC000C7FA27E13B6D02333B6123E13B6D0233E0
:102DD0003B633B6B1B78013B0B2B00F2A98001A2EC
:102DE00052F823F0B92E0008312F0008152E0008E4
:102DF000312F0008312F0008312F0008312F000833
:102E0000312F0008312F0008412E0008312F000813
:102E1000352E000800233B623B6B0133FB61FB69ED
:102E2000B3F803309BB21A4640F2E24302FB03F3CD
:102E30003B627EE03B6B0133FB6200F0BCFD78E05F
:102E40000023BB623B6B01337B627B6AB3F81730B4
:102E50009BB21A4640F2E24302FB03F3BB62704BA3
:102E60001B7E012B03D16E4B03221A7602E06C4BC2
:102E700002221A767B6AB3F801309AB2684BDA8282
:102E8000684B00221A70684B00221A707B6AB3F8F4
:102E900001309AB2634B5A807B6AB3F801309AB220
:102EA000614B5A805F4804F0A9FF5F4805F0FCF8C9
:102EB0005E48FEF777FA3CE00023BB613B6B0133D1
:102EC0007B617B69B3F80B309BB21A4640F2E24358
:102ED00002FB03F3BB61524B1B7E012B03D1504B12
:102EE00003221A7602E04E4B02221A767B69B3F86F
:102EF00001309AB24A4BDA824A4B00221A704A4B8E
:102F000000221A707B69B3F801309AB2454B5A809F
:102F10007B69B3F801309AB2434B5A80414804F0C0
:102F20006DFF414805F0C0F84048FEF73BFA00E06D
:102F300000BF6FE03B6D0233FB64FB6C1B889BB2F0
:102F4000B3F5006F2AD0B3F5006F60DC40F20A429F
:102F500093425CDCB3F5806F04DC042B26D0062B97
:102F600051D054E0A3F20143092B50D801A252F8EA
:102F700023F000BFED2F0008B72F00080F30000826
:102F80000F300008F52F00080F300008A52F0008AB
:102F90000F300008CF2F00080F300008FB6C023301
:102FA000BB6435E0FB6C02333B6431E00521204813
:102FB000FEF7CEF92CE01F4BFB63194BDB8AF96B54
:102FC000184601F03BFB034687F8573020E0012309
:102FD00087F84730124BDB8A97F84720114618468E
:102FE00001F097FB034687F8573011E0FB6C023382
:102FF000BB630DE00A4BDB8A184601F07AFB0346FF
:1030000087F8573004E0FB6C02337B6300E000BFBD
:1030100000E000BF012318465837BD4680BD00BF01
:1030200080070020D0070020D40700209C07002044
:10303000B407002007B2010090B595B008AF034671
:10304000FB710023FB620023BB6200237B62002331
:103050003B62FB79062B60D801A252F823F000BF37
:10306000A13000087D300008B73000088F3000081C
:10307000CD3000081B310008D33000088023FB62EC
:10308000A023BB6204237B6200233B6246E08023D3
:10309000FB62A023BB6206237B6203233B623DE00D
:1030A0004FF4C863FB624FF47A63BB6205237B6213
:1030B00000233B6232E04FF4C863FB624FF47A6353
:1030C000BB6207237B6203233B6227E000237B6212
:1030D00024E04FF44873FB624FF44873BB62002353
:1030E0007B624FF4FA733B62474B93F84C30002BF2
:1030F00008D0454B002283F84C202823FB6228236C
:10310000BB620BE0404B012283F84C204FF4487324
:10311000FB624FF44873BB6200E000BFFB79062BF3
:103120006AD801A252F823F0453100084531000861
:103130004531000845310008A7310008BF310008BB
:10314000D73100083B6AD8B2FB6A99B2BB6A9AB21F
:103150000023069300230593002304930023039385
:10316000002302930023019300230093002301F026
:10317000FCF90346FB77FB7F002B03D17B6ADAB2B5
:10318000214B1A760A2001F098FA0346FB771F4B71
:103190003B611023FB73FB7B3969184601F07BFA16
:1031A0000346FB772BE001F0D4F90346FB77FB7F66
:1031B000002B23D17B6ADAB2134B1A761EE0134B35
:1031C000BB611023FB75FB7DB969184601F063FAFA
:1031D0000346FB7713E00C4BD88AFB6A99B2BB6AB3
:1031E0009AB27B6A9CB23B6A9BB20093234601F081
:1031F00016FB0346FB7702E000BF00E000BF00BF04
:103200003437BD4690BD00BF800700206400002019
:1032100080B582B000AF1E4B44221A821C4B08229C
:103220005A821B4B4FF4A8629A82194B1E22DA7500
:10323000174BFB225A83164B40229A77144BF822E5
:103240009A83134B2022DA77114B02229A75104B86
:103250006F221A830E4B0F4A1A600D4B41F28452B3
:103260005A600B4B0C4A9A60094B4FF48B52DA6050
:10327000074B00221A84064B00225A62044823F0AE
:10328000ABFA0346FB71FB7918460837BD4680BD93
:10329000A8360020C40F002048250020F0B597B0C4
:1032A00006AF0023FB840023BB8400237B84002320
:1032B0003B84BA4A0121342001F011F9034687F812
:1032C0003F3000F0ADF9B863BA6B0621002001F081
:1032D00006F9034687F83F3000F036FA78637A6BD8
:1032E0001021182001F0FBF8034687F83F3000F06A
:1032F000BDFA38633A6B1021082001F0F0F803465C
:1033000087F83F301921012001F0FEF8034687F8C5
:103310003F3001F013FA034687F83F30002387F867
:103320002F3097F82F3043F0010387F82F3097F8AC
:103330002F30002B28D007F1260297F82F0007F135
:103340002203019307F12403009313460622002170
:1033500001F086F9034687F83F30F88CB98C904B22
:1033600000930623002201F03BFA034687F83F3022
:10337000F88C798C07F1200300930223002201F0DE
:103380002FFA034687F83F3002220221002001F085
:1033900090F8034687F83F30824B01221A70814B28
:1033A0001B78184601F00FF9034687F83F307D4B34
:1033B00001225A707B4B08221A717A4B10225A71E3
:1033C000784B0022DA70774B774A9A60754B01226E
:1033D0009A70BA6B1021754800F030FB714B9C78E5
:1033E000704B5D786F4B1B796E4A52796D49C97885
:1033F0006C48806800260496039002910192009325
:10340000002301222946204601F0EDF8034687F803
:103410003F30644B9B78002B04D001F05EF90346EB
:1034200087F83F300023FB811623BB8519233B74AB
:10343000ED237B748223BB74AE23FB74ED233B75B9
:1034400021237B754C23BB759D23FB7541233B7664
:1034500045237B762223BB768E23FB7631233B7775
:10346000FE237B770023BB770023FB77F88CB98D95
:1034700007F1100207F10E030593002304931023B4
:1034800003930023029300230193022300930B462E
:10349000022101F07BF9034687F83F30444BBB62C1
:1034A000FFF74EFB0346DAB2414B1A70FFF748FBB9
:1034B00003461B0ADAB23E4B5A70FFF74FFB034636
:1034C000DAB23B4B9A70FFF749FB03461B0ADAB2AC
:1034D000374BDA70364B8B221A71FFF795FB034698
:1034E000DAB2334B5A71324B01229A71304B0622B9
:1034F000DA712F4B00221A722D4B00225A722C4B7C
:1035000000229A722A4B8322DA7200237B730023F3
:103510007B8100237B720023FB800023BB80BC1DCA
:1035200007F1090207F10A0107F10D003B1D0093A5
:10353000234600F0A8FF7B89DAB21D4B1A737B8902
:103540001B0A9BB2DAB21A4B5A73194BFF229A73B9
:10355000174BFF22DA73164BFF221A74144BFF220B
:103560005A74134BFF229A74114BFF22DA74104BDA
:10357000FF221A750E4BFF225A75F88CF989BB8D04
:10358000DAB2BB6A00931346002201F029F9034620
:1035900087F83F3000BF4437BD46F0BD10EC02084D
:1035A0005C0000208007002007B2010064000020BA
:1035B000D036002080B582B000AF00233B603B4690
:1035C00019461648FDF7B6F83B6808331846FDF76C
:1035D000DFF90346FB71FB79002B04D03B681846EA
:1035E000FEF7E0FA04E03B6819460C48FDF74AF89C
:1035F0000A48FDF72DF80346002B06D1FB79002B76
:1036000003D000210420FDF75FFD00211020FDF70D
:103610005BFD00BF0837BD4680BD00BF50070020DE
:1036200080B58AB000AF00237B61454A07F10C03E7
:1036300092E803001860043319803B1D0622002124
:1036400018462BF007FA3F4B34221A703D4B1222DA
:103650005A703C4B2A229A703A4BE122DA70394B6D
:1036600008221A71374B00225A713B1D0622194657
:1036700034482BF0C5F90346002B02D0314B7B6256
:1036800058E0FFF779FA38623B6AB3F1FF3F23D085
:10369000FFF78AFAF861FFF77BFAB8613B6ADAB2A2
:1036A000284B1A703B6A1B0ADAB2264B5A70BB6968
:1036B000DAB2244B9A70FB69DAB2224BDA70FB69FA
:1036C0001B0ADAB21F4B1A71FB691B0CDAB21D4BD5
:1036D0005A711C4B7B622DE007F114031946002040
:1036E00004F0E6F80346002B1AD17B691A7A154BD1
:1036F0001A707B695A7A134B5A707B699A7A114B0C
:103700009A707B69DA7A0F4BDA707B691A7B0D4B02
:103710001A717B695A7B0B4B5A710A4B7B6209E029
:10372000084B07F10C0292E803001860043319807B
:10373000044B7B627B6A18462837BD4680BD00BFBC
:10374000E8EA02085807002090B591B000AF454B59
:1037500007F114040FCB84E80F00424B3C1D0FCB44
:1037600084E80F0007F124031022002118462BF0F3
:1037700071F93D4B1C4607F114030FCB84E80F0091
:1037800007F124031022194637482BF039F9034674
:10379000002B02D0344BFB635EE0FFF711FAB863F5
:1037A000FFF71AFA7863BB6BB3F1FF3F4CD07B6B2A
:1037B000B3F1FF3F48D0BB6BDAB22B4B1A722A4BE6
:1037C0001A7A294B1A70BB6B1B0ADAB2264B5A7253
:1037D000254B5A7A244B5A70BB6B1B0CDAB2224B26
:1037E0009A72214B9A7A204B9A70BB6B1B0EDAB2FD
:1037F0001D4BDA721C4BDA7A1B4BDA707B6BDAB238
:10380000194B1A73184B1A7B174B1A717B6B1B0AD7
:10381000DAB2154B5A73144B5A7B134B5A717B6BAC
:103820001B0CDAB2104B9A730F4B9A7B0E4B9A71AA
:103830007B6B1B0EDAB20C4BDA730B4BDA7B0A4B49
:10384000DA71094BFB6307E0074B1C463B1D0FCBAE
:1038500084E80F00044BFB63FB6B18464437BD46FE
:1038600090BD00BFF0EA02086007002090B591B05B
:1038700000AF494B07F114040FCB84E80F00464B0F
:103880003C1D0FCB84E80F0007F124031022002118
:1038900018462BF0DFF8414B1C4607F114030FCB01
:1038A00084E80F0007F12403102219463B482BF04F
:1038B000A7F80346002B02D0384BFB6366E0FFF706
:1038C0008BF9B863FFF794F97863BB6BB3F1FF3FF3
:1038D00054D07B6BB3F1FF3F50D07B6BDAB22F4BF0
:1038E0001A722E4B1A7A2D4B1A707B6B1B0ADAB2A6
:1038F0002A4B5A72294B5A7A284B5A707B6B1B0CF5
:10390000DAB2264B9A72254B9A7A244B9A707B6BCB
:103910001B0EDAB2214BDA72204BDA7A1F4BDA70C7
:10392000BB6BDBB2DB43DAB21C4B1A731B4B1A7B4B
:103930001A4B1A71BB6B1B0ADBB2DB43DAB2174BB3
:103940005A73164B5A7B154B5A71BB6B1B0CDBB26F
:10395000DB43DAB2114B9A73104B9A7B0F4B9A717F
:10396000BB6B1B0EDBB2DB43DAB20C4BDA730B4BD7
:10397000DA7B0A4BDA71094BFB6307E0074B1C4605
:103980003B1D0FCB84E80F00044BFB63FB6B184619
:103990004437BD4690BD00BF00EB02087007002011
:1039A00080B500AF22F07AFF0346002B01D1FCF76F
:1039B00009FE00BF80BD80B500AF0120FDF7AAFB66
:1039C00000BF80BD80B582B000AF0F233B71387956
:1039D00011F033FA00BF0837BD4680BD80B582B014
:1039E00000AF0346FB71FB79002B03D00349002095
:1039F00005F0CCFF00BF0837BD4680BDDD390008AB
:103A000080B582B000AF786000214FF48050FDF7A0
:103A10005BFB00BF0837BD4680BD80B483B000AFFC
:103A2000786000BF0C37BD465DF8047B704780B5F9
:103A300000AF0420FFF700FB00BF80BD80B487B05B
:103A400000AFF8600B467A60FB720023FB82D8E07F
:103A5000FB8AFA6813441B787B75FB8A0133FA688A
:103A600013441B783B753B7DFF2B5CD0FF2B00F391
:103A7000BA800A2B00F0B9800A2B00F3B480012B26
:103A800000F0B580092B00D0ADE0FA8A7B7D1344AD
:103A90001A46FB6813441B78582B40F0AA80FA8A18
:103AA0007B7D1344013BFA6813441B78582B40F08C
:103AB000A0807B681B781B09FB747B681B7803F074
:103AC0000F03BB74FB7C092B0AD9FA8A7B7D134454
:103AD000013BFA681344FA7C3732D2B21A7009E01B
:103AE000FA8A7B7D1344013BFA681344FA7C303236
:103AF000D2B21A70BB7C092B0AD9FA8A7B7D134497
:103B00001A46FB681344BA7C3732D2B21A7070E09E
:103B1000FA8A7B7D13441A46FB681344BA7C303220
:103B2000D2B21A7065E0FB8A0233FA68134430227D
:103B30001A70FB8A0333FA68134400221A70FB8A56
:103B40000433FA68134402221A70FB8A0533FA68B8
:103B500013448B221A70FB8A0633FA6813448322BB
:103B60001A70FB8A0733FA68134400221A70FB8A22
:103B70000833FA68134400221A70FB8A0933FA6882
:103B8000134400221A707B685A1DFB8A0A33F968B5
:103B90000B4412781A707B681A1DFB8A0B33F96884
:103BA0000B4412781A707B68DA1CFB8A0C33F968B4
:103BB0000B4412781A707B689A1CFB8A0D33F968E3
:103BC0000B4412781A707B685A1CFB8A0E33F96812
:103BD0000B4412781A70FB8A0F33FA6813447A6820
:103BE00012781A7006E000BF04E000BF02E000BFD8
:103BF00000E000BF7B7D9AB2FB8A13449BB2013385
:103C0000FB82FB7A9BB2FA8A9A42FFF421AF00BF93
:103C100000BF1C37BD465DF8047B704780B586B099
:103C200000AFF8607A601A460B467B8113463B81F1
:103C30009123FB7500233B617A893B891344BB8246
:103C4000FB681B78042B38D1214B224A9A60BB8A2F
:103C50000B33990807F110021D4B0220FDF76CFE93
:103C60000346002B02D09123FB752CE03B69002B0F
:103C700029D03B6904221A72FB685A1C3B691278EE
:103C80005A72FB689A1C3B6912789A723B6903F17D
:103C90000B00FB68D91CFB6802331B781A4620F026
:103CA00051F83B6919460C48FCF70BFD0021042034
:103CB000FDF70AFA0023FB7505E0FB681B78022B71
:103CC00001D10023FB75FB7D18461837BD4680BD2A
:103CD000B80F0020C53900085007002080B582B019
:103CE00000AF786039600449002005F04FFE00BF46
:103CF0000837BD4680BD00BFDD39000880B483B001
:103D000000AF0346FB7100BF0C37BD465DF8047B76
:103D1000704780B483B000AF0346FB7100BF0C371F
:103D2000BD465DF8047B704780B400AF054B1B684F
:103D3000044A23F48073136000BFBD465DF8047B22
:103D4000704700BF000C024680B400AF064BD3F8AA
:103D5000F430054A43F40003C2F8F43000BFBD4616
:103D60005DF8047B704700BF000C024680B485B04C
:103D700000AF78600A4BD3F8982009497B68134359
:103D8000C1F89830064BD3F898207B681340FB604D
:103D9000FB6800BF1437BD465DF8047B704700BF69
:103DA000000C024680B400AF034B01229A6300BFAF
:103DB000BD465DF8047B70470008024680B500AF41
:103DC00000F052F800BF80BD80B582B000AF7860CF
:103DD0000020FFF793FF00F061F800F073F80CF09B
:103DE000D5FC00F0ADF800F079F800F085F800F0AF
:103DF0009BF8174B1B884FF6FF72934211D0144B60
:103E00001B88002B0BD0124B1B889B0223F4FF5303
:103E100023F01F0303F1FF6303F5F82302E00D4BCA
:103E200000E00C4B184605F00DF90346002B01D0BD
:103E300003F08AFAFEF7F6FE0121022001F07CF879
:103E40000020FFF766FF002318460837BD4680BDF7
:103E5000A007F90B00C00F0880B500AF4FF0FF308E
:103E6000FCF7A0FF00BF80BD80B582B000AF00238B
:103E70007B603B1D1946002003F01AFD0346002B12
:103E800003D00C200AF0C6FC04E07B689B7B18463C
:103E90000AF0C0FC00BF0837BD4680BD80B500AF4A
:103EA000FFF752FFFDF7A8F9044809F0A7FAFEF75B
:103EB0008BFA034B01221A7000BF80BD4000003016
:103EC000E636002080B500AF04F0BAFD07F0E8F94F
:103ED0000121012007F026FA00BF80BD80B500AFA8
:103EE00002F072F9034A00210120FDF7D1F800BF6A
:103EF00080BD00BFB962000880B500AF094A00214B
:103F00004FF48070FDF7C4F80121012001F014F88E
:103F10000021022001F010F80021002001F00CF82F
:103F200000BF80BD6152000880B500AF034A002188
:103F30004020FDF7ADF800BF80BD00BF214C000858
:103F400080B500AF0748FDF7A7FB0346002B01D063
:103F500003F0FAF9044A00212020FDF799F800BF88
:103F600080BD00BF84000020811D000880B500AF27
:103F700007F0CEFE05F048F807F030FA07F0D8FE5B
:103F800000BF80BD80B500AFFFF70CFF074B1B786B
:103F9000002B06D007F0F6F90346022B01D100F002
:103FA00084F8FFF7D1FE00BF80BD00BFE6360020D9
:103FB00080B500AF0120FFF7D9FE02F06FFD0021B0
:103FC000042007F0AFF900BF80BD80B500AF00212D
:103FD0004020FDF779F800BF80BD80B500AF00211B
:103FE0000120FDF771F800BF80BD000080B483B0F0
:103FF00000AF78607B68074A1A607B68064A5A609F
:104000007B68064A9A6000BF0C37BD465DF8047BAA
:10401000704700BF314000084F4000086B40000867
:1040200080B500AF00212020FDF74EF800BF80BD15
:1040300080B582B000AF786039603B689B0019465C
:104040007868FCF7F3FD00BF0837BD4680BD80B53A
:1040500082B000AF78607B689B001846FCF71AFDC1
:10406000034618460837BD4680BD80B582B000AF14
:1040700078607868FCF79EFD00BF0837BD4680BDBC
:1040800080B500AF00214FF48070FDF71DF800BF30
:1040900080BD80B500AFFFF747FE00BF80BD80B593
:1040A00000AFFFF741FE00BF80BD80B582B000AF1A
:1040B00000233B6002F0AEFC0346002B1DD13B46C3
:1040C000184610F052FE78603B68B3F1FF3F04D110
:1040D0004FF0FF3002F0AAFC0FE03B6840F2DC52E8
:1040E000934206D93B68A3F2DC53184602F09EFCCB
:1040F00003E00121042007F015F900BF0837BD4691
:1041000080BD80B485B000AF78607B681B68DA0F33
:104110001346DB0013441A01D31AFB607B681B684B
:104120005A007B6804331B68DB0F1A437B681A60F4
:104130007B6804331B6859007B6808331B68DA0FFF
:104140007B6804330A431A607B6808331B68590094
:104150007B680C331B68DA0F7B6808330A431A60EC
:104160007B680C331B6859007B680C33FA684A4043
:104170001A6000BF1437BD465DF8047B704780B5F8
:1041800082B000AF786039603968786801F02EFB42
:1041900000BF0837BD4680BD80B584B000AF7860F1
:1041A0000D4BFB6001F080FA7968012001F0A6FA5E
:1041B000FB680022DA60FB68DA68FB689A60FB68DB
:1041C0009A68FB685A60FB685A68FB681A6000BF0F
:1041D0001037BD4680BD00BFA046002080B598B016
:1041E00000AFF860B9607A607F4B3B650023BB6528
:1041F000FB687B657B68002B44D0BB6803F00F0332
:10420000BB65BB68002B04D0BB6D002B01D1102314
:10421000BB65BA68BB6DD31ABB6033E007F12003FE
:104220001022796D18462AF046FC3B6A3B643B6CD1
:104230001ABA3B6D1B6853403B627B6A7B647B6CA4
:104240001ABA3B6D5B6853407B62BB6ABB64BB6C54
:104250001ABA3B6D9B685340BB62FB6AFB64FB6C04
:104260001ABA3B6DDB685340FB623A6D07F12003DD
:1042700011461846FFF783FF7B6D10337B65BB68E3
:10428000103BBB60BB68002BC8D17B68002B00F0E3
:10429000A6800023FB62FB6ABB62BB6A7B627B6A0F
:1042A0003B620023FB651BE0FB6D9A0893006033C3
:1042B0003B4453F8401C786DFB6D03441B78184653
:1042C000FB6DDB4303F00303DB0000FA03F3194348
:1042D000930060333B4443F8401CFB6D0133FB65A6
:1042E000FA6DBB6D9A42DFD30023FB61FB69BB61B2
:1042F000BB697B617B693B6107F1100207F1100329
:1043000011461846FFF73BFF07F110031846FFF769
:10431000F8FEBB6D0F2B19D8BB6D9A089300603364
:104320003B4453F8401CBB6DDB4303F00303DB004D
:10433000802000FA03F31943930060333B4443F8B1
:10434000401C07F110031846FFF7DBFE0023FB6556
:104350001AE0FB6D9B0060333B4453F8402C3B6DEF
:10436000F96D53F82110FB6D9B0060333B4453F80B
:10437000503C4B405A40FB6D9B0060333B4443F83C
:10438000402CFB6D0133FB65FB6D032BE1D93A6DCE
:1043900007F1200311461846FFF7F1FE01F068FA15
:1043A0003B6D1B683B633B6B1BBA3B623B6D5B68C1
:1043B0007B637B6B1BBA7B623B6D9B68BB63BB6B98
:1043C0001BBABB623B6DDB68FB63FB6B1BBAFB621A
:1043D00007F120031022194678682AF06CFB00BF11
:1043E0006037BD4680BD00BFA046002080B500AF4D
:1043F00001F03EFA00BF80BD80B58AB000AFF86022
:10440000B9607A603B6001F04FF93B68002B01D046
:10441000032300E00223F968184601F06FF907F161
:1044200010031022B96818462AF045FB3B697B62ED
:10443000FB693B617B6AFB617B697B62BB697B617A
:104440007B6ABB6107F1100207F1100311461846A1
:1044500001F0CCF901F00CFA3B693B62FB693B616E
:104460003B6AFB617B693B62BB697B613B6ABB6109
:1044700007F110031022194678682AF01CFB00BFD0
:104480002837BD4680BD80B588B002AFF860B960FE
:104490007A603B603B6A00933B687A68B968F86869
:1044A00022F0EDFD0346FB75FB7D18461837BD462F
:1044B00080BD80B584B000AF0346FB710B46BB7175
:1044C00013467B717A79B979FB79184622F0F4FDAD
:1044D0000346FB73FB7B18461037BD4680BD80B595
:1044E00084B000AF03463A60FB710B46BB71B979EB
:1044F000FB793A68184622F00FFE0346FB73FB7BFC
:1045000018461037BD4680BD80B584B000AF034665
:104510000A46FB711346BB71BA79FB7911461846FE
:1045200022F00AFE0346FB73FB7B18461037BD469C
:1045300080BD80B584B000AF0346FB80FB88184681
:1045400022F042FE0346FB73FB7B18461037BD4644
:1045500080BD80B582B000AF23F0E8FC0346FB715C
:10456000FB7918460837BD4680BD90B58DB008AFC1
:104570000446084611461A462346FB710346BB8093
:104580000B467B801346BB71BC797A88B988F87971
:104590003B8F0693BB8E05933B6B049397F82C30AF
:1045A0000393BB6A029397F82430019397F8203065
:1045B0000093234623F0C0FB0346FB73FB7B1846A6
:1045C0001437BD4690BD80B584B000AF0346FB7183
:1045D000FB79184628F0DEF80346FB73FB7B184690
:1045E0001037BD4680BD90B58BB006AF0446084677
:1045F00011461A462346FB710346BB710B467B717D
:1046000013463B713C797A79B979F87997F830306B
:104610000493FB6A039397F82830029397F82430A9
:10462000019397F820300093234628F0BDF8034605
:10463000FB73FB7B18461437BD4690BD80B584B034
:1046400000AF03463960FB80FB883968184629F0C3
:1046500051F80346FB73FB7B18461037BD4680BDFF
:1046600080B586B002AF3B600346FB710B46BB7161
:1046700013467B717A79B979F879FB690193BB6943
:1046800000933B6823F0CCF90346FB73FB7B184691
:104690001037BD4680BD80B584B000AF0346396099
:1046A000FB71FB793968184623F078FB0346FB73EE
:1046B000FB7B18461037BD4680BD80B584B000AF87
:1046C0000346FB71FB79184623F0F0FB0346FB73AE
:1046D000FB7B18461037BD4680BD80B582B000AF69
:1046E00023F090FC0346FB71FB7918460837BD4662
:1046F00080BD80B584B000AF0346FB80FB881846C0
:1047000029F016F80346FB73FB7B18461037BD46AD
:1047100080BD80B584B000AF03460A46FB801346D7
:104720007B717A79FB881146184629F09FFF034672
:10473000FB73FB7B18461037BD4680BD80B582B049
:1047400000AF24F08BF90346FB71FB79184608375C
:10475000BD4680BD80B586B002AF396011461A46AD
:104760000346FB710B46BB7113467B717979BA79AD
:10477000F879BB6900930B46396824F0CDF90346FC
:10478000FB73FB7B18461037BD4680BD80B58CB0EF
:1047900006AFBA601A460346FB810B467B7313468D
:1047A000FB80FA88797BF8897B6B059397F830302A
:1047B000049397F82C30039397F82830029397F8D6
:1047C0002430019397F8203000931346BA6824F000
:1047D00075FD0346FB75FB7D18461837BD4680BD49
:1047E00090B587B002AF0446084611461A462346E4
:1047F000FB800346BB800B46FB701346BB70BC7846
:10480000FA78B988F8883B6A0093234624F0A8FB1D
:104810000346FB73FB7B18461437BD4690BD90B52D
:1048200087B002AF0446084611461A462346FB806D
:104830000346BB800B467B8013463B803C887A88CE
:10484000B988F8883B8C0093234626F058FF03462E
:10485000FB73FB7B18461437BD4690BD80B500AF97
:10486000FFF7C4FD00F0E0F8FBF794FF00BF80BD48
:1048700080B586B002AFB9607B600346FB73134618
:10488000BB81BA89F87B3B8B00937B68B96802F0E7
:104890008FFD034618461037BD4680BD80B584B0F5
:1048A00002AF3B600346FB710B46BB711346BB80F6
:1048B000BA88B979F8793B8A00933B6802F07EFEAA
:1048C000034618460837BD4680BD80B582B000AFAC
:1048D00003463960FB801346BB80BA88FB88396881
:1048E000184602F021FF034618460837BD4680BD32
:1048F00080B582B000AF0346FB71FB79184602F029
:1049000055FF00BF0837BD4680BD80B582B000AFFF
:1049100003463960FB71FB793968184601F080FC69
:1049200000BF0837BD4680BD80B584B000AFF860D9
:10493000B9607A6001237A68B968F868FFF75CFDAE
:1049400000BF1037BD4680BD80B582B000AF786033
:104950007868FFF721FC00BF0837BD4680BD80B5F1
:1049600084B000AFF860B9607A607A68B968F868B6
:10497000FFF734FC00BF1037BD4680BD80B582B064
:1049800000AF7860786800F05BF803461846083797
:10499000BD4680BD80B582B000AF7860786800F019
:1049A0006DF800BF0837BD4680BD80B582B000AF4E
:1049B000786039603968786800F070F80346184606
:1049C0000837BD4680BD80B582B000AF786078689A
:1049D00000F094F8034618460837BD4680BD80B500
:1049E00000AF22F0F1FFFBF7EDFD00BF80BD80B509
:1049F00082B000AF03463960FB80FB8839681846F7
:104A0000FBF7D8FE034618460837BD4680BD80B583
:104A100082B000AF0346FB80FB881846FBF71CFF03
:104A200000BF0837BD4680BD80B500AF01F0AEF8CD
:104A3000024B00221A7000BF80BD00BFB0460020AC
:104A400080B582B000AF786000F0D4FF0346002B41
:104A500002D16FF001030AE000220021786801F022
:104A600037F9054B01221A70FFF7AFFA00231846F9
:104A70000837BD4680BD00BFB046002080B582B07B
:104A800000AF78604022044978682AF014F800BF2B
:104A90000837BD4680BD00BFB446002080B582B057
:104AA00000AF7860396000F0A5FF0346002B02D10B
:104AB0006FF0010316E0386801F090F82022796861
:104AC0000A4829F0F8FF0A4B40223968184629F0B5
:104AD000F2FF084B02221A70074B01221A70FFF7EF
:104AE00074FA002318460837BD4680BDB44600203E
:104AF000D4460020B0460020B146002080B582B0E8
:104B000000AF7860084B1B78002B02D06FF00203D7
:104B100005E020220549786829F0CDFF00231846DA
:104B20000837BD4680BD00BFB1460020B446002016
:104B300080B500AF354B1B78002B01D1002362E01C
:104B400000F0E4FF0346002B02D16FF001035AE0AE
:104B50002E4B1B78013B042B50D801A252F823F0B6
:104B6000754B0008814B00089F4B0008C14B0008A3
:104B7000E34B0008264B1946264801F003F93DE0B7
:104B800001F04AF80346002B33D0234B184601F0BE
:104B900025F81E4B03221A706FF0010333E001F079
:104BA0003BF80346002B26D0194B1B4A11461846EA
:104BB00001F042F8154B04221A706FF0010322E055
:104BC00001F076F80346002B17D0114B124A194614
:104BD000104801F07DF80D4B05221A706FF00103AB
:104BE00011E000210B4801F0CDF80C4B00221A70A7
:104BF00004E000BF02E000BF00E000BFFFF7EFFEEF
:104C0000FFF712FF0023184680BD00BFB04600200A
:104C1000D4460020B4460020F4460020B1460020CF
:104C200080B500AFFFF784FF0346002B01D0FFF7EC
:104C3000CCF900BF80BD000080B582B000AF082372
:104C4000FB7100F069F90346FB71FB79002B0AD177
:104C5000074B00221A60074B00225A77054B064A81
:104C60001A6000F061F9FB7918460837BD4680BD2F
:104C700014470020940000200030024080B584B02A
:104C800000AF78600823FB737B68002B02D10623FA
:104C9000FB731FE07B681B7A012B02D10323FB739C
:104CA00018E000F039F90346FB73FB7B002B11D1B0
:104CB0000B4B1B6801330A4A1360094B1A687B6867
:104CC0001A607B689A697B685A607B6801221A7255
:104CD00000F02AF9FB7B18461037BD4680BD00BFA7
:104CE0001847002080B586B000AFF860B9607A60E0
:104CF0003B600823FB750023BB75FB68002B05D0C8
:104D0000BB68002B02D03B68002B02D10623FB7549
:104D100039E0FB681B7A002B02D10423FB7532E0DB
:104D2000FB681A681A4B1B689A4203D8FB681B6819
:104D3000002B02D10523FB7525E000F0EDF80346BA
:104D4000FB75FB7D002B1ED1FB681A68114B1B689D
:104D50009A4204D0F86800F08BF80346BB75BB7D1F
:104D6000002B0CD17A68B9680B4807F082FA02462A
:104D70003B681A603B681A68FB685A6001E00723C9
:104D8000FB7500F0D1F8FB7D18461837BD4680BD95
:104D900018470020144700209400002080B586B0FA
:104DA00000AFF860B9607A603B600823FB75FB6870
:104DB000002B05D0BB68002B02D03B68002B02D132
:104DC0000623FB7549E0FB681B7A002B02D1042304
:104DD000FB7542E0FB681A68224B1B689A4203D8B5
:104DE000FB681B68002B02D10523FB7535E000F042
:104DF00093F80346FB75FB7D002B2ED1FB681A68E8
:104E0000194B1B689A420CD17A68B968174807F0A9
:104E1000ECF902463B681A603B681A68FB685A6006
:104E200019E0F86800F024F80346002B11D10F4B6D
:104E30001B68FA6852681A617A68B9680B4807F00B
:104E400018FA02463B681A603B681A68FB685A60A9
:104E500001E00723FB7500F067F8FB7D1846183763
:104E6000BD4680BD18470020144700209400002054
:104E700080B584B000AF78600023FB73234B5B7F69
:104E8000DBB2002B04D0214807F082F90346FB7304
:104E9000FB7B002B34D17B685B691C4AD3607B6849
:104EA0005A7B1A4B5A717B681A7B184B1A717B68B4
:104EB0001B69164A93607B689B69144A13617B687F
:104EC000DB69124A53617B681B6A104A93617B68F5
:104ED0005B6A0E4A13620D4807F0F6F80346FB734F
:104EE000FB7B002B04D17B681B68094A136007E039
:104EF00018220021074829F0ADFD044B00221A6258
:104F0000FB7B18461037BD4680BD00BF94000020D3
:104F1000144700209800002080B400AF00231846FA
:104F2000BD465DF8047B704780B400AF002318468F
:104F3000BD465DF8047B704780B487B000AF7860F1
:104F40000B46FB70EFF310833B613B697B6172B6EC
:104F500000BFFB78002B0AD0012B13D101227B6804
:104F60009A400F4B1B6813430D4A13600BE001225C
:104F70007B6802FA03F3DA43094B1B681340084AC3
:104F8000136000E000BF7B69FB60FB6883F310885F
:104F900000BF00BF1C37BD465DF8047B704700BFF3
:104FA0001C47002080B584B000AF786039600123D1
:104FB000FB73124B1B6803F00203002B07D00F4B4F
:104FC0001B6803F00403002B01D0FB7B11E000BF42
:104FD0000A4B1B6803F00103002BF9D13A6879688A
:104FE000012007F097FC0346002B01D10023FB733F
:104FF000FB7B18461037BD4680BD00BF1C47002014
:1050000080B588B000AF78600123FB772B4B1B88FD
:105010004FF6FF7293420AD0284B1B88002B04D016
:10502000264B1B889B025B0B02E0802300E0802361
:105030007A68934201D2FB7F3CE0214B1B6803F06E
:105040000203002B07D01E4B1B6803F00403002B48
:1050500001D0FB7F2EE000BF194B1B6803F001035A
:10506000002BF9D10223FB60144B1B884FF6FF7213
:1050700093420BD0114B1B88002B05D00F4B1B8884
:105080009B025B0B013B02E07F2300E07F237A68F9
:1050900013403B6101237B6107F1180207F10C0308
:1050A0001146184607F07CFD0346002B01D1002372
:1050B000FB77FB7F18462037BD4680BDA007F90B64
:1050C0001C47002080B586B000AFF860B9607A60F8
:1050D0003B60BB68B3F1006F31D32F4B1B884FF699
:1050E000FF7293420CD02C4B1B88002B05D02A4B0F
:1050F0001B889B0203F1006304E04FF0016301E0B1
:105100004FF00163BA68934219D3BA687B681A44B6
:10511000214B1B884FF6FF718B420CD01E4B1B8816
:10512000002B05D01C4B1B889B0203F1006304E09D
:105130004FF0016301E04FF00163934201D202237B
:1051400025E0FB6803F00303002B04D1BB6803F0E8
:105150000F03002B01D0022319E0386800F0B8F9E2
:105160000346FB75FB7D002B10D10C4AFB681360D6
:105170000A4ABB685360094A7B689360084B002267
:105180001A70084B00221A70FEF77AFFFB7D184652
:105190001837BD4680BD00BFA007F90B3847002077
:1051A000344700204C47002080B586B000AFF8603F
:1051B000B9607A60264B1B884FF6FF7293420AD083
:1051C000234B1B88002B04D0214B1B889B025B0BBD
:1051D00002E0802300E08023FA68934216D3FA6845
:1051E000BB681A441A4B1B884FF6FF718B420AD0DA
:1051F000174B1B88002B04D0154B1B889B025B0BA5
:1052000002E0802300E08023934201D202231BE0CE
:10521000BB68002B01D1022316E0786800F058F932
:105220000346FB75FB7D002B0DD10A4AFB68D3605A
:10523000084ABB681361084B01221A70074B002211
:105240001A70FEF71DFFFB7D18461837BD4680BD5E
:10525000A007F90B38470020344700204C470020B6
:1052600080B586B000AF0023FB750023BB7500231B
:105270007B608D4B1B78002B02D0012B6BD0CBE0D9
:105280008A4B1B78002B38D1894B40F24C421A6074
:10529000854B01221A7007F087FB1DE0854B5B6888
:1052A0001A46844B1B6819461046FFF77BFE0346DF
:1052B000BB75BB7D002B0FD17E4B5B6810337D4AE5
:1052C00053607C4B1B6810337A4A1360794B9B68A0
:1052D000043B1A46774B9A60764B9B68002B02DDA5
:1052E000BB7D002BDAD007F081FB724B9B68002B53
:1052F00000F391800123FB758DE06D4B41F20402B8
:105300001A60694B01221A7007F04EFB13E0694BDB
:10531000DB681846FFF774FE0346BB75BB7D002BA8
:1053200009D1644B1B69013B624A1361614BDB6825
:105330000133604AD3605F4B1B69002B02D0BB7DF9
:10534000002BE4D007F052FB5A4B1B69002B62D1B3
:105350000123FB755FE0584B1B7883F00103DBB240
:10536000002B06D0524B1B685449184602F0FEFA37
:1053700052E04E4B1B78002B2BD107F015FB0FE0B2
:105380004C4B5B6810334B4A53604A4B1B681033DD
:10539000484A1360474B9B68043B1A46454B9A604A
:1053A000444B9B68002B0BDD424B5B681A46414B1C
:1053B0001B6819461046FFF7F5FD0346002BDFD0AA
:1053C0003C4B9B68002B01DC0123FB7507F00EFBB7
:1053D0001BE007F0E9FA374BDB681846FFF710FED1
:1053E0000346002B09D1334B1B69013B314A136142
:1053F000304BDB6801332F4AD3602E4B1B69002BE7
:1054000001D10123FB7507F0F1FA02F041FB2A4BB1
:1054100000221A7000E000BFFB7D002B39D0EFF3B3
:105420001083BB60BB683B6172B600BF244B002297
:105430001A70244B00221A703B69FB60FB6883F3EF
:10544000108800BF204B1B68002B0DD01E4B1B6823
:105450000020984708E03B1D19461C48FBF76AF9F5
:105460007B689B68012098471848FBF7F1F80346D2
:10547000002B14D1124B1B7883F00103DBB2002BFD
:105480000DD0104B1B7883F00103DBB2002BE2D16F
:1054900005E0074B1B680949184602F067FA00BF90
:1054A0001837BD4680BD00BF4C4700203447002060
:1054B000504700203847002022470020FD550008B3
:1054C00020470020214700203047002024470020AB
:1054D00080B58CB000AF7860002387F82F300223AE
:1054E00087F82E30EFF31083FB61FB69BB6272B665
:1054F00000BF3D4B1B7883F00103DBB2002B05D0CE
:105500003A48FBF795F8384B01221A70384B1B7854
:1055100083F00103DBB2002B14D0364B1B7883F0F1
:105520000103DBB2002B09D0314B01221A70314B41
:1055300001221A70012387F82F3006E0002387F834
:105540002F3002E0002387F82F30BB6ABB61BB69B4
:1055500083F3108800BF97F82F3083F00103DBB28C
:10556000002B0FD07B68002B08D07B689B68002B3A
:1055700004D07B6819461D48FBF7A3F8012387F880
:105580002E302BE07B68002B15D07B689B68002BAE
:1055900011D0EFF310833B613B697B6272B600BFB1
:1055A0007B689B68144A13607B6A7B617B6983F329
:1055B000108800BF0FE0EFF31083BB60BB683B6255
:1055C00072B600BF0C4B00221A603B6AFB60FB689E
:1055D00083F3108800BF002387F82E3097F82E3011
:1055E00018463037BD4680BD2C4700202447002098
:1055F00020470020214700203047002080B500AF21
:10560000034B01221A70FEF73BFD00BF80BD00BFB7
:105610002247002080B485B000AF78600A4BD3F8F1
:105620008C2009497B681343C1F88C30064BD3F8B2
:105630008C207B681340FB60FB6800BF1437BD46BD
:105640005DF8047B704700BF000C024680B483B055
:1056500000AF7860084BD3F88C207B6813407A68E1
:105660009A4201D1012300E0002318460C37BD46C1
:105670005DF8047B704700BF000C024680B483B025
:1056800000AF7860074BD3F88C207B68DB4305497B
:105690001340C1F88C3000BF0C37BD465DF8047B69
:1056A000704700BF000C024680B584B000AF124BBB
:1056B000FB604FF48030FFF7C9FF0346002B01D099
:1056C000002314E0FB6801221A70EFF310833B60A3
:1056D0003B68BB6072B600BF4FF48030FFF79AFFA3
:1056E000BB687B607B6883F3108800BF012318468A
:1056F0001037BD4680BD00BF5447002080B58AB03A
:1057000000AF7860396007F1080310223968184645
:1057100029F0D1F9344B00221A607B6803F00203B0
:10572000002B0CD0304ABB6813612F4AFB685361D1
:105730002D4A3B6993612C4A7B69D36117E0BB68B2
:10574000294ABB61BB691BBAD361FB68264AFB616E
:10575000FB691BBA93613B69234A3B623B6A1BBAF4
:1057600053617B69204A7B627B6A1BBA13617B6849
:1057700003F00103002B1AD11B4B08221A601A4BAD
:105780001B68194A43F00103136000BF164B5B68A6
:1057900003F00103002BF9D0134BD3F80833124A5E
:1057A00043F00103C2F808330F4B10221A607B68E4
:1057B00003F00403002B05D00B4B1B680A4A43F08F
:1057C0000403136000BF084B5B6803F08003002BE9
:1057D000F9D0054B1B68044A43F00103136000BF76
:1057E0002837BD4680BD00BF00000C4280B483B0A6
:1057F00000AF786039601D4A7B681B6893607B68E6
:1058000004331A4A1B6893607B680833174A1B6885
:1058100093607B680C33154A1B68936000BF134B81
:105820005B6803F00103002BF9D0104BDA683B688A
:105830001A600E4A3B680433D2681A600B4A3B6810
:105840000833D2681A60094A3B680C33D2681A6080
:10585000064BD3F80833054A43F00103C2F8083376
:1058600000BF0C37BD465DF8047B704700000C425A
:1058700080B584B000AF104BFB60FB681B78002B39
:1058800016D00E4B00221A60EFF310833B603B688A
:10589000BB6072B600BF4FF48030FFF7EFFEBB680D
:1058A0007B607B6883F3108800BFFB6800221A705E
:1058B00000BF1037BD4680BD5447002000000C4299
:1058C00080B485B000AF78600A4BD3F88C200949CA
:1058D0007B681343C1F88C30064BD3F88C207B686F
:1058E0001340FB60FB6800BF1437BD465DF8047BC6
:1058F000704700BF000C024680B483B000AF7860F0
:10590000074BD3F88C207B68DB4305491340C1F873
:105910008C3000BF0C37BD465DF8047B704700BF7C
:10592000000C024680B483B000AF786039607B68B9
:105930001B6823F47C523B681B021A437B681A6085
:1059400000BF0C37BD465DF8047B704780B483B060
:1059500000AF78607B681B6843F001027B681A60C7
:1059600000BF0C37BD465DF8047B704780B483B040
:1059700000AF78607B681B6823F001027B681A60C7
:1059800000BF0C37BD465DF8047B704780B483B020
:1059900000AF78607B681B6843F002027B681A6086
:1059A00000BF0C37BD465DF8047B704780B483B000
:1059B00000AF78607B685B6803F40033B3F5003FA9
:1059C00001D1012300E0002318460C37BD465DF8E5
:1059D000047B704780B483B000AF78607B689B68BD
:1059E00043F400327B689A6000BF0C37BD465DF817
:1059F000047B704780B584B000AF1B4BFB60FB6835
:105A00001B78002B01D000232AE0FB6801221A70CA
:105A1000022000F0C9FAEFF310833B603B68BB60E3
:105A200072B600BF4FF40010FFF74AFFBB687B60FF
:105A30007B6883F3108800BF0C48FFF787FF00BF27
:105A40000A4B5B6803F00103002BF9D0074B9B68FE
:105A5000064A43F468139360022000F0D3FA01234E
:105A600018461037BD4680BD5847002000200C4224
:105A700080B483B000AF7860396006497B6803F575
:105A800080733A6841F8232000BF0C37BD465DF8AB
:105A9000047B704700200C4280B487B000AFF860F0
:105AA000B9607A60FB689A000D4B13447B610AE091
:105AB0007A68131D7B607B69191D796112681A6011
:105AC000BB68013BBB60BB68002BF1DC7B6900223B
:105AD0001A6000BF1C37BD465DF8047B704700BFED
