:020000040800F2
:1000000000000220AD780008D9770008D9770008F1
:10001000D9770008D9770008D9770008D977000880
:10002000000000000000000000000000D977000878
:10003000D977000800000000D9770008D9770008B8
:10004000D9770008D9770008D9770008D977000850
:10005000D9770008D9770008D9770008D977000840
:10006000D9770008D9770008D9770008D977000830
:10007000D9770008D9770008D9770008D977000820
:10008000D9770008D9770008D9770008D977000810
:10009000D9770008D9770008D9770008D977000800
:1000A000D9770008D9770008D9770008D9770008F0
:1000B000D9770008D9770008D9770008D9770008E0
:1000C000D9770008D9770008D9770008D9770008D0
:1000D000D9770008D9770008D9770008D9770008C0
:1000E000D9770008D9770008D9770008D9770008B0
:1000F000D9770008D9770008D9770008D9770008A0
:10010000D9770008D9770008D9770008D97700088F
:10011000D9770008D9770008D9770008D97700087F
:10012000D9770008D9770008D9770008D97700086F
:10013000D9770008D5240008D9770008D9770008B6
:10014000D9770008D977000899240008D9770008E2
:10015000D9770008D9770008D9770008D97700083F
:1001600010B5054C237833B9044B13B10448AFF3F1
:1001700000800123237010BDD00500200000000086
:10018000A082020808B5034B1BB103490348AFF333
:10019000008008BD00000000D4050020A0820208F5
:1001A00070B4840746D04C1E002941D0D5B2034616
:1001B00002E0611EE4B30C4603F8015B9907F8D135
:1001C000032C2ED9D5B245EA05250F2C45EA054565
:1001D00019D9264603F11001103E0F2E41F8105C8C
:1001E00041F80C5C41F8085C41F8045C01F1100135
:1001F000F2D8A4F1100121F00F0104F00F04103126
:10020000032C0B440DD91E4621460439032946F818
:10021000045BFAD8211F21F0030104310B4404F0E0
:1002200003042CB1D2B21C4403F8012BA342FBD12E
:1002300070BC70470C460346C2E7000053B94AB988
:10024000002908BF00281CBF4FF0FF314FF0FF30DE
:1002500000F0B0B9ADF1080C6DE904CE00F006F87D
:10026000DDF804E0DDE9022304B070472DE9F04F2A
:10027000099D884604468E46002B4AD18A4217467D
:100280005FD9B2FA82F64EB1C6F1200301FA06FE3A
:10029000B740B44020FA03F343EA0E0E4FEA174882
:1002A0001FFA87FC230CBEFBF8F108FB11EE01FBE3
:1002B0000CF243EA0E439A4207D9FB1801F1FF30D2
:1002C00002D29A4200F2548101469B1AA2B2B3FBB9
:1002D000F8F008FB103300FB0CFC42EA03429445A3
:1002E0000BD9BA1800F1FF332CBF01240024944528
:1002F00002D9002C00F03F81184640EA0140A2EBF1
:100300000C0200211DB1F2400023C5E90023BDE825
:10031000F08F8B4205D90DB1C5E9000100210846D7
:10032000F5E7B3FA83F100294ED14345C0F01281BD
:10033000824240F20F810846002DE8D0C5E9004E08
:10034000E5E7002A00F0AC80B2FA82F6002E40F019
:10035000BB808B1A4FEA124EBCB20121020C80B254
:10036000B3FBFEFC0EFB1C3342EA034304FB0CF21E
:100370009A420ED9FB180CF1FF382CBF4FF001093F
:100380004FF000099A4203D9B9F1000F00F0EC8058
:10039000C4469B1AB3FBFEF80EFB183304FB08F4AB
:1003A00040EA034294420BD9BA1808F1FF332CBF3C
:1003B00001200020944202D9002800F0D180984604
:1003C000121B48EA0C409DE7C1F120068B4008FA59
:1003D00001F400FA01F922FA06F728FA06F88A4031
:1003E0001F4320FA06F3380C23431FFA87FC1C0C2A
:1003F000B8FBF0FE00FB1E8844EA08440EFB0CF834
:10040000A0450ED93C190EF1FF3A2CBF4FF0010B5D
:100410004FF0000BA04503D9BBF1000F00F0B880EE
:10042000D646A4EB08041FFA83F8B4FBF0F300FBF4
:10043000134403FB0CFC48EA0444A4450ED93C19C0
:1004400003F1FF302CBF4FF001084FF00008A44526
:1004500003D9B8F1000F00F09F80034643EA0E4035
:10046000A4EB0C04A0FB02EC64457346E04602D307
:1004700007D1F14505D2BEEB02036CEB070C013846
:10048000E0465DB1B9EB030264EB080404FA06F63A
:1004900022FA01F3CC401E43C5E90064002136E78F
:1004A000B1FBF2FC010C144680B2964641EA0841C9
:1004B0002026904640EA01431046B1FBF2F1A3EB3F
:1004C000080341EA0C414BE7B740C6F1200301FAAB
:1004D00006F221FA03F84FEA174E20FA03F3BCB2F2
:1004E000B0401343020C190C80B2B8FBFEF90EFBAE
:1004F000198841EA084109FB04F8884551D979185F
:1005000009F1FF3C2CBF4FF0010A4FF0000A88456B
:1005100002D9BAF1000F31D0A1EB0801B1FBFEF90D
:1005200009FB04F80EFB19119BB243EA0143434552
:1005300035D2FB1809F1FF312CBF4FF0010A4FF003
:10054000000A4345BBD2BAF1000FB8D1A9F10201AC
:100550003B44B4E7841A68EB030201209646EBE6BD
:100560003A44A8F102082BE7ACF1020C3B4410E737
:1005700002393B44A9E63A440238BEE6A7EB080834
:10058000A9F1020C4144B1FBFEF909FB04F8C9E7EB
:10059000AEF1020E3C4444E7023B3C445EE7494670
:1005A0008DE7A1EB0801CC46B1FBFEF909FB04F88D
:1005B000B8E700BF704700BF80B500AF00F002F899
:1005C00000BF80BD80B500AF074B1B78002B05D066
:1005D000054B00221A7003201EF0F3FF00211020AB
:1005E00000F072FD00BF80BD6407002080B483B0BE
:1005F00000AFEFF310837B607B6818460C37BD4675
:100600005DF8047B704780B483B000AF78607B688E
:1006100083F3108800BF0C37BD465DF8047B70473C
:1006200080B400AF72B600BFBD465DF8047B704772
:1006300080B483B000AF78607B687A681A607B68AA
:100640007A685A6000BF0C37BD465DF8047B70477E
:1006500080B584B000AF7860FFF7C8FFF860FFF79F
:10066000DFFF7B681B687A689A420CBF0123002376
:10067000DBB2FB72F868FFF7C6FFFB7A184610374B
:10068000BD4680BD80B584B000AF78603960FFF7AB
:10069000ADFFF860FFF7C4FF7B681A683B681A601B
:1006A0003B687A685A607B683A681A603B681B68E6
:1006B0003A685A60F868FFF7A6FF00BF1037BD46DA
:1006C00080BD80B584B000AF78603960FFF78EFFE1
:1006D000F860FFF7A5FF3B687A681A607B685A6884
:1006E0003B685A607B683A685A603B685B683A6866
:1006F0001A60F868FFF787FF00BF1037BD4680BD5E
:1007000080B584B000AF7860FFF770FFF860FFF746
:1007100087FF7B685B687A6812681A607B681B6871
:100720007A6852685A60F868FFF76DFF00BF1037AB
:10073000BD4680BD80B584B000AF78603960FFF7FA
:1007400055FFF860FFF76CFF7B681A683B681A601A
:100750007B681B681846FFF7D3FFF868FFF753FF65
:1007600000BF1037BD4680BD80B584B000AF786053
:100770003960FFF73BFFF860FFF752FF7B681A68AC
:100780003B681A60F868FFF73EFF00BF1037BD46B0
:1007900080BD000080B500AF0448FFF749FF044A60
:1007A0000021802000F074FC00BF80BDEC0500201B
:1007B0009908000880B586B002AF03463960FB8017
:1007C000FB88184600F048F80023FB6007F10C0294
:1007D00000230921012001F037F80346002B01D046
:1007E000642331E0FB68FA881A81FB6819461848CF
:1007F000FFF767FFFB6803F10C00FB680093154BE4
:100800000022396800F008FD0346002B09D0FB6880
:100810001846FFF775FFFB68184601F04BF9912366
:1008200012E0FB680C33184600F02CFD0346002B49
:1008300009D0FB681846FFF763FFFB68184601F014
:1008400039F9912300E0002318461037BD4680BDDA
:10085000EC050020C908000880B584B000AF03464D
:10086000FB80FB8819460B4800F040F8F860FB68F5
:10087000002B0AD0FB680C33184600F093FDF86893
:10088000FFF73EFFF86801F015F900BF1037BD46CD
:1008900080BD00BFEC05002080B500AF094B1B6890
:1008A0001B8918461FF0A4FCFFF78CFE054B1B6844
:1008B0001846FFF725FF034B1B68184601F0FAF8AE
:1008C00000BF80BDF405002080B582B000AF786025
:1008D000054A7B6813600021802000F0F5FB00BF13
:1008E0000837BD4680BD00BFF405002080B584B048
:1008F00000AF78600B467B807B681B68FB600DE077
:10090000FB681B897A889A4201D1FB680BE0FB687F
:1009100007F10C0211461846FFF726FFFB687A68BC
:100920009A42EDD1002318461037BD4680BD000025
:1009300080B400AF064B00221A74064B00221A70D6
:10094000054B00221A7400BFBD465DF8047B70475A
:10095000F80500200C0600201006002080B483B0AB
:1009600000AF7860094B1B7C1946084A7B6842F847
:100970002130064B1B7C0133DAB2044B1A7400BFE2
:100980000C37BD465DF8047B704700BFF8050020BA
:1009900080B586B000AF78607B6801333B6100238F
:1009A000FB753B691B78FF2B3DD13B690233FB6034
:1009B000FB681B889BB203F47F43B3F5406F18D1EB
:1009C00000237B750DE07B7D304A52F82330786838
:1009D00098470346FB75FB7D002B08D17B7D0133D7
:1009E0007B752A4B1B7C7A7D9A42ECD31AE000BFC0
:1009F00018E000237B750DE07B7D254A52F82330FB
:100A0000786898470346FB75FB7D002B08D17B7DFA
:100A100001337B751E4B1B7C7A7D9A42ECD300E040
:100A200000BF00BF13E000237B750AE07B7D184AFE
:100A300052F82330786898470346FB757B7D013375
:100A40007B75134B1B7C7A7D9A42EFD300BFFB7DF5
:100A5000022B0FD0022B10DC002B02D0012B06D072
:100A60000BE0786802F010FE0346BB7508E0012336
:100A7000BB7505E00023BB7502E00123BB7500BF19
:100A8000BB7D18461837BD4680BD00BFF805002065
:100A90001006002080B586B000AF78600023FB60B0
:100AA0003E4B1A687B681340002B72D17B68002B89
:100AB0000DD008227B6813447B607B6803F007033A
:100AC000002B04D07B6823F0070308337B607B682E
:100AD000002B5ED0324B1B687A689A4259D8314B52
:100AE0003B61304B1B687B6104E07B693B617B6948
:100AF0001B687B617B695B687A689A4203D97B6972
:100B00001B68002BF1D1284B1B687A699A4240D0B0
:100B10003B691B6808221344FB607B691A683B69C8
:100B20001A607B695A687B68D21A08235B009A4274
:100B30000FD97A697B681344BB607B695A687B680C
:100B4000D21ABB685A607B697A685A60B86800F04C
:100B5000CFF8134B1A687B695B68D31A104A13608D
:100B60000F4B1A68114B1B689A4203D20C4B1B683F
:100B70000E4A13607B695A68084B1B681A437B69ED
:100B80005A607B6900221A60094B1B680133084ACE
:100B90001360FB6818461837BD4680BD400600202C
:100BA00030060020240600202C06002034060020F9
:100BB0003806002080B584B000AF78607B68FB60A9
:100BC0007B68002B28D008235B42FA681344FB6043
:100BD000FB68BB60BB685A68114B1B681340002B55
:100BE0001AD0BB681B68002B16D1BB685A680C4B27
:100BF0001B68DB431A40BB685A60BB685A68094BE4
:100C00001B681344074A1360B86800F071F8064B7C
:100C10001B680133044A136000BF1037BD4680BD16
:100C200040060020300600203C06002080B487B03B
:100C300000AF786039603B683B617B687B617B69B2
:100C400003F00703002B0CD07B6907337B617B69C2
:100C500023F007037B617A687B69D31A3A691344EE
:100C60003B617B69FB601D4AFB6813601B4B0022E4
:100C70005A60FB683A6913447B6108227B699B1ABE
:100C80007B617B6923F007037B617B69144A1360F6
:100C9000134B1B6800225A60114B1B6800221A601C
:100CA000FB68BB60BB687A69D21ABB685A600C4BA0
:100CB0001A68BB681A60BB685B680A4A1360BB6845
:100CC0005B68094A1360094B4FF000421A6000BF8D
:100CD0001C37BD465DF8047B704700BF240600202A
:100CE0002C0600203406002030060020400600209C
:100CF00080B485B000AF7860284BFB6002E0FB68F1
:100D00001B68FB60FB681B687A689A42F7D8FB682F
:100D1000BB60FB685B68BA6813447A689A4208D182
:100D2000FB685A687B685B681A44FB685A60FB681A
:100D30007B607B68BB607B685B68BA681A44FB6851
:100D40001B689A4218D1FB681A68154B1B689A42B7
:100D50000DD07B685A68FB681B685B681A447B6827
:100D60005A60FB681B681A687B681A6008E00C4BC5
:100D70001A687B681A6003E0FB681A687B681A606F
:100D8000FA687B689A4202D0FB687A681A6000BFF2
:100D90001437BD465DF8047B704700BF2406002071
:100DA0002C06002080B590B000AF7860864B1B68A1
:100DB000FB61854B1A687B681340834A1360834B41
:100DC0001B687B63824B1B683B63824B1B68FB6227
:100DD000814B1B68BB620CE10023FB6302E0FB6BF1
:100DE0000133FB637D4AFB6B52F83320FB6A1A40E8
:100DF000754B1B681340002BF1D0784AFB6B52F8FF
:100E00003320FB6A1A40704B1B681340BB63734A64
:100E1000FB6BDB0013445A68BB6B1340002B06D1FD
:100E20006E4AFB6BDB0013444FF0FF325A60674B96
:100E30001B68BB61694AFB6BDB0013445B68DA43E8
:100E4000674B1B681343664A1360654B1B68DB43A3
:100E5000BA691340BB61BA69BB6B1340002B03D066
:100E6000BA6BBB691340BB63BB69002B02D15C4BFF
:100E700000221A60594AFB6BDB0013445A68BB6BB3
:100E80001340184600F080F903461A46554B1A6085
:100E9000EFF310837B6172B6524B1B68012202FA9A
:100EA00003F3DA43494B1B681340484A136002239B
:100EB000FB6313E0FB6B013B484A52F83310494B8C
:100EC0001B68012202FA03F3DA43FB6B013B0A4081
:100ED000424941F83320FB6B013BFB63FB6B002B6A
:100EE000E8D17B6983F310883E4B1B68184600F0FD
:100EF0002BF93C4B1B681F2B78D83A4B1B683A4A9E
:100F000052F82330002B71D000237B621EE0334A5D
:100F10007B6ADB0013445A68324B1B68012101FADB
:100F200003F3DB431A402D497B6ADB000B445A6014
:100F30002A4A7B6ADB0013445A687B6A9B00403371
:100F40003B4443F8382C7B6A01337B627B6A012B7C
:100F5000DDD9244B1B68244A52F8233098470023DC
:100F60003B6213E01D4A3B6ADB0013445A683B6A4C
:100F70009B0040333B4453F8383C1A4017493B6AC6
:100F8000DB000B445A603B6A01333B623B6A012B36
:100F9000E8D9144B1B68184600F0E0F80B4B1B68AF
:100FA0007B630B4B1B683B630A4B1B68FB620A4B62
:100FB0001B68BB620B4B1B6801229A40084B1B68E5
:100FC0001343074A136014E0040000204406002085
:100FD00048060020000000204C060020D406002017
:100FE000E40600205006002054060020002000F0F7
:100FF000BFF87A6BFB6A1A401F4B1B681340002B2B
:1010000005D03A6BBB6A1340002B3FF4E5AE1B4B97
:101010004FF0FF321A601A4B1A683B6B1340002BDB
:1010200023D102F0D5F8EFF310833B6172B6154B74
:101030001B687B63144B1B683B63144B1B68FB6290
:101040007A6BFB6A1A400C4B1B681340002B07D1CC
:101050000B4B1A683B6B1340002B01D102F0A0F838
:101060003B6983F3108802F0BBF8034AFB69136005
:1010700000BF4037BD4680BD040000205006002060
:101080004C060020440600204806002000000020F6
:1010900080B586B000AFF860B9607A60EFF3108376
:1010A0007B6172B6F86800F06FF803461946054A8E
:1010B0007B6842F821307B6983F3108800BF1837C2
:1010C000BD4680BD5406002080B485B000AF786076
:1010D0003960EFF31083FB6072B60C4B1A687B68C3
:1010E00013430A4A13600A4A3B6852F833207B686C
:1010F0001A4307493B6841F83320FB6883F31088A3
:1011000000BF1437BD465DF8047B704744060020DD
:10111000D406002080B485B000AF7860EFF3108370
:10112000FB6072B6074B1A687B681343054A13606D
:10113000FB6883F3108800BF1437BD465DF8047B5D
:10114000704700BF4806002080B483B000AF7860CD
:1011500000BF0C37BD465DF8047B704780B483B098
:1011600000AF786000BF0C37BD465DF8047B704768
:1011700080B483B000AF0346FB7100BF0C37BD469F
:101180005DF8047B7047000080B485B000AF7860E4
:101190000023FB737B68BB60BB68B3F5803F04D260
:1011A0001023FB73BB681B04BB60BB68B3F1807F7B
:1011B00005D2FB7B0833FB73BB681B02BB60BB68BB
:1011C000B3F1805F05D2FB7B0433FB73BB681B016B
:1011D000BB60BB681B0F074AD25CFB7B1344FB73ED
:1011E000FB7BC3F11F03DBB218461437BD465DF825
:1011F000047B7047D083020880B500AF044B002207
:101200001A60044B1B6898470346184680BD00BF10
:10121000E8060020EC83020880B584B000AFF860D7
:10122000B9603B601346FB71FB68002B23D03B6821
:10123000002B20D0FB6800221A60114B5B6AB86853
:1012400098470246FB685A60FB6800221A72FB68E6
:1012500000225A72FB6800229A72FB683A68DA60D0
:10126000FB68BA691A61FB68FA79DA72FB680022D6
:101270005A61002300E0012318461037BD4680BDA7
:10128000EC83020880B588B000AF78600023FB775C
:101290007B68002B50D0786800F0F0F8034683F0AC
:1012A0000103DBB2002B47D07B685B7A002B43D174
:1012B000EFF310837B6172B67B685B68BB61224B86
:1012C0001B6A98473861BA693B699A4201D23B6907
:1012D000BB617B68BA691A607B6800221A727B68FE
:1012E00001225A727B6800229A72184B1B68002BED
:1012F00006D1154B1B699847786800F037F917E05D
:10130000114B9B699847F8607B681A68FB681A4420
:101310007B681A607B681A680C4B1B681B689A42D2
:1013200003D2786800F022F902E0786800F0EEF865
:101330007B6983F3108801E00123FB77FB7F18466C
:101340002037BD4680BD00BFEC830208E8060020C0
:1013500080B584B000AF786039600023FB737B6890
:10136000002B02D10123FB7314E00D4B5B6A38683C
:10137000984702467B685A60786800F07FF8034619
:10138000002B02D0786800F00DF87868FFF77AFF3C
:101390000346FB73FB7B18461037BD4680BD00BF7C
:1013A000EC83020880B586B000AF78600023FB753F
:1013B0007B68002B56D0EFF31083BB6072B62D4BC9
:1013C0001B683B612B4B1B68FB607B6801229A7298
:1013D000284B1B68002B41D07B6800225A72254B9A
:1013E0001B687A689A4234D1224B1B6800221A7219
:1013F000204B1B685B69002B0AD01E4B1B685B6986
:101400001C4A13601B4B1B68184600F055F823E07C
:10141000194BDB689847174B00221A601CE0FA68EA
:101420007B689A4210D1FB685B69002B06D0FB6891
:101430005B69FB603B69FA685A610DE00023FB6061
:101440003B69FA685A6107E0FB683B61FB685B69CE
:10145000FB60FB68002BE2D10023FB75BB6883F3C4
:10146000108801E00123FB75FB7D18461837BD4647
:1014700080BD00BFE8060020EC83020880B485B080
:1014800000AF78600B4B1B68FB6008E0FA687B6874
:101490009A4201D1012306E0FB685B69FB60FB68AF
:1014A000002BF3D1002318461437BD465DF8047BAA
:1014B000704700BFE806002090B585B000AF7860A7
:1014C000114B1B6A9847F8607B6801221A727B688F
:1014D0001C680D4B9B6998470246FB6813449C426D
:1014E00007D2094B9B6998470246FB681A447B6800
:1014F0001A60054B9B687A6812681046984700BFCF
:101500001437BD4690BD00BFEC83020880B485B09F
:1015100000AF7860144B1B68FB60134B1B685B6962
:10152000BB6012E07B681A68BB681B689A4205D9E9
:10153000BB68FB60BB685B69BB6006E0FB687A6800
:101540005A617B68BA685A6109E0FB685B69002BE5
:10155000E8D1FB687A685A617B6800225A611437C7
:10156000BD465DF8047B7047E806002080B584B076
:1015700000AF78600B4B1B68FB60FB68002B02D050
:10158000FB6800221A727B68FA685A61054A7B6818
:101590001360044B1B681846FFF78EFF00BF10371F
:1015A000BD4680BDE806002080B586B000AF7860FB
:1015B0000123FB7500233B61994B1B78012B02D162
:1015C0000C23FB7527E17B68002B02D10223FB75FE
:1015D00021E17B681B68002B02D10323FB751AE114
:1015E0007B681B6803F00303002B02D00323FB7509
:1015F00011E17B685B68002B02D10323FB750AE1D4
:101600007B689B68002B06D07B68DB68002B02D1CF
:101610000423FB75FFE07B689A6813465B00134464
:101620003B610023FB6028E07B68DA68FB68DB0035
:1016300013445B683A6913443B617B68DA68FB6872
:10164000DB0013441B78002B02D10423FB7511E04F
:101650007B68DA68FB68DB0013445B68002B02D10F
:101660000423FB7506E07B685B683A699A4201D9FE
:101670000423FB75FB680133FB607B689B68FA6899
:101680009A4202D2FB7D012BCED0FB7D012B40F094
:10169000C280644B00221A60634B00221A60634BC5
:1016A00000221A60624B00221A60624B00221A600C
:1016B000614B00221A60614B00221A605F4B0022CE
:1016C0005A605E4B00229A605D4B00221A605C4BB0
:1016D00000225A605B4B00221A605A4B00225A606B
:1016E000564801F0DDFC554B1B68002B07D0534BCF
:1016F0005B68002B03D0514B9B68002B02D1052364
:10170000FB7588E07B681B68464A13607B685B68F2
:10171000454A1360494B1B68424A126842490968AE
:1017200010469847454B59687B689A6813465B009A
:1017300013441846884703463F4A13603E4B1B68D4
:10174000002B06D17B689B68002B02D00623FB751B
:1017500061E03B48FEF76CFF3A48FEF769FF7B68A3
:101760009B68344A1360334B1A6813465B001A4473
:101770002E4B1B6813442D4A13600023BB6040E0CE
:101780007B68DA68BB68DB00D1182B4B1868BA6835
:1017900013465B0013449B0003440A781A707B686D
:1017A000DA68BB68DB00D118234B1868BA681346A7
:1017B0005B0013449B0003444A68C3F801201E4B9E
:1017C0001968BA6813465B0013449B000B4400225F
:1017D0005A7100229A710022DA7100221A72164B95
:1017E0001968BA6813465B0013449B000B44D3F896
:1017F00001200F4B1B6813440D4A1360BB68013373
:10180000BB600C4B1B68BA689A42B9D3044B0122E7
:101810001A700023FB75FB7D18461837BD4680BD46
:10182000EC060020F0060020F4060020F806002058
:10183000FC06002000070020040700200807002005
:10184000140700201C07002080B58AB000AFB960E3
:101850007A603B600346FB73012387F8273000233F
:101860003B620023BB617B6800221A608A4B1B78B5
:10187000002B03D10D2387F8273007E1BB68002B2D
:1018800003D10A2387F8273000E1FB7B002B40D1EE
:10189000EFF310833B6172B6804B1A68804B1B6874
:1018A000D21A804B1B68D31ABA689A4227D27E4B51
:1018B0005B68BA68013210469847B861BB69002B73
:1018C00016D0FB7B1A06BB6823F07F431A43BB6923
:1018D0001A60BB691A1D7B681A60714B1A68BB6875
:1018E000134401336E4A1360002387F827300CE05D
:1018F000386800F0E3F90B2387F8273005E03868F3
:1019000000F0DCF90A2387F827303B6983F310885D
:10191000BCE0092387F82730EFF310837B6172B6B0
:101920000023FB61A5E0614B1968FA6913465B006F
:1019300013449B000B441B78FA7B9A4240F096803C
:101940005A4B1968FA6913465B0013449B000B4419
:10195000D3F80510554B1868FA6913465B00134419
:101960009B000344D3F80130994215D24F4B1968BC
:10197000FA6913465B0013449B000B44D3F8011033
:101980004A4B1868FA6913465B0013449B000344F2
:10199000D3F80530CB1A3B62404B1A68404B1B68AA
:1019A000D21A404B1B68D21A3B6A1344BA689A4257
:1019B00056D23D4B5B68BA68013210469847B86111
:1019C000BB69002B45D0FB7B1A06BB6823F07F4325
:1019D0001A43BB691A60BB691A1D7B681A60334BD6
:1019E0001968FA6913465B0013449B000B44D3F853
:1019F0000520BB68D1182D4B1868FA6913465B00A7
:101A000013449B0003444A1CC3F80520274B196864
:101A1000FA6913465B0013449B000B44D3F8011092
:101A2000224B1868FA6913465B0013449B00034479
:101A3000D3F80530994208D2194B1A68BB681A448A
:101A40003B6AD31A0133164A1360002387F8273004
:101A50000CE0386800F032F90B2387F8273005E0F6
:101A6000386800F02BF90A2387F82730FB69013327
:101A7000FB610F4B1B68FA699A4204D297F8273032
:101A8000092B3FF450AF7B6983F3108897F8273018
:101A900018462837BD4680BDEC060020F40600201D
:101AA000F8060020FC06002008070020040700209C
:101AB0000007002080B58AB000AF7860012387F866
:101AC00027300023FB770023BB6100237B610023C9
:101AD0003B61684B1B78002B03D10D2387F827301F
:101AE000C1E07B68002B03D1022387F82730BAE0DE
:101AF0007B6803F00303002B03D0072387F827300C
:101B0000B1E05D4B1A685D4B1B689B0013447A681B
:101B10009A4204D8584B1B687A689A4203D2082329
:101B200087F827309FE0EFF31083FB6072B67B6885
:101B3000043B3B613B691B681B0EFB773B691B68E1
:101B400023F07F437B617B6901337B614C4B9B6856
:101B500038699847FB7F002B09D14A4B1A687B698B
:101B6000D31A484A1360002387F8273074E009230A
:101B700087F8273000233B6265E0434B19683A6AD7
:101B800013465B0013449B000B441B78FA7F9A4278
:101B900056D13D4B19683A6A13465B0013449B00CB
:101BA0000B44D3F80510384B18683A6A13465B00AB
:101BB00013449B000344D3F80130CB1ABB61BB69CB
:101BC000002B24DDBB697A699A421AD92E4B196819
:101BD0003A6A13465B0013449B000B44D3F8011090
:101BE000294B18683A6A13465B0013449B00034470
:101BF000D3F80530CA1A234B1B681344214A1360DB
:101C000005E0204B1A687B69D31A1E4A13601E4BED
:101C100019683A6A13465B0013449B000B44D3F8DF
:101C20000510194B18683A6A13465B0013449B0071
:101C300003447A698A1AC3F80520002387F82730FD
:101C40003B6A01333B62114B1B683A6A9A4203D2EA
:101C500097F82730092B90D000F042F8FB6883F307
:101C6000108801F037FA97F8273018462837BD4614
:101C700080BD00BFEC060020F0060020F406002026
:101C800008070020F80600200407002000070020B5
:101C900080B582B000AF00237B6000F041F878602F
:101CA0007B68002B02D07B689B6898477B68002B81
:101CB000F3D100BF00BF0837BD4680BD80B582B0FC
:101CC00000AF78607B68002B03D079680348FEF78B
:101CD000F8FC00BF0837BD4680BD00BF14070020D8
:101CE00080B582B000AF00237B6009E03B1D194640
:101CF0000948FEF71FFD7B6819460848FEF7E1FC1E
:101D00000548FEF7A5FC0346002BEFD000BF00BF3F
:101D10000837BD4680BD00BF140700201C07002007
:101D200080B582B000AF00237B600848FEF790FCCE
:101D30000346002B04D13B1D19460448FEF7FAFC6C
:101D40007B6818460837BD4680BD00BF1C070020D1
:101D500080B483B000AF78607B6803F01F027B68BB
:101D60005B0903F1382340339B001946012393405C
:101D70000B6000BF0C37BD465DF8047B704780B434
:101D800083B000AF78607B6803F01F027B685B095B
:101D900003F1382360339B001946012393400B6005
:101DA00000BF0C37BD465DF8047B704780B485B03A
:101DB00000AF78600B46FB707B6803F1604303F56E
:101DC0006443FB60FB781B01DAB2FB681A7000BF4A
:101DD0001437BD465DF8047B704780B483B000AF14
:101DE00078607B6803F01F027B685B0903F138238E
:101DF00080339B001946012393400B6000BF0C37D2
:101E0000BD465DF8047B704780B582B000AF786056
:101E10007868FFF79DFF00BF0837BD4680BD80B5DD
:101E200082B000AF78607868FFF7A9FF00BF08377D
:101E3000BD4680BD80B582B000AF78600B46FB70B8
:101E4000FB7819467868FFF7B1FF00BF0837BD4639
:101E500080BD000080B400AF064B1B6803F4003364
:101E6000002B14BF01230023DBB21846BD465DF8EA
:101E7000047B7047000C024680B483B000AF7860EA
:101E8000074B1A6806497B6813430B60054B1B68B8
:101E9000044B1B6800BF0C37BD465DF8047B7047E0
:101EA000940C0246000C024680B483B000AF786008
:101EB000074B1A6806497B6813430B60054B1B6888
:101EC000044B1B6800BF0C37BD465DF8047B7047B0
:101ED000980C0246000C024680B400AF054B1B680C
:101EE000044A43F00103136000BFBD465DF8047B64
:101EF000704700BFC00C024680B400AF054B1B68A2
:101F0000044A23F00103136000BFBD465DF8047B63
:101F1000704700BFC00C024680B500AF0420FFF739
:101F2000ABFF044B1B68034A43F00103136000BF7F
:101F300080BD00BF2808024680B483B000AF78603F
:101F4000084B1B6823F440227B689B0403F4402366
:101F5000044913430B6000BF0C37BD465DF8047B9A
:101F6000704700BFF00C024680B400AF044B1B6802
:101F70009B0C03F003031846BD465DF8047B7047D5
:101F8000F00C024680B485B000AF78607B685B09D6
:101F900003F13823C0339B00FB60FB681A687B6841
:101FA00003F01F0322FA03F303F00103184614376A
:101FB000BD465DF8047B704780B483B000AFEFF39B
:101FC00010837B607B6818460C37BD465DF8047B48
:101FD000704780B483B000AF78607B6883F310886B
:101FE00000BF0C37BD465DF8047B704780B400AF7E
:101FF00072B600BFBD465DF8047B704780B483B005
:1020000000AFEFF311837B607B6818460C37BD4649
:102010005DF8047B704780B483B000AF78607B6864
:1020200083F3118800BF0C37BD465DF8047B704711
:1020300080B483B000AF78607B6883F3128800BF00
:102040000C37BD465DF8047B704780B500AFFFF7E5
:102050008BFF0346002B04D1FFF75EFF0220FFF742
:102060006BFF0120FFF720FF00BF80BD80B500AFF0
:10207000084B1B78012B0AD1064B00221A7000BFB7
:1020800016F0BAFE0246044B1B689A42F8D000BF15
:1020900080BD00BF3C0700204007002080B582B013
:1020A00000AF0346FB71FB79002B0CD00B4B1B6878
:1020B0000A4A43F00203136000BFFFF7CBFE03465A
:1020C000002BFAD005E0054B1B68044A23F00203FD
:1020D000136000BF0837BD4680BD00BF080E024632
:1020E00080B584B000AF786039603B68FB6011E078
:1020F0000023BB6007F108031946012000F0B6FD7C
:102100003A68FB68D31A7A681344BA681A60FB68A5
:10211000043BFB60FB68032BEAD8FB68002B12D062
:102120000023BB6007F108031946012000F09EFD63
:102130003A68FB68D31A7A68134407F10801FA6811
:10214000184626F0A0F800BF1037BD4680BD00003D
:1021500080B582B000AF7860064A7B6813600021CA
:102160004220FFF767FE4220FFF74EFE00BF083710
:10217000BD4680BD4407002080B582B000AF7860C6
:10218000064A7B6813600F213D20FFF753FE3D2078
:10219000FFF73AFE00BF0837BD4680BD4807002064
:1021A00080B584B000AF0346FB710523FB733D206F
:1021B000FFF7E8FE0346002B0AD1FB79002B01D183
:1021C0000F23FB73FB7B19463D20FFF733FE05E031
:1021D000FB79002B02D0054B01221A703D20FFF73E
:1021E000FCFD00BF1037BD4680BD00BF4C0700207E
:1021F00080B500AF0A4B1B68002B03DD084B1B6842
:10220000013B00E00023064A1360054B1B68002BCE
:1022100004D1044B1B681846FFF7DBFE00BF80BDEE
:10222000340700202407002080B500AF084B1B684E
:10223000002B04D1FFF7C0FE0346064A1360FFF7E8
:10224000D5FE034B1B680133014A136000BF80BDFC
:10225000340700202407002080B582B000AF034679
:10226000FB71FB7903F00103002B0BD0194B1B68AA
:10227000013B184A1360174B1B68002B02D1422008
:10228000FFF7C2FDFB7903F00203002B0BD0124BCA
:102290001B68013B104A13600F4B1B68002B02D1D7
:1022A0003D20FFF7B1FDFB7903F00403002B0DD0B7
:1022B0000A4B1B68013B094A1360084B1B68002B43
:1022C00004D1074B1B681846FFF7A5FE00BF08376F
:1022D000BD4680BD280700202C07002030070020C5
:1022E0003807002080B582B000AF0346FB71FB7950
:1022F00003F00103002B0BD01B4B1B6801331A4A60
:102300001360194B1B68012B02D14220FFF787FD98
:10231000FB7903F00203002B0BD0144B1B68013335
:10232000124A1360114B1B68012B02D13D20FFF7AD
:1023300076FDFB7903F00403002B10D00C4B1B68D7
:1023400001330B4A13600A4B1B68012B07D1FFF7BF
:1023500055FE0346074A13605020FFF769FE00BF91
:102360000837BD4680BD00BF280700202C0700208D
:10237000300700203807002080B500AFFFF7ACFD24
:1023800000214220FFF756FD00BF80BD80B500AFA1
:10239000FFF7B2FD05214220FFF74CFD00BF80BDD5
:1023A00080B500AF00BFFFF755FD0346002BFAD004
:1023B00000BF00BF80BD80B400AF00BFBD465DF868
:1023C000047B704780B483B000AF78607B6803F013
:1023D0001F027B685B0903F1382340339B001946D9
:1023E000012393400B6000BF0C37BD465DF8047BB2
:1023F000704780B483B000AF78607B6803F01F0241
:102400007B685B0903F1382360339B001946012385
:1024100093400B6000BF0C37BD465DF8047B7047EE
:1024200080B485B000AF78600B46FB707B6803F129
:10243000604303F56443FB60FB781B01DAB2FB6881
:102440001A7000BF1437BD465DF8047B704780B535
:1024500082B000AF78607868FFF7B4FF00BF08373C
:10246000BD4680BD80B582B000AF78607868FFF768
:10247000C0FF00BF0837BD4680BD80B582B000AF49
:1024800078600B46FB70FB7819467868FFF7C8FF49
:1024900000BF0837BD4680BD80B500AF0A4B1B6842
:1024A0000133094A1360094B1B68002B02D0074B0C
:1024B0001B689847064B1B68054A23F0040313600A
:1024C000BFF36F8F00BF80BD50070020440700207E
:1024D000080E024680B500AF3D20FFF7C3FF0C4B4E
:1024E0001B68002B02D00A4B1B689847094B1B78CE
:1024F000DBB2002B06D005213D20FFF7BEFF054BC8
:1025000000221A703D20FFF7A2FF00BF80BD00BF70
:10251000480700204C07002080B400AF044B1B6824
:102520009B0C03F003031846BD465DF8047B70471F
:10253000F00C024680B500AF034A00210220FEF7EE
:10254000A7FD00BF80BD00BFB92E000880B500AF59
:1025500000210220FEF7B8FD00BF80BD80B500AFAE
:1025600000210220FEF7B0FD00BF80BD80B500AFA6
:10257000012101201BF0D4FA00F015F800201BF017
:10258000D3FA00BF80BD80B582B000AFFFF7C4FFB3
:1025900078607B68012B01D1002300E000231846FE
:1025A0000837BD4680BD80B582B000AF00237B8078
:1025B000FFF7B2FF78607B68032B0CD07B68032B9E
:1025C00010D87B68012B03D07B68022B06D009E072
:1025D00000237B6007E001237B6004E002237B6033
:1025E00001E0FFE7FDE77B68DBB2BA1C1146184645
:1025F0001BF098FA00BF0837BD4680BD80B582B099
:1026000000AF0D23FB710A23BB71FFF7CCFFFFF76F
:10261000BAFF03467B717B7918460CF0A5F8FFF7EB
:102620007BFF0346032B06D1FB790933FB71BB7992
:102630000333BB7105E0FB790633FB71BB790433CF
:10264000BB71FB790D2B02D1BB790A2B05D0BA796E
:10265000FB791146184616F0C6FB00BF0837BD4689
:1026600080BD000080B483B000AF7860044B0122CD
:102670001A7000BF0C37BD465DF8047B704700BF81
:102680006407002080B584B000AF78600023FB6051
:1026900018F042FE07F10C0318460BF021F8FB6816
:1026A00018460BF05BFE78680CF0C5F804480CF097
:1026B000CEF800F007F800BF1037BD4680BD00BF60
:1026C0006526000880B582B000AF0E4B1B78012B49
:1026D00014D00C4B01221A7000F044FC0346FB712D
:1026E000FB79002B0CBF01230023DBB2184600F05E
:1026F0005DFBFFF71FFFFFF739FF00E000BF083762
:10270000BD4680BD5407002080B500AF00F0D8FA68
:1027100000F009FBFEF73EF800BF80BD80B586B033
:1027200002AFB9607B600346FB731346BB81BA8975
:10273000F87B3B8B00937B68B96800F038FC03465C
:1027400018461037BD4680BD80B584B002AF3B60EF
:102750000346FB710B46BB711346BB80F879BA8800
:10276000B9793B8A00933B6800F031FC0346184678
:102770000837BD4680BD80B582B000AF03463960E2
:10278000FB801346BB80BA88FB883968184600F086
:102790002FFC034618460837BD4680BD80B582B081
:1027A00000AF0346FB71FB79184600F030FC00BF18
:1027B0000837BD4680BD80B582B000AF03463960A2
:1027C000FB71FB793968184600F050FA00BF0837F2
:1027D000BD4680BD80B584B000AFF860B9607A6056
:1027E00001237A68B968F86800F071FA00BF103701
:1027F000BD4680BD80B582B000AF7860786800F0DB
:1028000076FA00BF0837BD4680BD80B584B000AF02
:10281000F860B9607A607A68B968F86800F071FAAF
:1028200000BF1037BD4680BD80B582B000AF786074
:10283000786800F086FA034618460837BD4680BD22
:1028400080B582B000AF786039603968786800F090
:1028500083FA034618460837BD4680BD80B582B06E
:1028600000AF03463960FB80FB8839681846FDF7E6
:10287000A1FF034618460837BD4680BD80B582B02B
:1028800000AF0346FB80FB881846FDF7E5FF00BF5D
:102890000837BD4680BD80B588B002AFF860B9602A
:1028A0007A603B603B6A00933B687A68B968F86875
:1028B0001EF083F80346FB75FB7D18461837BD46AE
:1028C00080BD80B584B000AF0346FB710B46BB7181
:1028D00013467B717A79B979FB7918461EF08AF82C
:1028E0000346FB73FB7B18461037BD4680BD80B5A1
:1028F00084B000AF03463A60FB710B46BB71B979F7
:10290000FB793A6818461EF0A5F80346FB73FB7B7B
:1029100018461037BD4680BD80B584B000AF034671
:102920000A46FB711346BB71BA79FB79114618460A
:102930001EF0A0F80346FB73FB7B18461037BD461C
:1029400080BD80B584B000AF0346FB80FB8818468D
:102950001EF0D8F80346FB73FB7B18461037BD46C4
:1029600080BD80B582B000AF1EF022FF0346FB7130
:10297000FB7918460837BD4680BD90B58DB008AFCD
:102980000446084611461A462346FB710346BB809F
:102990000B467B801346BB71BC797A88B988F8797D
:1029A0003B8F0693BB8E05933B6B049397F82C30BB
:1029B0000393BB6A029397F82430019397F8203071
:1029C000009323461EF0FAFD0346FB73FB7B18467B
:1029D0001437BD4690BD80B584B000AF0346FB718F
:1029E000FB79184623F018FB0346FB73FB7B184664
:1029F0001037BD4680BD90B58BB006AF0446084683
:102A000011461A462346FB710346BB710B467B7188
:102A100013463B713C797A79B979F87997F8303077
:102A20000493FB6A039397F82830029397F82430B5
:102A3000019397F820300093234623F0F7FA0346DA
:102A4000FB73FB7B18461437BD4690BD80B584B040
:102A500000AF03463960FB80FB883968184624F0D4
:102A60008BFA0346FB73FB7B18461037BD4680BDCF
:102A700080B586B002AF3B600346FB710B46BB716D
:102A800013467B717A79B979F879FB690193BB694F
:102A900000933B681EF006FC0346FB73FB7B184665
:102AA0001037BD4680BD80B584B000AF03463960A5
:102AB000FB71FB79396818461EF0B2FD0346FB73C3
:102AC000FB7B18461037BD4680BD80B584B000AF93
:102AD0000346FB71FB7918461EF02AFE0346FB7382
:102AE000FB7B18461037BD4680BD80B582B000AF75
:102AF0001EF0CAFE0346FB71FB7918460837BD4637
:102B000080BD80B584B000AF0346FB80FB881846CB
:102B100024F050FA0346FB73FB7B18461037BD4682
:102B200080BD80B584B000AF03460A46FB801346E3
:102B30007B717A79FB881146184625F099F903468E
:102B4000FB73FB7B18461037BD4680BD80B582B055
:102B500000AF1FF0C5FB0346FB71FB791846083731
:102B6000BD4680BD80B586B002AF396011461A46B9
:102B70000346FB710B46BB7113467B717979BA79B9
:102B8000F879BB6900930B4639681FF007FC0346D0
:102B9000FB73FB7B18461037BD4680BD80B58CB0FB
:102BA00006AFBA601A460346FB810B467B73134699
:102BB000FB80FA88797BF8897B6B059397F8303036
:102BC000049397F82C30039397F82830029397F8E2
:102BD0002430019397F8203000931346BA681FF011
:102BE000AFFF0346FB75FB7D18461837BD4680BD19
:102BF00090B587B002AF0446084611461A462346F0
:102C0000FB800346BB800B46FB701346BB70BC7851
:102C1000FA78B988F8883B6A009323461FF0E2FDF2
:102C20000346FB73FB7B18461437BD4690BD90B539
:102C300087B002AF0446084611461A462346FB8079
:102C40000346BB800B467B8013463B803C887A88DA
:102C5000B988F8883B8C0093234622F092F903460A
:102C6000FB73FB7B18461437BD4690BD80B485B01E
:102C700000AF03463960FB710023FB7310E000BF17
:102C80000D4B1B6803F00103002BF9D00B49FB7BB4
:102C90009B003A6813440A681A60FB7B0133FB739C
:102CA000FA7BFB799A42EAD300BF00BF1437BD46D6
:102CB0005DF8047B704700BF04080C4208080C4212
:102CC00080B400AF00BFBD465DF8047B704780B59F
:102CD00084B000AFF860B9607A603B6010220021D8
:102CE000786825F09FFA00BF1037BD4680BD80B4DC
:102CF00083B000AF786000BF0C37BD465DF8047B41
:102D0000704780B584B000AFF860B9607A607B68C6
:102D1000002B04D010220021786825F083FA00BF30
:102D20001037BD4680BD80B400AF00BFBD465DF822
:102D3000047B704780B400AF00BFBD465DF8047BE4
:102D4000704780B483B000AF7860002318460C371A
:102D5000BD465DF8047B704780B483B000AF7860F7
:102D60003960002318460C37BD465DF8047B704778
:102D700080B500AFFFF769F900BF80BD80B485B0B2
:102D800000AF78607A6813469B0013449A0013449E
:102D9000FB6000BFFB685A1EFA60002BFAD100BF2F
:102DA00000BF1437BD465DF8047B704780B483B024
:102DB00000AF0346FB71FB79002B01D100BFFDE79B
:102DC00000BF0C37BD465DF8047B704780B582B00C
:102DD00000AF7860396039687868FFF781F900BF23
:102DE0000837BD4680BD80B582B000AF0346FB7199
:102DF000FB791846FFF752F900BF0837BD4680BD82
:102E000080B500AFFFF732F900BF80BD80B582B05A
:102E100000AF78607868FFF79BF900BF0837BD46C0
:102E200080BD80B582B000AF78607868FFF7A4F904
:102E300000BF0837BD4680BD80B582B000AF0346F5
:102E4000FB71FB791846FFF7ABF900BF0837BD46A9
:102E500080BD80B582B000AF0346FB71FB79002BCB
:102E600002D0FFF789FA01E0FFF790FA00BF0837B8
:102E7000BD4680BD80B582B000AF0346FB71FB79D3
:102E8000002B02D0FFF78CFA01E0FFF794FA00BFA5
:102E90000837BD4680BD80B400AF00BFBD465DF8B9
:102EA000047B704780B483B000AF786000BF0C37FC
:102EB000BD465DF8047B704780B582B000AF124B11
:102EC0001B680133104A136017F0EEFD0346FB71D7
:102ED000FB790E4A1360FB79002B0AD10C4B1B685F
:102EE00001330B4A136000F045F817F025FDFDF79C
:102EF00063FB17F0D9FD0346002B01D1FFF726FB3A
:102F000000BF0837BD4680BD58070020600700207D
:102F10005C07002080B582B000AF0346FB71FB79EF
:102F20001846FFF799F900BF0837BD4680BD80B548
:102F300082B000AF0346FB71FB791846FFF7D2F968
:102F400000BF0837BD4680BD80B400AF00BFBD469E
:102F50005DF8047B704780B400AF00BFBD465DF8EC
:102F6000047B704780B400AF00231846BD465DF86F
:102F7000047B704780B400AF00231846BD465DF85F
:102F8000047B704780B400AF01231846BD465DF84E
:102F9000047B704780B485B000AFF860B9607A6098
:102FA000002318461437BD465DF8047B704780B493
:102FB00085B000AFB9607B600346FB731346BB81ED
:102FC000002318461437BD465DF8047B704780B473
:102FD00085B000AFF8607B600B46FB7213463B8107
:102FE0004FF0FF3318461437BD465DF8047B704739
:102FF00080B483B000AF03463960FB801346BB80CA
:10300000012318460C37BD465DF8047B704780B439
:1030100083B000AF786000BF0C37BD465DF8047B1D
:10302000704780B485B000AFF860B9607A6000BFC7
:103030001437BD465DF8047B704780B483B000AFA1
:103040007860002318460C37BD465DF8047B704756
:1030500080B582B000AF786039603B689B0019464C
:103060007868FDF7E3FD00BF0837BD4680BD80B539
:1030700082B000AF78607B689B001846FDF70AFDC0
:10308000034618460837BD4680BD80B582B000AF04
:1030900078607868FDF78EFD00BF0837BD4680BDBB
:1030A00080B483B000AF78607B68074A1A607B68A1
:1030B000064A5A607B68064A9A6000BF0C37BD46D4
:1030C0005DF8047B704700BF513000086F30000886
:1030D0008B30000880B500AF00212020FDF7F4FF01
:1030E00000BF80BD80B400AF00BFBD465DF8047B6B
:1030F000704780B483B000AF7860002318460C3767
:10310000BD465DF8047B704780B483B000AF786043
:103110003960002318460C37BD465DF8047B7047C4
:1031200080B400AF00231846BD465DF8047B7047AD
:1031300080B400AF00BFBD465DF8047B704780B42B
:1031400083B000AF7860396000BF0C37BD465DF8D2
:10315000047B704780B483B000AF786000BF0C3749
:10316000BD465DF8047B704780B483B000AF7860E3
:1031700000BF0C37BD465DF8047B704780B483B058
:1031800000AF786000BF0C37BD465DF8047B704728
:1031900080B400AF00BFBD465DF8047B70470000FF
:1031A00080B400AF084B1B68074A23F00403136088
:1031B000064B1B68054A43F00703136030BF00BF8E
:1031C000BD465DF8047B704710ED00E0042004E08C
:1031D00080B400AF00BFBD465DF8047B70470000BF
:1031E00080B400AF054B1B68044A43F00103136031
:1031F00000BFBD465DF8047B704700BF980C0246D7
:1032000080B483B000AF0346FB7100BF0C37BD46EE
:103210005DF8047B704780B483B000AF0346FB7158
:1032200000BF0C37BD465DF8047B704780B483B0A7
:1032300000AF78607B689B6823F0104323F017038E
:103240007A68936000BF0C37BD465DF8047B704719
:1032500080B483B000AF78607B689B6803F08053D4
:10326000B3F1805F01D1012300E0002318460C3741
:10327000BD465DF8047B704780B483B000AF7860D2
:103280007B689B6823F0004323F0170343F002029E
:103290007B689A6000BF0C37BD465DF8047B7047C1
:1032A00080B483B000AF78607B689B6803F0010353
:1032B000012B01D1012300E0002318460C37BD4645
:1032C0005DF8047B704780B483B000AF78607B68A2
:1032D0009B6803F01003102B01D1012300E00023B1
:1032E00018460C37BD465DF8047B704780B483B048
:1032F00000AF78607B6801221A6000BF0C37BD46C2
:103300005DF8047B7047000080B483B000AF786044
:10331000074BD3F894207B68DB4305491340C1F881
:10332000943000BF0C37BD465DF8047B704700BF8A
:10333000000C024680B582B000AF0923FB7100F09B
:10334000A1F80346FB71FB79002B0CD1084B00223E
:103350001A60084B084A1A60084B00221A6000F0F5
:103360003FF800F097F8FB7918460837BD4680BD56
:103370006C0700200C0000200010024668070020A7
:1033800080B584B000AF78600923FB737B68002BA5
:1033900002D10623FB731BE07B681B79012B02D152
:1033A0000323FB7314E000F06DF80346FB73FB7B13
:1033B000002B0DD1094B1B680133084A1360074BE2
:1033C0001A687B681A607B6801221A7100F062F843
:1033D000FB7B18461037BD4680BD00BF700700203C
:1033E00080B584B000AF0120FFF70AFFEFF3108330
:1033F000BB60BB68FB6072B600BF214B1B68184600
:10340000FFF74EFF0346002B2CD01D4B1B681846C0
:10341000FFF732FF1A4B1B681846FFF767FF00BF24
:10342000174B1B681846FFF73BFF0346012BF7D0ED
:1034300000BF134B1B681846FFF745FF0346012BDF
:10344000F7D00F4B1B681846FFF7F0FE00BF0C4B80
:103450001B681846FFF7FCFE0346012BF7D020201F
:10346000FFF752FFFB687B607B6883F3108800BF27
:103470000120FFF7D0FE00BF1037BD4680BD00BF62
:103480000C00002080B400AF00231846BD465DF854
:10349000047B704780B400AF00231846BD465DF83A
:1034A000047B704780B400AF044B1B68C3F30B036D
:1034B0001846BD465DF8047B704700BF004004E03D
:1034C00080B400AF044B1B681B0C9BB21846BD4672
:1034D0005DF8047B704700BF004004E080B400AF9B
:1034E000034B1B681846BD465DF8047B704700BF60
:1034F000000AF90B80B400AF034B1B68DBB218461F
:10350000BD465DF8047B7047040AF90B80B400AF38
:10351000034B1B681B0A1846BD465DF8047B7047C9
:10352000040AF90B80B400AF034B1B681846BD4674
:103530005DF8047B704700BF0007F90B80B400AF53
:10354000034B1B681846BD465DF8047B704700BFFF
:103550000407F90B80B400AF034B1B681846BD4647
:103560005DF8047B704700BF0807F90B80B400AF1B
:10357000044B1B6803F01F031846BD465DF8047B2F
:10358000704700BF0005F90B80B584B002AF344826
:10359000FDF74EF8334A00211020FDF779FD324A3D
:1035A00000210420FDF774FDFC2200212F48FFF7C5
:1035B000F1FC4FF4FC722D490020FFF732FD002092
:1035C000FFF73BFD0023009300230022FF21002092
:1035D000FFF7FDFC034613F1030F02D00320FFF7B2
:1035E00016FD00F0C7FA0346002B31D100F008FBAE
:1035F000FDF79EF91E4B00221A761D4B4FF6FF7207
:10360000DA821C4A00214FF48050FDF741FD00236F
:103610000093194B002200211848FDF7FDFD0023FF
:103620000093174B002200211648FDF7F5FD02F02C
:10363000B9F902F00DFB0620FFF783F90346FB7191
:10364000012000F0ABF94EF660210C48FDF780FE3A
:10365000074B002283F84C2000BF0837BD4680BDD1
:103660007407002005430008193F000800080020E7
:10367000A40700206F43000841430008C007002052
:103680005B430008D807002080B596B000AF786093
:10369000972387F857307B6801333B653B6D1B7878
:1036A000FF2B00F0F980FF2B00F365813E2B3FD00C
:1036B0003E2B00F36081052B02D0102B34D05AE151
:1036C0003B6D0233FB60FB68B3F801309AB2AD4B3F
:1036D000DB8A9A4205D1AB4B0022DA82A94B002249
:1036E0001A7600F01AFEA84B01221A70A74B01228D
:1036F0001A70FB68B3F801309AB2A34B5A80FB688A
:10370000B3F801309AB2A14B5A809F4802F036F9C3
:103710009E4802F089FA012000F040F94EF660213F
:103720009B48FDF715FE27E13B6D02333B6123E12A
:103730003B6D02333B633B6B1B78013B0B2B00F271
:10374000A98001A252F823F01D380008953800081E
:103750007937000895380008953800089538000832
:10376000953800089538000895380008A5370008F6
:10377000953800089937000800233B623B6B013302
:10378000FB61FB69B3F803309BB21A4640F2E24397
:1037900002FB03F33B627EE03B6B0133FB6200F014
:1037A000BCFD78E00023BB623B6B01337B627B6A2C
:1037B000B3F817309BB21A4640F2E24302FB03F320
:1037C000BB62704B1B7E012B03D16E4B03221A761A
:1037D00002E06C4B02221A767B6AB3F801309AB28F
:1037E000684BDA82684B00221A70684B00221A700C
:1037F0007B6AB3F801309AB2634B5A807B6AB3F8A4
:1038000001309AB2614B5A805F4802F0B7F85F48C6
:1038100002F00AFA5E48FDF7C5FD3CE00023BB61FB
:103820003B6B01337B617B69B3F80B309BB21A466B
:1038300040F2E24302FB03F3BB61524B1B7E012BC0
:1038400003D1504B03221A7602E04E4B02221A7625
:103850007B69B3F801309AB24A4BDA824A4B0022B4
:103860001A704A4B00221A707B69B3F801309AB281
:10387000454B5A807B69B3F801309AB2434B5A806A
:10388000414802F07BF8414802F0CEF94048FDF78C
:1038900089FD00E000BF6FE03B6D0233FB64FB6C11
:1038A0001B889BB2B3F5006F2AD0B3F5006F60DCC4
:1038B00040F20A4293425CDCB3F5806F04DC042BD7
:1038C00026D0062B51D054E0A3F20143092B50D847
:1038D00001A252F823F000BF513900081B3900083B
:1038E0007339000873390008593900087339000822
:1038F00009390008733900083339000873390008A2
:10390000FB6C0233BB6435E0FB6C02333B6431E09B
:1039100005212048FDF71CFD2CE01F4BFB63194BD4
:10392000DB8AF96B1846FFF791F8034687F85730A2
:1039300020E0012387F84730124BDB8A97F84720B5
:1039400011461846FFF7EDF8034687F8573011E0A7
:10395000FB6C0233BB630DE00A4BDB8A1846FFF7B2
:10396000D0F8034687F8573004E0FB6C02337B63E2
:1039700000E000BF00E000BF012318465837BD46F5
:1039800080BD00BFA4070020F4070020F807002036
:10399000C0070020D807002007B2010090B595B0FD
:1039A00008AF0346FB710023FB620023BB620023C8
:1039B0007B6200233B62FB79062B60D801A252F8A0
:1039C00023F000BF053A0008E13900081B3A00085F
:1039D000F3390008313A00087F3A0008373A000806
:1039E0008023FB62A023BB6204237B6200233B6233
:1039F00046E08023FB62A023BB6206237B62032395
:103A00003B623DE04FF4C863FB624FF47A63BB62F4
:103A100005237B6200233B6232E04FF4C863FB6204
:103A20004FF47A63BB6207237B6203233B6227E088
:103A300000237B6224E04FF44873FB624FF4487329
:103A4000BB6200237B624FF4FA733B62474B93F8EF
:103A50004C30002B08D0454B002283F84C20282303
:103A6000FB622823BB620BE0404B012283F84C2011
:103A70004FF44873FB624FF44873BB6200E000BF31
:103A8000FB79062B6AD801A252F823F0A93A000864
:103A9000A93A0008A93A0008A93A00080B3B000817
:103AA000233B00083B3B00083B6AD8B2FB6A99B253
:103AB000BB6A9AB200230693002305930023049364
:103AC0000023039300230293002301930023009318
:103AD0000023FEF752FF0346FB77FB7F002B03D149
:103AE0007B6ADAB2214B1A760A20FEF7EEFF034614
:103AF000FB771F4B3B611023FB73FB7B3969184637
:103B0000FEF7D1FF0346FB772BE0FEF72AFF0346C3
:103B1000FB77FB7F002B23D17B6ADAB2134B1A763B
:103B20001EE0134BBB611023FB75FB7DB969184682
:103B3000FEF7B9FF0346FB7713E00C4BD88AFB6A0C
:103B400099B2BB6A9AB27B6A9CB23B6A9BB2009301
:103B50002346FFF76CF80346FB7702E000BF00E066
:103B600000BF00BF3437BD4690BD00BFA407002092
:103B70006800002080B582B000AF1E4B44221A823C
:103B80001C4B08225A821B4B4FF4A8629A82194B95
:103B90001E22DA75174BFB225A83164B40229A7766
:103BA000144BF8229A83134B2022DA77114B02220E
:103BB0009A75104B6F221A830E4B0F4A1A600D4BE9
:103BC00041F284525A600B4B0C4A9A60094B4FF4F5
:103BD0008B52DA60074B00221A84064B00225A628D
:103BE00004481CF097FA0346FB71FB791846083726
:103BF000BD4680BDD0360020EC0F0020702500208F
:103C0000F0B597B006AF0023FB840023BB840023EC
:103C10007B8400233B84BA4A01213420FEF767FEEF
:103C2000034687F83F3000F0ADF9B863BA6B062160
:103C30000020FEF75CFE034687F83F3000F036FABE
:103C400078637A6B10211820FEF751FE034687F83F
:103C50003F3000F0BDFA38633A6B10210820FEF7C0
:103C600046FE034687F83F3019210120FEF754FE37
:103C7000034687F83F30FEF769FF034687F83F3079
:103C8000002387F82F3097F82F3043F0010387F88F
:103C90002F3097F82F30002B28D007F1260297F805
:103CA0002F0007F12203019307F124030093134629
:103CB00006220021FEF7DCFE034687F83F30F88C31
:103CC000B98C904B009306230022FEF791FF034628
:103CD00087F83F30F88C798C07F12003009302239A
:103CE0000022FEF785FF034687F83F3002220221BB
:103CF0000020FEF7E6FD034687F83F30824B0122A5
:103D00001A70814B1B781846FEF765FE034687F84C
:103D10003F307D4B01225A707B4B08221A717A4B3F
:103D200010225A71784B0022DA70774B774A9A60EA
:103D3000754B01229A70BA6B1021754800F01EFB7A
:103D4000714B9C78704B5D786F4B1B796E4A527942
:103D50006D49C9786C4880680026049603900291EA
:103D6000019200930023012229462046FEF743FEDC
:103D7000034687F83F30644B9B78002B04D0FEF756
:103D8000B4FE034687F83F300023FB811623BB8532
:103D900019233B74ED237B748223BB74AE23FB7425
:103DA000ED233B7521237B754C23BB759D23FB7550
:103DB00041233B7645237B762223BB768E23FB76FD
:103DC00031233B77FE237B770023BB770023FB77F0
:103DD000F88CB98D07F1100207F10E03059300234B
:103DE00004931023039300230293002301930223DF
:103DF00000930B460221FEF7D1FE034687F83F30C1
:103E0000444BBB62FFF74EFB0346DAB2414B1A70DC
:103E1000FFF748FB03461B0ADAB23E4B5A70FFF726
:103E20004FFB0346DAB23B4B9A70FFF749FB034660
:103E30001B0ADAB2374BDA70364B8B221A71FFF756
:103E400095FB0346DAB2334B5A71324B01229A7119
:103E5000304B0622DA712F4B00221A722D4B0022B2
:103E60005A722C4B00229A722A4B8322DA72002358
:103E70007B7300237B8100237B720023FB80002364
:103E8000BB80BC1D07F1090207F10A0107F10D0013
:103E90003B1D00932346FEF7FEFC7B89DAB21D4BE7
:103EA0001A737B891B0A9BB2DAB21A4B5A73194BED
:103EB000FF229A73174BFF22DA73164BFF221A74F4
:103EC000144BFF225A74134BFF229A74114BFF229A
:103ED000DA74104BFF221A750E4BFF225A75F88CBC
:103EE000F989BB8DDAB2BB6A009313460022FEF754
:103EF0007FFE034687F83F3000BF4437BD46F0BD24
:103F0000E083020860000020A407002007B201003F
:103F100068000020F836002080B582B000AF002392
:103F20003B603B4619461648FCF704FC3B680833E7
:103F30001846FCF72DFD0346FB71FB79002B04D0DE
:103F40003B681846FDF7B6FD04E03B6819460C488F
:103F5000FCF798FB0A48FCF77BFB0346002B06D1D5
:103F6000FB79002B03D000210420FDF7ADF80021E0
:103F70001020FDF7A9F800BF0837BD4680BD00BF7F
:103F80007407002080B58AB000AF00237B61454AEA
:103F900007F10C0392E803001860043319803B1DFD
:103FA00006220021184624F03DF93F4B34221A70B6
:103FB0003D4B12225A703C4B2A229A703A4BE12216
:103FC000DA70394B08221A71374B00225A713B1DA7
:103FD00006221946344824F015F90346002B02D076
:103FE000314B7B6258E0FFF779FA38623B6AB3F1F4
:103FF000FF3F23D0FFF78AFAF861FFF77BFAB86139
:104000003B6ADAB2284B1A703B6A1B0ADAB2264BBB
:104010005A70BB69DAB2244B9A70FB69DAB2224B50
:10402000DA70FB691B0ADAB21F4B1A71FB691B0CB1
:10403000DAB21D4B5A711C4B7B622DE007F1140361
:1040400019460020FFF755F80346002B1AD17B696B
:104050001A7A154B1A707B695A7A134B5A707B691E
:104060009A7A114B9A707B69DA7A0F4BDA707B6916
:104070001A7B0D4B1A717B695A7B0B4B5A710A4B99
:104080007B6209E0084B07F10C0292E8030018601C
:1040900004331980044B7B627B6A18462837BD467F
:1040A00080BD00BFB88202087C07002090B591B0A7
:1040B00000AF454B07F114040FCB84E80F00424BCF
:1040C0003C1D0FCB84E80F0007F1240310220021D0
:1040D000184624F0A7F83D4B1C4607F114030FCBFC
:1040E00084E80F0007F1240310221946374824F012
:1040F00089F80346002B02D0344BFB635EE0FFF7E8
:1041000011FAB863FFF71AFA7863BB6BB3F1FF3F9C
:104110004CD07B6BB3F1FF3F48D0BB6BDAB22B4B7B
:104120001A722A4B1A7A294B1A70BB6B1B0ADAB225
:10413000264B5A72254B5A7A244B5A70BB6B1B0C78
:10414000DAB2224B9A72214B9A7A204B9A70BB6B4F
:104150001B0EDAB21D4BDA721C4BDA7A1B4BDA708B
:104160007B6BDAB2194B1A73184B1A7B174B1A7107
:104170007B6B1B0ADAB2154B5A73144B5A7B134BE9
:104180005A717B6B1B0CDAB2104B9A730F4B9A7BF4
:104190000E4B9A717B6B1B0EDAB20C4BDA730B4B26
:1041A000DA7B0A4BDA71094BFB6307E0074B1C46CD
:1041B0003B1D0FCB84E80F00044BFB63FB6B1846E1
:1041C0004437BD4690BD00BFC0820208840700206E
:1041D00090B591B000AF494B07F114040FCB84E8C0
:1041E0000F00464B3C1D0FCB84E80F0007F1240362
:1041F00010220021184624F015F8414B1C4607F107
:1042000014030FCB84E80F0007F124031022194692
:104210003B4823F0F7FF0346002B02D0384BFB63EB
:1042200066E0FFF78BF9B863FFF794F97863BB6B2F
:10423000B3F1FF3F54D07B6BB3F1FF3F50D07B6BAA
:10424000DAB22F4B1A722E4B1A7A2D4B1A707B6BE7
:104250001B0ADAB22A4B5A72294B5A7A284B5A70E7
:104260007B6B1B0CDAB2264B9A72254B9A7A244B45
:104270009A707B6B1B0EDAB2214BDA72204BDA7A22
:104280001F4BDA70BB6BDBB2DB43DAB21C4B1A7329
:104290001B4B1A7B1A4B1A71BB6B1B0ADBB2DB433D
:1042A000DAB2174B5A73164B5A7B154B5A71BB6BCC
:1042B0001B0CDBB2DB43DAB2114B9A73104B9A7BC7
:1042C0000F4B9A71BB6B1B0EDBB2DB43DAB20C4BAC
:1042D000DA730B4BDA7B0A4BDA71094BFB6307E0AD
:1042E000074B1C463B1D0FCB84E80F00044BFB63C0
:1042F000FB6B18464437BD4690BD00BFD082020814
:104300009407002080B500AF1BF066FF0346002B2A
:1043100001D1FCF757F900BF80BD80B500AF012087
:10432000FCF7F8FE00BF80BD80B582B000AF0F2360
:104330003B7138790AF097FA00BF0837BD4680BD57
:1043400080B582B000AF786000214FF48050FCF758
:10435000BBFE00BF0837BD4680BD80B483B000AF50
:10436000786000BF0C37BD465DF8047B704780B5B0
:1043700000AF0420FFF712FB00BF80BD80B487B000
:1043800000AFF8600B467A60FB720023FB82D8E036
:10439000FB8AFA6813441B787B75FB8A0133FA6841
:1043A00013441B783B753B7DFF2B5CD0FF2B00F348
:1043B000BA800A2B00F0B9800A2B00F3B480012BDD
:1043C00000F0B580092B00D0ADE0FA8A7B7D134464
:1043D0001A46FB6813441B78582B40F0AA80FA8ACF
:1043E0007B7D1344013BFA6813441B78582B40F043
:1043F000A0807B681B781B09FB747B681B7803F02B
:104400000F03BB74FB7C092B0AD9FA8A7B7D13440A
:10441000013BFA681344FA7C3732D2B21A7009E0D1
:10442000FA8A7B7D1344013BFA681344FA7C3032EC
:10443000D2B21A70BB7C092B0AD9FA8A7B7D13444D
:104440001A46FB681344BA7C3732D2B21A7070E055
:10445000FA8A7B7D13441A46FB681344BA7C3032D7
:10446000D2B21A7065E0FB8A0233FA681344302234
:104470001A70FB8A0333FA68134400221A70FB8A0D
:104480000433FA68134402221A70FB8A0533FA686F
:1044900013448B221A70FB8A0633FA681344832272
:1044A0001A70FB8A0733FA68134400221A70FB8AD9
:1044B0000833FA68134400221A70FB8A0933FA6839
:1044C000134400221A707B685A1DFB8A0A33F9686C
:1044D0000B4412781A707B681A1DFB8A0B33F9683B
:1044E0000B4412781A707B68DA1CFB8A0C33F9686B
:1044F0000B4412781A707B689A1CFB8A0D33F9689A
:104500000B4412781A707B685A1CFB8A0E33F968C8
:104510000B4412781A70FB8A0F33FA6813447A68D6
:1045200012781A7006E000BF04E000BF02E000BF8E
:1045300000E000BF7B7D9AB2FB8A13449BB201333B
:10454000FB82FB7A9BB2FA8A9A42FFF421AF00BF4A
:1045500000BF1C37BD465DF8047B704780B586B050
:1045600000AFF8607A601A460B467B8113463B81A8
:104570009123FB7500233B617A893B891344BB82FD
:10458000FB681B78042B38D1214B224A9A60BB8AE6
:104590000B33990807F110021D4B0220FDF754F967
:1045A0000346002B02D09123FB752CE03B69002BC6
:1045B00029D03B6904221A72FB685A1C3B691278A5
:1045C0005A72FB689A1C3B6912789A723B6903F134
:1045D0000B00FB68D91CFB6802331B781A4619F0E4
:1045E0007FF83B6919460C48FCF76BF80021042062
:1045F000FCF76AFD0023FB7505E0FB681B78022BC6
:1046000001D10023FB75FB7D18461837BD4680BDE0
:10461000E00F0020294300087407002080B483B015
:1046200000AF0346FB7100BF0C37BD465DF8047B4D
:10463000704780B483B000AF0346FB7100BF0C37F6
:10464000BD465DF8047B704780B400AF054B1B6826
:10465000044A23F48073136000BFBD465DF8047BF9
:10466000704700BF000C024680B400AF064BD3F881
:10467000F430054A43F40003C2F8F43000BFBD46ED
:104680005DF8047B704700BF000C024680B500AFA8
:1046900000F052F800BF80BD80B582B000AF7860F6
:1046A0000020FFF7BBFF00F061F800F073F805F0A1
:1046B00067FE00F0ADF800F079F800F085F800F042
:1046C0009BF8174B1B884FF6FF72934211D0144B87
:1046D0001B88002B0BD0124B1B889B0223F4FF532B
:1046E00023F01F0303F1FF6303F5F82302E00D4BF2
:1046F00000E00C4B184601F0B1FA0346002B01D044
:1047000000F0F0FFFEF740FF0121022000F00CFA5C
:104710000020FFF78EFF002318460837BD4680BDF6
:10472000A007F90B00C00F0880B500AF4FF0FF30B5
:10473000FCF738FB00BF80BD80B582B000AF00231E
:104740007B603B1D19460020FEF7D3FC0346002B7F
:1047500003D00C2005F08CF904E07B689B7B1846A5
:1047600005F086F900BF0837BD4680BD80B500AFB3
:10477000FFF77AFFFCF740FD044804F06FF8FEF7FE
:10478000D9FD034B01221A7000BF80BD40000030EC
:104790000E37002080B500AFFEF7A4FCFEF7C8FC82
:1047A00001210120FEF7CBFC00BF80BD80B500AF2A
:1047B00000F05CFD034A00210120FCF769FC00BF0A
:1047C00080BD00BFC552000880B500AF094A002176
:1047D0004FF48070FCF75CFC0121012000F0A4F98B
:1047E0000021022000F0A0F90021002000F09CF937
:1047F00000BF80BD2131000880B500AF034A002111
:104800004020FCF745FC00BF80BD00BF352D0008EF
:1048100080B500AF0748FCF7C7FE0346002B01D068
:1048200000F060FF044A00212020FCF731FC00BFAB
:1048300080BD00BF88000020911C000880B500AF3B
:1048400000210120FCF740FC00BF80BD80B500AF17
:1048500000214FF48070FCF737FC00BF80BD80B5AD
:1048600000AFFFF7F1FE00BF80BD000080B584B04F
:1048700000AF78600823FB737B68002B02D106230E
:10488000FB731FE07B681B7A012B02D10323FB73B0
:1048900018E000F039F90346FB73FB7B002B11D1C4
:1048A0000B4B1B6801330A4A1360094B1A687B687B
:1048B0001A607B689A697B685A607B6801221A7269
:1048C00000F02AF9FB7B18461037BD4680BD00BFBB
:1048D000CC46002080B586B000AFF860B9607A6041
:1048E0003B600823FB750023BB75FB68002B05D0DC
:1048F000BB68002B02D03B68002B02D10623FB755E
:1049000039E0FB681B7A002B02D10423FB7532E0EF
:10491000FB681A681A4B1B689A4203D8FB681B682D
:10492000002B02D10523FB7525E000F0EDF80346CE
:10493000FB75FB7D002B1ED1FB681A68114B1B68B1
:104940009A4204D0F86800F08BF80346BB75BB7D33
:10495000002B0CD17A68B9680B4803F0FEFA0246C6
:104960003B681A603B681A68FB685A6001E00723DD
:10497000FB7500F0D1F8FB7D18461837BD4680BDA9
:10498000CC460020C84600209800002080B586B0A4
:1049900000AFF860B9607A603B600823FB75FB6884
:1049A000002B05D0BB68002B02D03B68002B02D146
:1049B0000623FB7549E0FB681B7A002B02D1042318
:1049C000FB7542E0FB681A68224B1B689A4203D8C9
:1049D000FB681B68002B02D10523FB7535E000F056
:1049E00093F80346FB75FB7D002B2ED1FB681A68FC
:1049F000194B1B689A420CD17A68B968174803F0C2
:104A000068FA02463B681A603B681A68FB685A609D
:104A100019E0F86800F024F80346002B11D10F4B81
:104A20001B68FA6852681A617A68B9680B4803F023
:104A300094FA02463B681A603B681A68FB685A6041
:104A400001E00723FB7500F067F8FB7D1846183777
:104A5000BD4680BDCC460020C846002098000020FE
:104A600080B584B000AF78600023FB73234B5B7F7D
:104A7000DBB2002B04D0214803F0FEF90346FB73A0
:104A8000FB7B002B34D17B685B691C4AD3607B685D
:104A90005A7B1A4B5A717B681A7B184B1A717B68C8
:104AA0001B69164A93607B689B69144A13617B6893
:104AB000DB69124A53617B681B6A104A93617B6809
:104AC0005B6A0E4A13620D4803F072F90346FB73EA
:104AD000FB7B002B04D17B681B68094A136007E04D
:104AE00018220021074823F09DFB044B00221A6284
:104AF000FB7B18461037BD4680BD00BF98000020E4
:104B0000C84600209C00002080B400AF0023184657
:104B1000BD465DF8047B704780B400AF00231846A3
:104B2000BD465DF8047B704780B487B000AF786005
:104B30000B46FB70EFF310833B613B697B6172B600
:104B400000BFFB78002B0AD0012B13D101227B6818
:104B50009A400F4B1B6813430D4A13600BE0012270
:104B60007B6802FA03F3DA43094B1B681340084AD7
:104B7000136000E000BF7B69FB60FB6883F3108873
:104B800000BF00BF1C37BD465DF8047B704700BF07
:104B9000D046002080B586B000AFF860B9607A607A
:104BA0003B60BB68B3F1006F31D32F4B1B884FF6CE
:104BB000FF7293420CD02C4B1B88002B05D02A4B44
:104BC0001B889B0203F1006304E04FF0016301E0E6
:104BD0004FF00163BA68934219D3BA687B681A44EC
:104BE000214B1B884FF6FF718B420CD01E4B1B884C
:104BF000002B05D01C4B1B889B0203F1006304E0D3
:104C00004FF0016301E04FF00163934201D20223B0
:104C100025E0FB6803F00303002B04D1BB6803F01D
:104C20000F03002B01D0022319E0386800F080F850
:104C30000346FB75FB7D002B10D10C4AFB6813600B
:104C40000A4ABB685360094A7B689360084B00229C
:104C50001A70084B00221A70FFF7F8FDFB7D18460A
:104C60001837BD4680BD00BFA007F90BEC460020F9
:104C7000E84600200047002080B586B000AFF8600D
:104C8000B9607A60264B1B884FF6FF7293420AD0B8
:104C9000234B1B88002B04D0214B1B889B025B0BF2
:104CA00002E0802300E08023FA68934216D3FA687A
:104CB000BB681A441A4B1B884FF6FF718B420AD00F
:104CC000174B1B88002B04D0154B1B889B025B0BDA
:104CD00002E0802300E08023934201D202231BE004
:104CE000BB68002B01D1022316E0786800F020F8A1
:104CF0000346FB75FB7D002B0DD10A4AFB68D36090
:104D0000084ABB681361084B01221A70074B002246
:104D10001A70FFF79BFDFB7D18461837BD4680BD16
:104D2000A007F90BEC460020E846002000470020D1
:104D300080B58CB000AF7860002387F82F30022355
:104D400087F82E30EFF31083FB61FB69BB6272B60C
:104D500000BF3D4B1B7883F00103DBB2002B05D075
:104D60003A48FBF765FC384B01221A70384B1B7828
:104D700083F00103DBB2002B14D0364B1B7883F099
:104D80000103DBB2002B09D0314B01221A70314BE9
:104D900001221A70012387F82F3006E0002387F8DC
:104DA0002F3002E0002387F82F30BB6ABB61BB695C
:104DB00083F3108800BF97F82F3083F00103DBB234
:104DC000002B0FD07B68002B08D07B689B68002BE2
:104DD00004D07B6819461D48FBF773FC012387F854
:104DE0002E302BE07B68002B15D07B689B68002B56
:104DF00011D0EFF310833B613B697B6272B600BF59
:104E00007B689B68144A13607B6A7B617B6983F3D0
:104E1000108800BF0FE0EFF31083BB60BB683B62FC
:104E200072B600BF0C4B00221A603B6AFB60FB6845
:104E300083F3108800BF002387F82E3097F82E30B8
:104E400018463037BD4680BDE0460020D8460020D9
:104E5000D4460020D5460020E446002080B400AFB0
:104E6000054B1B68044A43F48073136000BFBD46C2
:104E70005DF8047B704700BF000C024680B400AFB1
:104E8000074B1B6803F48063B3F5806F01D10123E6
:104E900000E000231846BD465DF8047B704700BF64
:104EA000000C024680B485B000AF78600A4BD3F89E
:104EB0008C2009497B681343C1F88C30064BD3F82A
:104EC0008C207B681340FB60FB6800BF1437BD4635
:104ED0005DF8047B704700BF000C024680B483B0CD
:104EE00000AF7860074BD3F88C207B68DB43054923
:104EF0001340C1F88C3000BF0C37BD465DF8047B11
:104F0000704700BF000C024680B483B000AF7860E9
:104F10007B681B6843F004027B681A6000BF0C3793
:104F2000BD465DF8047B704780B483B000AF786005
:104F30007B681B6823F004027B681A6000BF0C3793
:104F4000BD465DF8047B704780B483B000AF7860E5
:104F50007B685B6803F00103012B01D1012300E0B2
:104F6000002318460C37BD465DF8047B704780B4BB
:104F700083B000AF78607B685B6803F00203022BAC
:104F800001D1012300E0002318460C37BD465DF82F
:104F9000047B704780B483B000AF78607B685B6847
:104FA00003F04003402B01D1012300E00023184609
:104FB0000C37BD465DF8047B704780B483B000AF0A
:104FC00078607B686FF020025A6000BF0C37BD46E6
:104FD0005DF8047B704780B483B000AF78607B6875
:104FE0006FF040025A6000BF0C37BD465DF8047B8D
:104FF000704780B483B000AF78607B689B681846C8
:105000000C37BD465DF8047B704780B500AFFFF7F5
:1050100025FF01E0FFF722FFFFF730FF0346002BDB
:10502000F8D000BF00BF80BD80B500AF0420FEF700
:10503000E7F80548FFF778FF012000F035F8042075
:10504000FEF7E9F800BF80BD00080C4280B586B0CD
:1050500000AF0346FB71134B7B61FFF7D6FFEFF305
:105060001083FB60FB683B6172B600BF7B6993F8FD
:105070008230002B03D14FF48020FFF713FF7B69B0
:1050800093F88220FB791343DAB27B6983F882209C
:105090003B69BB60BB6883F3108800BF00BF183753
:1050A000BD4680BD0447002080B58AB000AF0346EE
:1050B000FB71204B7B62EFF310837B617B693B626A
:1050C00072B600BF7B6A93F882305AB297F9073004
:1050D000DB435BB213405BB2DAB27B6A83F88220B7
:1050E0003B6ABB61BB6983F3108800BF7B6A93F89E
:1050F0008230002B01D100F01FF8EFF310833B61E9
:105100003B69FB6172B600BF7B6A93F88230002B6B
:1051100003D14FF48020FFF7E1FEFB69FB60FB68E1
:1051200083F3108800BFFFF79AFB00BF2837BD4606
:1051300080BD00BF0447002080B483B000AFB2231D
:105140007B6002E07B68013B7B607B68002BF9D1D0
:1051500000BF00BF0C37BD465DF8047B7047000000
:1051600090B589B000AF78600023BB617B6893F88D
:105170008130002B10D10320FEF742F80120FFF709
:1051800065FF3948FFF7C0FE0320FEF744F87B684F
:10519000012283F8812062E03348FFF7E8FE0346EE
:1051A000002B06D03048FFF708FF40F20113BB6127
:1051B00055E02D48FFF7EEFE0346002B12D02A489B
:1051C000FFF709FF0C23FB6105E02748FFF711FFFC
:1051D000FB69013BFB61FB69002BF6DC4FF481733B
:1051E000BB613CE07B6893F880301F2B31D8EFF334
:1051F00010833B613B697B6172B600BF0520FDF700
:10520000FFFF12E07B6893F880301C461648FFF7DA
:10521000F0FE02467B6843F824207B6893F88030D8
:105220000133DAB27B6883F880207B6893F88030A2
:105230001F2B05D80C48FFF787FE0346002BE1D152
:105240000520FDF7E8FF7B69FB60FB6883F31088AE
:1052500005E0FFF7E9FE7B68002283F88120BB6947
:1052600018462437BD4690BD00080C4280B582B078
:1052700000AF134B7B607B68002283F880207B6843
:10528000002283F881207B680022C3F884207B6899
:10529000002283F882207868FFF762FF02467B686D
:1052A000C3F884207B6893F88130002B04D07B689E
:1052B000D3F88430002BEED000BF0837BD4680BD48
:1052C0000447002080B586B000AF1F4B3B61002330
:1052D0007B613B6993F88130002B04D13B6993F8E3
:1052E00080301F2B25D8EFF310837B607B68FB6039
:1052F00072B600BF3B69D3F884307B613B69002202
:10530000C3F88420FB68BB60BB6883F3108800BFD0
:105310007B69002B0DD13869FFF722FF78617B692B
:10532000002B06D13B6993F88130002B01D001237B
:105330007B617B69002B01D0FFF780FA7B691846FF
:105340001837BD4680BD00BF0447002080B483B03D
:1053500000AF0346FB71044AFB79137000BF0C37A2
:10536000BD465DF8047B7047DC47002080B584B003
:1053700000AF0023FB7300233B7102F0EDFAFFF74F
:1053800085F900F03BF800F09BF800F065F900F0BB
:10539000C7F800F0F1F800F0D7F800F0ADF80022FF
:1053A0004FF48051134803F00FF90020FFF774F910
:1053B000FFF7BAF9FB7B0133FB73FB7B642B01D94D
:1053C0000023FB73FB7B3B71BB683A1D1A60BB6813
:1053D00001221A71B968002000F090FA064B1B7880
:1053E0001A464FF48051034803F0EEF8642002F0AF
:1053F0005DFBDDE700040242DC47002080B598B089
:1054000000AF07F1200340220021184622F00AFFD6
:105410003B4620220021184622F004FF002003F022
:10542000B9FA4FF4803003F057FA0346002B01D04D
:1054300000F058F90B233B624FF480337B6200236A
:10544000BB624FF480733B6310237B634FF0806338
:10545000BB630023FB6300233B6407F12003184672
:1054600003F0FEFA0346002B01D000F03BF93F2386
:105470003B6002237B600023BB600023FB60402372
:105480003B6100237B610023BB610023FB613B4642
:105490000021184603F0F4FE0346002B01D000F073
:1054A00021F9002002F02CFC0E2002F075FA0346D0
:1054B000002B01D000F016F900BF6037BD4680BD5B
:1054C00080B592B000AF3B4648220021184622F03A
:1054D000A9FE4FF400433B604FF400237B643B463E
:1054E000184604F0B9F80346002B01D000F0FAF892
:1054F00000BF4837BD4680BD80B500AF002003F037
:105500007BF80346002B01D000F0ECF803F094F890
:105510000346002B01D000F0E5F800BF80BD00007D
:1055200080B500AF064B074A1A60054803F07EFAC3
:105530000346002B01D000F0D5F800BF80BD00BFAE
:105540008C4700200060024080B500AF084B094A3C
:105550001A60074B20225A60054804F0A1FA03465E
:10556000002B01D000F0BEF8FFF75EFD00BF80BD4C
:105570009847002000080C4280B594B000AF07F1B6
:10558000340300221A605A609A60DA601A615A6124
:105590009A613B1D30220021184622F043FE2C4B1D
:1055A0002C4A1A602A4B1F229A60294B00221A614A
:1055B000274B00225A61264B00229A61244B4FF060
:1055C0008042DA61224B00221A62214B4FF4807232
:1055D0005A621F4804F0FCFA0346002B01D000F089
:1055E00081F800237B6300233B6400237B6400235A
:1055F000BB6407F134031946154804F0E5FD034682
:10560000002B01D000F06EF8114804F09BFD03461A
:10561000002B01D000F066F800233B620023BB6042
:105620000023BB614FF07C53FB614FF480733B63FD
:105630003B1D01221946064804F04CFB0346002B93
:1056400001D000F04FF800BF5037BD4680BD00BF0D
:10565000AC4700200078004680B588B000AF07F165
:105660000C0300221A605A609A60DA601A611B4BC0
:10567000D3F88C30194A43F00203C2F88C30174B30
:10568000D3F88C3003F00203BB60BB68134BD3F834
:105690008C30124A43F00103C2F88C300F4BD3F820
:1056A0008C3003F001037B607B6800224FF4805153
:1056B0000B4802F089FF4FF48053FB6001233B61EC
:1056C00000237B610023BB6107F10C0319460448EA
:1056D00002F024FE00BF2037BD4680BD000C02460C
:1056E0000004024280B400AF72B600BF00BFFDE705
:1056F00080B58EB000AF7860002387F837307B68C4
:1057000001333B633B6B1B78FF2B7CD13B6B02333C
:10571000FB62FB6A1B889BB2A3F60143152B6ED874
:1057200001A252F823F000BF81570008FF5700087C
:10573000F7570008FF570008FF570008FF570008F9
:10574000FF570008FF570008FF570008FF570008E1
:10575000FF570008FF570008FF570008FF570008D1
:10576000FF570008FF570008FF570008FF570008C1
:10577000FF570008FF570008FF570008EF570008C1
:10578000FB6A02333B623B6A1B889BB23B833B6AEA
:105790005B889BB27B833B6ADB889BB2DBB23B7549
:1057A0003B6A08333B613B6A5B889BB21A46194BE4
:1057B0005B8802339A4224D1012387F837303B6A51
:1057C0001B7A002B02D0012B08D00FE002233B7381
:1057D00007F10C03184600F0B5F807E001233B730E
:1057E00007F10C03184600F0ADF800BF09E0FB6AB2
:1057F0000233BB6206E0FB6A02337B6202E000BF59
:1058000002E000BF00E000BF97F837301846383795
:10581000BD4680BDE047002080B58CB006AF34485F
:10582000FBF79CF80423FB758F233B71E5237B7109
:10583000B323BB71D523FB712E233B727F237B7275
:105840004A23BB729823FB722A233B7348237B7342
:105850007A23BB73CC23FB7340233B74FE237B74FE
:105860000023BB740023FB74FB7D391D214A009289
:1058700001220220FDF776F90346BB7519233B711F
:10588000ED237B718223BB71AE23FB71ED233B7251
:1058900021237B724C23BB729D23FB7241233B73FC
:1058A00045237B732223BB738E23FB7341233B74FD
:1058B000FE237B740023BB740023FB740D4B1888FC
:1058C00001213A1D0C4B05930123049310230393EC
:1058D0000123029300230193122300930B4602211C
:1058E000FDF75CF90346BB7500BF1837BD4680BDA8
:1058F000F1560008E0470020E247002080B586B05E
:1059000002AF03463960FB719223FB73FB79002BD6
:105910000FD10B4B18880A4B59883B681A793B68A2
:105920001B68009313460022FDF762F90346FB73E0
:1059300000E000BFFB7B18461037BD4680BD00BFAE
:10594000E047002080B483B000AF78607B681B78AC
:10595000022B06D0022B06DC002B06D0012B06D032
:1059600001E000BF04E000BF02E000BF00E000BFB4
:1059700000BF0C37BD465DF8047B704780B483B030
:1059800000AF78607B681B78002B02D0012B02D01F
:1059900002E000BF00E000BF00BF0C37BD465DF86D
:1059A000047B704780B500AFFFF736FF00BF80BDB6
:1059B00080B58EB000AF7860002387F837307B6801
:1059C00001333B633B6B1B78FF2B40F092803B6BBA
:1059D0000233FB62FB6A1B889BB2A3F60143152BC3
:1059E00000F2838001A252F823F000BF455A00085C
:1059F000EB5A0008E35A0008EB5A0008EB5A00087B
:105A0000EB5A0008EB5A0008EB5A0008EB5A000862
:105A1000EB5A0008EB5A0008EB5A0008EB5A000852
:105A2000EB5A0008EB5A0008EB5A0008EB5A000842
:105A3000EB5A0008EB5A0008EB5A0008EB5A000832
:105A4000DB5A0008FB6A02333B623B6A1B889BB24D
:105A50003B833B6A5B889BB27B833B6ADB889BB260
:105A6000DBB23B753B6A08333B613B6A5B889BB2A8
:105A70001A46234B5B8802339A4219D1012387F8D7
:105A800037303B6A1B7A002B02D0012B08D023E071
:105A900003233B7307F10C03184600F0A5F81BE045
:105AA00002233B7307F10C03184600F09DF813E046
:105AB0003B6A5B889BB21A46114B5B8801339A4262
:105AC00015D1012387F8373001233B7307F10C030D
:105AD000184600F089F80AE009E0FB6A0233BB626D
